:10000000000001203902000091020000930200006C
:100010009502000097020000990200000000000015
:100020000000000000000000000000009B02000033
:100030009D020000000000009F020000A1020000DD
:10004000A5020000A70200000523000061230000B4
:10005000AD020000AF020000B1020000B3020000D8
:10006000B5020000B7020000B9020000BB020000A8
:10007000BD020000BF020000C1020000C302000078
:10008000C5020000C7020000C9020000CB02000048
:10009000CD020000CF020000D1020000D302000018
:1000A000D5020000D7020000D9020000DB020000E8
:1000B000DD020000DF020000A3020000A302000036
:1000C000E1020000E3020000E5020000E702000098
:0C00D000E9020000EB020000ED0200005D
:1000DC00354936480A1A02D0072291438D463449D5
:1000EC0034480A1A06D00722914381F30988022268
:1000FC0082F3148830483149314A00F044F83148D1
:10010C003149324A00F03FF831483249324A00F066
:10011C003AF832483249334A00F035F8324833491C
:10012C00334A00F030F833483349344A00F02BF8A6
:10013C0033483449344A00F026F834483449002214
:10014C0000F02CF833483449002200F027F83348EB
:10015C003349091A082902DB002202604160314A46
:10016C0090471F481F49884205D00268043003B4E9
:10017C00904703BCF7E700208646EC4600200021A0
:10018C00294A9047FEE7884207D0521A05D00378D7
:10019C0001300B700131013AF9D17047884202D01D
:1001AC0002700130FAE770470000012000E00020E7
:1001BC000000012000000120505B0000180000200E
:1001CC005C000020F0020000F0020000645400000B
:1001DC00505B00001800002018000020C4540000E0
:1001EC00C4540000C4540000C4540000C4540000A3
:1001FC00C4540000C4540000C45400004F5B000001
:10020C00945B00005C0000205C0000205C0000207F
:10021C00F00D0020F00D0020F00D0020F00D00205E
:10022C00F02D00205D020000FD2F00000F484FF064
:10023C000701884385460E4880470E48016841F403
:10024C0070010160BFF34F8FBFF36F8FFFF740BF9B
:10025C0009480A490A4A884207D0521A05D003783D
:10026C0001300B700131013AF9D1704700000120C7
:10027C00D148000088ED00E0AC54000000000020E4
:10028C0018000020FEE7FEE7FEE7FEE7FEE7FEE7CC
:10029C00FEE7FEE7FEE7FEE7FEE7FEE7FEE7FEE72A
:1002AC00FEE7FEE7FEE7FEE7FEE7FEE7FEE7FEE71A
:1002BC00FEE7FEE7FEE7FEE7FEE7FEE7FEE7FEE70A
:1002CC00FEE7FEE7FEE7FEE7FEE7FEE7FEE7FEE7FA
:1002DC00FEE7FEE7FEE7FEE7FEE7FEE7FEE7FEE7EA
:0402EC00FEE700BF6A
:1002F000F0B595B01D46164608460C4601F0DBFEEB
:100300001A9B0D93CDE9086500252B46082205A907
:1003100020460A958DF82C500C9501F007FF079B9D
:100320000293069B03939DF814308DF8115003F04F
:100330000302012A1DD1BDF81420059DC3F3C20399
:10034000C2F383168DF81030B20008230EA92046A0
:1003500001F0ECFEC5F3952508AB0093324602ABE5
:100360000EA9284600F0CAFB204601F0A8FE15B0F1
:10037000F0BD022AF8D1BDF81650C3F3C203C5F38D
:1003800089158DF810300827082D2E4628BF08261D
:100390003B4632460EA9204601F0C8FEAD1B08AB15
:1003A00002AA31460EA8374400F00CFC002DEBD118
:1003B000DAE7704707B5044B0093044A4023FFF780
:1003C00097FF03B05DF804FB110400005D000020FE
:1003D00030B50C4D0FCD89B06C460FC495E80F00B9
:1003E00084E80F000623084800930022694601F0C4
:1003F0004BFF08B100F07AFC044B00221A7009B0E0
:1004000030BD00BFC4540000180000205C00002074
:1004100038B50D480D4C0E4D002323700378EB5C6E
:10042000D2B263B1043002F0A1FD08B100F05EFC6D
:10043000084B1A7812B12378002BFBD038BD0C3052
:1004400002F084FBF1E700BF180000209D000020AF
:100450001C0600205C00002008B50848084A037804
:10046000D35C33B1043002F013FDBDE80840FFF760
:10047000AFBF0C3002F0FCFAF7E700BF1800002015
:100480001C060020FFF7A4BF10B5054CFFF7FAFFCC
:100490000421204600F0A0FA0123637210BD00BFC2
:1004A0002C000020037813F0030F03F0040202D0A5
:1004B00012B910467047B2B103F00303012B03D009
:1004C000022B09D0012070470A6800880232C0F36D
:1004D000831002440A60F5E70B684288023303EB9D
:1004E00092130B60EEE70B684288013303EB921323
:1004F0000288F4E72DE9F04FDFF824A10F4685B01C
:100500000446861C0020154601F0E8F9DAF80010D0
:100510003960DAE90132134401335B1A0AF21C47ED
:100520000AF583690AF21448B3421BD30020002D58
:1005300072D004F00F039B0143F0050363F30F0037
:10054000DAF80020DAF808301340033332444AF86E
:1005500023000020CAF8002001F0C2F9012005B0F4
:10056000BDE8F08F0121384601F0DFF9484601F07F
:10057000F4F9404601F0F1F9DAF80400DAF808B0CD
:10058000009000EA0B0003300AEB80006946FFF799
:1005900089FF009B50BB0BEA03020AEB820203F1C6
:1005A000020CD2680192013303EA0B0B0AEB8B0BAE
:1005B00002F00302012ADBF80C10CDF800C023D0B2
:1005C000022A16D08346404601F0CAF910B1009BBA
:1005D000CAF804305946384601F0A7F9DAE9012390
:1005E0001344DAF8002001339B1A9DE70BEA03005D
:1005F000C9E7BDF80630C3F3891303334FEA114B43
:100600000CEB93030093DEE7BDF80430C3F38313D0
:100610004FEA114B6344F5E7A40544F006008FE769
:100620007001002008B50F4B0F48FF229A6000228E
:10063000C3F81824C3E90022C3F81424012283F864
:10064000202401F0F1FC38B9084A094B09499B1AEA
:10065000DB0802469A4200D108BD21F8222001326F
:10066000F8E700BF700100209454000064540000BB
:10067000945400000000002030B50A4C71B10A4AC1
:100680000A49121BD20800239A4201D1002030BD32
:1006900031F82350854202D00133F5E7034654F880
:1006A0003300F4E76454000094540000020000207A
:1006B000094B013903EBC000032909D8DFE801F039
:1006C0000A02040604207047007970474079704799
:1006D000002070470220704764540000034BD3E9A8
:1006E0000030C31A58425841704700BF70010020C3
:1006F0002DE9F04385B0FFF7F1FF0646002840F0F2
:10070000FA807E4CC4F81804BFF34F8F6368A56865
:1007100000932B40033304EB83006946FFF7C2FECE
:10072000009A0746002865D105EA020304EB83031B
:10073000911C0132DB6801932A4004EB820203F032
:100740000303D2680091022B02926BD1BDF80630F0
:100750006B48C3F38918B8F1500FC14628BF4FF05A
:10076000500909F1080169F38F13C1F30901ADF8CC
:10077000063001F071FC0646002800F0AA8001F066
:100780009AFC3B46082201A9304601F0A6FC0099DC
:1007900025EA01020132B9EB820F4FEA82033AD90E
:1007A0005FFA89F99BB32940DDB2A9EB0509033152
:1007B0005FFA89F7A946534D04EB810108234A46A5
:1007C000304601F08AFC45B109F108095FFA89F366
:1007D0003A462946304601F080FC009B08F10308A8
:1007E00003EB98030093D4F81834002B4FD1D4F8BE
:1007F00010545DE02368934204D86360304605B02E
:10080000BDE8F0832A40033204EB820085E73D49CE
:100810001D461F46D2E72940033108234A4604EB10
:100820008101D7E7012B54D1BDF804303448C3F31C
:100830008311062928BF062161F38913023101F0D3
:100840000F018900ADF8043001F006FC06460028CF
:100850003FD001F030FC3B46082201A9304601F0B0
:100860003CFCBDF80420C2F38312BB00974203F1A5
:100870000803B8D200994A1C29400331009204EBC6
:1008800081010422304601F028FC0137E9E73046B7
:1008900001F015FCFFF722FF80F00100C6B2ADE7C2
:1008A0006B7A23B12B6831461B68284698476D68E0
:1008B000002DF5D1304601F002FC284601F00EF87B
:1008C000D4F818340BB9009B6360002001F008F8DD
:1008D000E0E7D4F8104444B90B4B0C4918880004E5
:1008E00040F0020000F060F8D4E7236820469B68DF
:1008F00098476468EFE7002680E700BF700100209A
:10090000945400007C01002010000020F0540000EE
:100910002DE9F74F224E04460F46924601A90122C7
:100920001846D6F808909B46FFF7E4FD20B3019DDA
:100930004FF00008AA1CD84508EB020126D119483F
:10094000002100F0CFFF80F31000000440EA1440C3
:10095000E4006B1C04F0380403EA090305EA090506
:1009600044F0010406EB8303033544EA881444EAA7
:100970008724D86046F8254096F820341BB1FFF74D
:10098000B7FE0028FBD103B0BDE8F08F09EA0101F2
:1009900006EB81015AF82830CB6008F10108CAE75C
:1009A000700100208C05002000231A46FFF7B0BF1D
:1009B00007B50123019201AAFFF7AAFF03B05DF872
:1009C00004FB07B5CDE9002302236A46FFF7A0FF29
:1009D00003B05DF804FB000030B50E4CD4F81024D1
:1009E00003460020114629B9187242B9C4F81034E0
:1009F0005A6030BD0D7A854205D04968F3E75168E9
:100A000059605360F5E701300A28EBD14FF0FF3011
:100A1000EFE700BF7001002038B5074B0125D3F880
:100A2000104483F8205404B938BD23686572204609
:100A30005B6898476468F6E77001002030B5C388AA
:100A400085B004460D4633B1144A00921449154A44
:100A5000284601F028F9217A05291DD0637A4BB187
:100A6000A088FFF725FE104B104953F82020284698
:100A700001F019F9227A0E4BA08853F82220039234
:100A80000021FFF7F9FD039A0A490346284605B0FD
:100A9000BDE8304001F007B905B030BD3855000061
:100AA0002055000018550000A455000056570000BE
:100AB000C85500003D55000007B503460846197AA1
:100AC000052911D05B7A2BB1094A0A49019001F03E
:100AD000EAF801980849019001F0E5F8019803B09F
:100AE0005DF804EB01F0D4B8002AF8D0F2E700BFBB
:100AF0003855000056570000835800002DE9F04398
:100B000085B01F460C9D002395F80C902B7306466C
:100B10000C46904629463846FFF790FFB8F1060F7D
:100B200009D8DFE808F00412181F283340003146C6
:100B3000284601F0B8F8002229463846FFF7BCFFE6
:100B400085F80C9005B0BDE8F08322683146284650
:100B500001F0A9F8EFE7D4E900233146284601F077
:100B6000A2F8E8E7A36800933146D4E900232846B9
:100B700001F099F8DFE7E3680193A3680093314639
:100B8000D4E90023284601F08EF8D4E723690293C4
:100B9000E3680193A36800933146D4E90023284613
:100BA00001F081F8C7E76369039323690293E3685F
:100BB0000193A36800933146D4E90023284601F04D
:100BC00072F8B8E708292DE9F74F80460E46174618
:100BD0001C4639D8002593F80C901D731946104611
:100BE000FFF72CFFDFF880A0DFF880B0AE422ED9EF
:100BF00018F805205946204601F055F80135082D12
:100C0000F4D11849DFF868A0DFF868B0204601F099
:100C10004AF80025AE421FD918F805200192104667
:100C200004F048F80028019A594608BF2E222046B1
:100C300001F039F80135082DECD101222146384662
:100C4000FFF73AFF84F80C9003B0BDE8F08F5146EF
:100C5000204601F028F8D1E75146204601F023F85C
:100C6000E8E700BF515500004D5500004755000012
:100C70004F55000053550000044B1A5C012393406C
:100C80004FF0A042C2F80835704700BFDC550000A5
:100C900008B50020FFF7F0FF0120FFF7EDFF02206D
:100CA000FFF7EAFFBDE808400320FFF7E5BFC207F2
:100CB00008B501460CD54FF0A0430322C3F84427E2
:100CC000C3F84827C3F84C27C3F85027FFF7E0FFC5
:100CD0008B070AD54FF0A0430C22C3F83427C3F882
:100CE0003827C3F83C27C3F8402708BD1FB50021AB
:100CF000039001AA44F20100CDE9011100F004F8CB
:100D000005B05DF804FB000010B572B6FFF784FE75
:100D1000FFF7EEFC0028FBD1104C1149208800049D
:100D200040F00100FFF740FE0E4BD3F8F030DB0738
:100D300000D500BE20880C49000440F00200FFF7F7
:100D400033FEBFF34F8F0749084BCA6802F4E062D5
:100D50001343CB60BFF34F8F00BFFDE710000020AF
:100D6000E055000000ED00E0EC5500000400FA053D
:100D700030B50D4C94F858500124AC404FF0A045CC
:100D800085B0C5F80C45CDE90001CDE9022307483F
:100D90000022694601F03CFC20B105B0BDE83040BE
:100DA000FFF7A4BF05B030BD940500200056000039
:100DB000F8B52C4B93F82340002C50D146B2002EAE
:100DC00041DB012583F823501D1900F07F0785F8CA
:100DD0002870651C53FA85F50F0E85F82870A51C40
:100DE00053FA85F50F0C85F82870E51C53FA85F544
:100DF0000F0A85F82870251D53FA85F5402885F8D7
:100E000028102AD048280CBF8721FF21023A012A46
:100E100094BF0522012283F82420002E04F105044A
:100E200053FA84F4A8BF93F824300F4A84F82810AA
:100E3000B8BF01230E33A2F11000DBB20621FFF789
:100E400097FF0020F8BD022483F8234077249C629A
:100E50004FF47F449C850624B6E79521D6E7112000
:100E6000F0E700BF94050020CC0500202DE9F843F1
:100E7000524CE68B40F2D915AE4238D0B6F5ED7F34
:100E800008D2A6B140F2C715AE4229D00023E383B1
:100E9000032055E0B6F5F07F4FF0000109D0B6F51C
:100EA000F67FF3D184F823101970E18342E0A58A1C
:100EB000E582E68AFF255EB9414A84F8285002237C
:100EC0000121A2F11000FFF753FF4FF4F67368E021
:100ED000002684F8285003252684268384F823508E
:100EE00044F62065042794F82360032E0FD0238B4B
:100EF000934243D3E38A324A013BE3820121022336
:100F0000A2F11000FFF734FF4FF4F07349E0268C94
:100F10000136B6B2AE4226840ED88446002943D0AC
:100F200010F8016BFF2E0DD0FE2E0ED005221A7088
:100F30000023E383022003E0022018700023E383F0
:100F4000BDE8F8830139C9B2E7E74E1EF1B291421C
:100F50000E4684F8237028BF16464FF00008464519
:100F6000D4F80CE003D826837644E660BBE71CF88F
:100F7000019F0EF8089008F10108F0E7D51AADB20C
:100F8000F02D28BFF025EBB2E2680E480121FFF7F3
:100F9000EFFEE3682B44E360238B1D44258340F27E
:100FA000D913E3830120CBE7054A10230121A2F1E5
:100FB0001000FFF7DDFE40F2C713F2E794050020B2
:100FC000CC050020BC05002010B5164B93F822403C
:100FD0000CB393F82240032C1FD102B3042483F8EE
:100FE00022409C7A9A82240758BF4902012AC3E909
:100FF0000301DA824FF000044FF0010214BF5220C7
:1010000051209C83FFF7D4FE034610B1FFF76EFE1C
:101010002346184610BD0823FBE71123F9E70723F1
:10102000F7E700BF9405002038B5184B154693F834
:1010300022202AB393F82220032A23D125B30522A4
:1010400083F822209A7A9D82140758BF490200240F
:10105000012DC3E90301DD829C8308D12A46582073
:10106000FFF7A6FE08B1FFF741FE002038BD02F0F1
:101070000702012A0FBF592001222946D720EFE796
:101080000820F3E71120F1E70720EFE7940500209F
:10109000F0B5324C94F8222089B00D4602F0FF03DF
:1010A000002A57D1002957D0C278FF2A54D041785E
:1010B000FF2951D00778FF2F4ED08078FF284BD0E2
:1010C00002F5E0764FF0A04C4FF0030E84F8582064
:1010D0004CF826E0012606FA02F2CCF80825FF2299
:1010E0008DF803204FF60772ADF804204FF08062B0
:1010F0008DF800008DF8021002921948194A8DF8F7
:1011000001706946ADF80C3001F058F808B1FFF7EE
:10111000EDFDA37A256023F00F03A372FF2384F86B
:101120002830114B114884F82260CDE9043600259F
:10113000103306932A460A2304A9079384F8235000
:1011400001F066FA034610B1FFF7D0FD2B461846B2
:1011500009B0F0BD0823FAE70723F8E7940500205B
:10116000FC550000B5110000BC0500200056000031
:1011700010B50E4C94F82230A3B194F82230032B12
:1011800012D10B4801F002FA94F858304FF0A04207
:1011900003F5E073002042F8230084F8230084F86C
:1011A000220010BD0820FCE71120FAE7940500207A
:1011B00000560000F7B5B04C0146E68AC0680D7CC9
:1011C0003EB994F85820012393404FF0A042C2F852
:1011D000083594F823707B1E012B6FD8496891F86D
:1011E00000C0AA1FBCF14C0FD2B200F1060303D11C
:1011F0004AB1EA1FD2B2C31D194615460B4645B97E
:10120000BCF14C0F20D1013B012507E0013DEDB2BF
:10121000F4E71A78FF2A01F10101F7D0022F49D132
:10122000012284F823201A7812F0FE0F42D194F89C
:101230002430924A0E33DBB20621A2F10A0003B039
:10124000BDE8F040FFF794BD94F82230012B2FD079
:1012500094F82210012204298DF80520CBB216D073
:1012600004D8013B934207D903200DE0052BFBD1A5
:1012700002238DF804300CE003238DF8045084F829
:101280002230FFF775FF20B1FFF730FD01E08DF848
:10129000042094F85820012393404FF0A042C2F854
:1012A0000835032384F82230236801A8984794E086
:1012B0002B46B3E7002284F82320184694F8223006
:1012C000D9B2013B042B00F2D382DFE813F0050012
:1012D0000A00D1027E01C801022384F822300023D3
:1012E000A383A18B0378B1F50E7F00F0D6802CD8B4
:1012F00040F21322914272D0B1F5057F08D2002945
:1013000061D0B1F5047F53D00023A38306216CE0A4
:1013100040F21922914200F0908040F22622914240
:10132000F2D1580740F1EA80A37A012262F3020366
:10133000A372238C01339BB2B3F5FA6F238440F27E
:10134000A1800023A38302214FE040F26122914259
:1013500000F0E58015D840F24D22914200F0CE8099
:1013600040F253229142CFD113F0FC0F3AD1D0F882
:1013700001301BBA5A0042BFA37A43F00803A3729C
:1013800091E040F26B22914200F0DB80B1F51C7FCE
:10139000BAD101AB10222946FFF768FD01281CD9FC
:1013A0009DF80410002900F0D7800023A3831CE0DF
:1013B000012200214020FFF7FBFC08B1FFF796FC5B
:1013C00040F2132308E001224020FFF7F1FC08B1AE
:1013D000FFF78CFC4FF40473A38303B0F0BD13F04C
:1013E000FC0F1ED00023A3830421002394F858206F
:1013F0008DF80430032384F82230012393404FF00A
:10140000A0428DF80510C2F8083521B1FFF7B0FEF3
:1014100008B1FFF76BFC1A4B4FF08042C3F824254C
:1014200042E703224FF4D5714820FFF7C1FC08B111
:10143000FFF75CFC40F21923CEE75D0707D4A27AE0
:10144000032161F3020213F0FC0FA272CAD1002340
:101450002384A37A03F00703032B0CBF4FF08041D2
:1014600000210222E920FFF7A3FC08B1FFF73EFCB0
:1014700040F22623B0E700BF94050020CC050020F1
:1014800000300040022200214120FFF791FC08B10A
:10149000FFF72CFC4FF40E739EE713F0FC0FA1D165
:1014A000D9073FF546AFA37A03F00703032B3AD0E1
:1014B00001224FF400715020FFF77AFC08B1FFF7CA
:1014C00015FC40F2612387E7238C01339BB2B3F50F
:1014D000FA6F23843FF635AFA37A03F00703032B9B
:1014E0000CBF4FF0804100210222E920FFF760FC91
:1014F00008B1FFF7FBFB40F24D236DE713F0FC0F43
:101500007FF470AF13F00101DED102227A20FFF7E1
:101510004FFC08B1FFF7EAFB40F253235CE713F0FE
:10152000FC0F7FF45FAFB04BE36001220021492044
:10153000A282FFF73DFC08B1FFF7D8FB40F26B2316
:101540004AE713F0FC0F7FF44DAF013D4FF41C73DD
:101550000130EDB2E3611CE794F848309B09012BA0
:1015600024D0DB072FD494F84F3094F8502094F80F
:1015700052009B0003EB921394F84E20920202F467
:1015800040620133134494F85120520002F00602E5
:1015900002EBD01294F84D0000F00F00073802441F
:1015A000934063604FF400732381FEE694F851305A
:1015B00094F85020013303EB022394F84F2003EBFF
:1015C00002439B02EDE70B46EBE7A38BB3F5267FC7
:1015D0000FD040F2A22293423AD0002B3BD10378A5
:1015E00013F0FC0F13D1013D4FF426730130EDB21F
:1015F000E36101AB4FF400722946FFF737FC012885
:101600007FF6EBAE9DF80410A9B10023A38303225B
:1016100084F8222000220123626184F8232094F8B8
:1016200058208DF804308DF8051093404FF0A042FB
:10163000C2F8083538E6A38A012B09D901224C20CB
:10164000FFF7B6FB08B1FFF751FB40F2A223C3E658
:101650000021A183DBE70023A3830621D7E7A28B28
:10166000B2F53B7F00F0A38027D840F2C3239A4213
:101670003ED0B2F5317F05D2002A41D00023A383AA
:101680000621A1E040F2D3239A4202D0B2F5397F7D
:10169000F4D1268BE068B6F5007F76D3534A00F587
:1016A00000700323E0600121A2F1100084F82330D0
:1016B000FFF75EFB4FF43B738EE6B2F5487F4FF0C9
:1016C000000300F0B380B2F54C7F00F0C88040F218
:1016D0000A318A42D2D1AB4280F08B80C25C002AB0
:1016E00000F0A280002384F82330013EE68220E04F
:1016F000037813F0FC0F1AD00023A383042163E0C6
:10170000037813F0FC0FF9D1A37A03F00703012B40
:101710000DD0A38A012B0AD9216901225920FFF794
:1017200047FB08B1FFF7E2FA40F2C32354E6A38A6D
:10173000E382E28AA38A7AB9012B40F296802B4A8F
:101740004FF6FF53238502210323A2F11000FFF778
:101750000FFB4FF448733FE6002222830422012B43
:1017600084F823204FF0FF028CBFFC23FE2384F873
:1017700028201E4A84F8293002231946A2F11000BD
:10178000FFF7F6FA40F2D32326E6C6F50075ADB2B0
:10179000F02D28BFF0250123E9B2144A3044FFF7A9
:1017A000E7FA238B1D4425834FF4397314E694F82C
:1017B0003A3003F01F03052B4FF0000218D00B2B1B
:1017C00001D00D2B98D1A28302238DF8043003237E
:1017D00084F82230002384F82330636194F8582081
:1017E0008DF80510012320E7DC050020CC05002042
:1017F000228494F82330032B7FF477AF238C0133BA
:101800009BB244F620629342238403D90023A3832E
:101810000221D9E7194A10230121A2F11000FFF794
:10182000A7FA40F20A33D7E5013354E723840323B0
:1018300084F82330238C01339BB244F62062934218
:101840002384E3D80D4A10230121A2F11000FFF7F1
:101850008FFA4FF44C73BFE5C25C32B90133AB422F
:10186000FAD394F82330032BE4D00021A183ABE713
:10187000032003B0BDE8F040FFF738BACC050020E4
:10188000064B93F82220032A05D093F82200003853
:1018900018BF012070470020704700BF940500204A
:1018A000044890F82230022B00F1040098BF002079
:1018B000704700BF9405002072B6024A13680133D6
:1018C00013607047F0050020034A1368013B136062
:1018D00003B962B6704700BFF0050020FFF7ECBF08
:1018E000FFF7F2BF10B5034653E8000F0A4643E87E
:1018F000002494F0000FF7D110BD10B5034653E853
:10190000002F42EA010043E8000494F0000FF6D1F2
:1019100010BD10B5034653E8000F00EA010243E88A
:10192000002494F0000FF6D110BD10B5034653E823
:10193000002F02EB010043E8000494F0000FF6D101
:1019400010BD10B5034653E8002FA2EB010043E899
:10195000000494F0000FF6D110BD0121FFF7CDBFB8
:101960000021FFF7D6BF10B590B1D0E9012301687F
:101970009B1ADBB20A60013BDBB2FF2B026802D18B
:101980000020107110BD11684C1C14600B70F2E740
:101990000E20F7E738B504460020FFF79FFF2268C6
:1019A00063681168994213D9481E106011F8013C10
:1019B000E568A18A01FB0355A36811791B1ADBB204
:1019C000994200D213710020FFF78AFF284638BDE4
:1019D0000025F8E738B5054600200C46FFF77EFFE6
:1019E0002A681368591C1160E968641AA98AB4FB53
:1019F000F1F41C70BDE838400020FFF771BF19B149
:101A0000012905D00620704702B1117000207047EF
:101A100012B104301060F9E7072070478069704701
:101A200008B5FFF72DFF0028FBD108BDF0B51B4B13
:101A30001B68834285B005460C4603D0112420461E
:101A400005B0F0BD8669FFF71BFF0028F6D194E8CA
:101A5000070006F10C0787E80700A2882168A06844
:101A6000FFF7E2FA044640B9B36833B9FFF7D8FF8D
:101A70000B4B1B78002B18BF0D24B368002BDED056
:101A8000002CDCD04FF48172ADF80420B2690297CB
:101A9000039201A928469847D1E700BFF40500202A
:101AA000F8050020F0B51B4B1B68834285B0054646
:101AB0000C4603D01124204605B0F0BD8669FFF71F
:101AC000DFFE0028F6D194E8070006F10C0787E84E
:101AD0000700A2882168A068FFF776FA044640B99B
:101AE000B36833B9FFF79CFF0B4B1B78002B18BF73
:101AF0000D24B368002BDED0002CDCD04FF48172B3
:101B0000ADF80420B2690297039201A928469847CC
:101B1000D1E700BFF4050020F8050020F0B5134F11
:101B20003B68834285B0054603D01124204605B0AA
:101B3000F0BD8669FFF7A4FE0028F6D1FFF718FB79
:101B4000044600B93860B368002BEFD001228DF84D
:101B50000420221E18BF01228DF8052000220292C7
:101B6000B269039201A928469847DFE7F4050020EF
:101B70002DE9FF410369B3F5007F05460E4629D1E3
:101B8000DFF86080D8F8003033BB8769C8F8000000
:101B9000B960BA6111491430FFF77AFA044630B9D6
:101BA000A6B9FFF73DFF0E4B1B787BB10D24002338
:101BB000C8F8003056B14FF480720293BB690393AA
:101BC000ADF80420BB6801A928469847204604B018
:101BD000BDE8F0810624F9E71124F7E7E91B0000CE
:101BE000F8050020F40500202DE9FF41DFF89C8076
:101BF0000578254AD8F800704378BC691370012D28
:101C0000064621D0022D33D0002D36D1FFF748FEF5
:101C1000036823604FF400736360D8F800309B6959
:101C20009B6873B173788DF80450003B18BF012393
:101C30008DF80530A36903930295A36801A938467E
:101C4000984704B0BDE8F081A268002AF9D00221CB
:101C5000003B18BF01238DF804108DF8053004F106
:101C60000C030293A369039301A938469047E8E760
:101C7000A268002AE5D00321EAE7032004B0BDE80A
:101C8000F041FFF733B800BFF8050020F40500204D
:101C9000826810B504462AB1436901680069984713
:101CA0000023A36010BD0EB403B5039921B104ABAA
:101CB00001AA019300F06EF802B05DF804EB03B0E6
:101CC0007047826830B40468551C8560A154D0E91F
:101CD00001329A4202D330BCFFF7DABF30BC704702
:101CE0002DE9F84F9846DDE90A43154682460F462E
:101CF0000A464FF00109AA420FD2C14538BFC1467A
:101D000013F0010B01D16CB900240126B8F1010FC9
:101D10001BD908F1FF386E43F8E709F10109B2FB5E
:101D2000F5F2E8E79B070ED5B8F1000F0CBF30269F
:101D30002026A145E9D2013C31465046FFF7C1FFBC
:101D4000002CF6D1E0E72026F3E7B7FBF6F39D423F
:101D5000E1D9DFF83C80B7FBF6F3504618F80310E2
:101D600006FB1377FFF7ADFF3346AB42B6FBF5F644
:101D7000F1D2BBF1000F02D00CB1A14501D3BDE8F7
:101D8000F88F20215046013CFFF79BFFF4E700BF8E
:101D9000245600002DE9F74F0546174688460029CE
:101DA00000F03E8118F8011B49B92B7B002B00F095
:101DB0003781284603B0BDE8F04FFFF769BF2529FA
:101DC00040F0B780002698F800302D2B424608F1ED
:101DD000010823D0302B24D02B2B25D000242A2BF4
:101DE00002F1010123D13B681A1D1B683A601C44B3
:101DF0000A4613782E2B26D101324FF0000A1046E6
:101E000010F8011BA1F1300CBCF1090F1DD80A23F9
:101E100003FB0A13A3F1300A0246F0E746F001067D
:101E2000D1E746F00206CEE746F00406CBE711F80C
:101E3000013CA3F130000928DBD80A2202FB04345C
:101E4000303C0A46CBE74FF0000A12F8011B01F0C4
:101E5000FB0068289046F8D0782909D86F290CD85B
:101E6000632962D022D8252963D0582900F08880C0
:101E700098F80030002B95D197E770390829F7D8EA
:101E800001A353F821F000BFFB1F0000711E0000EA
:101E9000711E0000911F0000711E00006F1F0000E6
:101EA000711E0000711E0000811F0000642901D016
:101EB0006929DDD13A68D2F80090111D89EAE972EA
:101EC0003960A2EBE9724FF0010B092A35DCD345EA
:101ED00038BFD3462CB1B9F1000F01DB720700D532
:101EE000013CB30702D5BAF1000F03D0F00701D4CB
:101EF0004CBB0024B9F1000F2DDAC9F100092D21E6
:101F00002846FFF7DEFE06F00302022A04D1BAF1EA
:101F1000000F01D11CBB0024CDE9004653460A2224
:101F200049462846FFF7DCFEA2E73B681A1D1978F0
:101F30003A602846FFF7C5FE9AE70A230BF1010B2A
:101F4000B2FBF3F2C1E7A345D4D220212846013CDD
:101F5000FFF7B7FECCE77107D5D52B21D0E7A34516
:101F6000DAD230212846013CFFF7ABFED2E73968D0
:101F7000CDE900460A1D3A6053460A220968D0E7B7
:101F800039680A1D3A60CDE9004653461022F5E74C
:101F90003B681A1D3A6016F00106D3F8009024D170
:101FA000B9F1000F03D0484602F02EFF0646B442B6
:101FB0001DD809F1FF3919F8011F00293FF458AF66
:101FC0002846FFF77EFEF6E728460136FFF779FE42
:101FD00019F806100029F7D1A642BFF449AF202115
:101FE0002846013CFFF76DFEF6E70026F0E72021CA
:101FF0002846013CFFF765FED9E73B681A1D3A60A9
:10200000302128461C68FFF75CFE78212846FFF740
:1020100058FE00220823CDE900322146102280E735
:1020200003B0BDE8F08F00BFFFF79DBCF8B546795F
:102030000146721E0546002393422D6803D30024F7
:10204000A64202D8F8BD0133F6E70F682846FFF72D
:10205000C1FC01343946F3E72DE9F843868ACD1CEB
:102060000746FFF797FC043E35440446B5FBF6F5FA
:10207000F0B14FF48073EDB28380C680013D0760FC
:1020800081464FF00008A84512D23846FFF782FC7F
:10209000064648B163790133637108F10108C9F854
:1020A000000007608146EEE72046FFF7BFFF344699
:1020B0002046BDE8F88301210430FFF736BC10B597
:1020C000012104460430FFF73CFCC0B220B9204691
:1020D000BDE81040FFF7AABF10BD2DE9F843B0F8E6
:1020E000068004330546B3FBF8F40F46164608FB9A
:1020F00014333CB9A8EB0309B14528BFB14626B952
:10210000BDE8F8832D68013CF3E70433E818A6EB3B
:1021100009064A46391902F0F9FDB0454C442D68CC
:10212000C1464FF0000328BFB146E8E72DE9F84368
:10213000B0F8068004330546B3FBF8F40F461646A4
:1021400008FB14333CB9A8EB0309B14528BFB146DD
:1021500026B9BDE8F8832D68013CF3E70433E9189C
:10216000A6EB09064A46381902F0D0FDB0454C44AA
:102170002D68C1464FF0000328BFB146E8E70000D4
:102180007FB503788DF804304368029383688DF837
:102190000C30C36804930369064A8DF81430064B6B
:1021A00001A853F8213052F82110984707B05DF884
:1021B00004FB00BFFC05002008060020F0B5054622
:1021C000174615F804CB124A42F82C70114A42F80F
:1021D0002C30114B0C460FCB85B06E4686E80F00B5
:1021E0002368009323798DF8053063798DF80630E4
:1021F000A3680293002FA389084AADF80C3008BFEA
:102200003A4663463146284600F0D6F805B0F0BDA0
:1022100008060020FC050020345600008121000043
:102220001FB503788DF8003043680193037A8DF869
:102230000830C368054A0393054B684653F82130BC
:1022400052F82110984705B05DF804FB14060020F1
:10225000180600201FB503788DF8003043680193FD
:1022600083688DF80830C368054A0393054B6846B8
:1022700053F8213052F82110984705B05DF804FB5F
:102280001406002018060020F0B5194B90F800C085
:1022900091F81DE043F82C20164B16460A6943F8C6
:1022A0002C20154B03F80CE00C4607460FCC89B0E8
:1022B0006D460FC594E80F0085E80F00CDF810C0FB
:1022C000BEF1000F09D0002E0C4A694608BF324605
:1022D000381D00F017FD09B0F0BD002E084A694610
:1022E00008BF324607F10C0000F004FBF3E700BF23
:1022F00018060020140600201C06002021220000E1
:1023000055220000014B1B68184700BF2006002023
:1023100038B50B4B98420C4601D0002038BD002048
:10232000FFF7DCFA074B1D7915B901221C601A7101
:102330000020FFF7D5FA002DEFD01120EEE700BF07
:102340000020004020060020034B984201BF034BB1
:1023500000221A601A7170470020004020060020F9
:10236000124BD3F8182182B0EAB10022C3F8182129
:10237000D3F818310193019B0D4BD97FFF2907D06A
:10238000987F01228A404FF0A04148B1C1F80C2546
:1023900000225A771A72D3E90021064802B010478A
:1023A000C1F80825F4E702B0704700BF00300040D4
:1023B00028060020300600202DE9F74F9A460379C1
:1023C000DFF8C48101934FF0240909FB03F908EBFE
:1023D000090B06469BF81C3000920C46002B40F07F
:1023E000CA80056866492846FFF792FF002840F03A
:1023F000C480009B48F80930CBF804A094F800C0D2
:10240000227B4FF0A041012303FA0CF3012A94BF71
:10241000C1F80C35C1F808350CF5E0734FF0010E2A
:1024200041F823E06378FF2B1FBF0EFA03FEC1F8CB
:102430000CE503F5E07E4FF0030918BF41F82E903C
:10244000A17808BF4FF0FF33FF291FBF01F5E07EE1
:102450004FF0A0494FF0040A49F82EA096F80490D6
:102460004FF0240E0EFB098818BF8B4688F8201009
:10247000E17808BF4FF0FF3BFF291BD094F80480A0
:102480004FF0010A0AFA01FA4FF0A04EB8F1000F1E
:1024900068D0CEF80CA501F5E07A03274EF82A7033
:1024A000DFF8E4E04FF0240A0AFB09EE8EF81F1073
:1024B0008EF81E80C5F808C5C5F80C35A368C5F8A8
:1024C00010B5C5F82435637B003B18BF0123022AF1
:1024D0004BD0032A4CD0012A01D143F00203C5F8A6
:1024E0005435A379C5F8C035009B13B14023C5F816
:1024F00004330723C5F80035009B3BB3326861798C
:1025000042F30733002BA8BF03F16044C2F3073244
:102510004FEA5313BCBF02F00F051A4C4FEA4111AA
:10252000A8BF04F561444FEA8303C9B203F16043D5
:10253000B4BF615584F8001303F5614302F01F0234
:10254000012101FA02F2C3F880211A600E4B0199B1
:10255000242202FB013300225A7701221A7703B0AA
:10256000BDE8F08FCEF808A595E743F00403B6E781
:1025700043F00603B3E70820F1E71120EFE700BFBF
:102580006123000014ED00E028060020F8B505796D
:102590001C4C006824236B43E618E358D3B140F386
:1025A00007335B092033184FC0F30432012101FACD
:1025B00002F247F82320154BC0F80833737F4BB164
:1025C0004161D0F80431002BFBD0242303FB0543E9
:1025D00000225A77242303FB0543002693F820307A
:1025E000FF2B1FBF03F5E0734FF0A042022142F81A
:1025F0002310C0F80065FFF7A7FE242303FB054462
:102600002677F8BD2806002000E100E0520108000E
:102610002DE9F3410779474E24237B431446F218F2
:102620000D46517F8646002940F08180F35823B142
:1026300014F0140F04BF0123537795E80F004FF0F7
:10264000240C0CFB076C0CF10C0888E80F009CF8BC
:102650001F20FF2A08D09CF81E10012393404FF042
:10266000A042C1B1C2F80835296821B101F0604328
:10267000B3F1005F06D1AA6882B102F06043B3F102
:10268000005F0BD0242303FB076600237377102021
:1026900002B0BDE8F081C2F80C35E5E7DEF80030A5
:1026A0006868C3F84415C3F84805E968C3F83425D9
:1026B0000022C3F83815C3F81821D3F81821019265
:1026C000019A14F0010218BF0122C3F8502514F03A
:1026D000020218BF0122C3F8402522075CBF012275
:1026E0001A6124227A43B258B2B9D3F81821002AC9
:1026F000FBD0242303FB0766F27FFF2A07D0B07FBD
:10270000012393404FF0A04218B1C2F80C350020CD
:10271000BEE7C2F80835BBE714F004004FF04002F2
:1027200002D0C3F80823F2E7C3F80423B0E711206E
:10273000AEE700BF280600200023435082B0435874
:102740000193019B02B070470A4610B54FF48E7199
:10275000FFF7F2FF136A9168C95C136A01331362D1
:10276000C0F81C1510BD8B690A4610B54FF4847172
:1027700023B9FFF7E1FFD0F8183510BDFFF7DCFFF4
:10278000536AD168D0F81805C854536A01335362AC
:10279000F3E700001FB501238DF80030044BCDE9AD
:1027A0000110D3E900126846904705B05DF804FBBC
:1027B0004C06002030B54D4DD5F804339A0585B050
:1027C00051D5D5F82431002B4DD04FF492712846C5
:1027D000FFF7B2FF4FF40173C5F80833444B93F889
:1027E00029200AB901226A60404902228DF800209E
:1027F000D1F88024C1F8802403929A690292DA68A1
:1028000001920022C3E906226846D3E900129047EC
:102810003648D0F81C315BB1354A116A5369994288
:102820004DD292F82830002B49D11146FFF78CFF8A
:102830002E48D0F84431002B55D04FF4A271FFF749
:102840007BFF2B4B93F829200AB1012202609A6981
:10285000002A48D0586AD96800229A6105B0BDE8BC
:102860003040FFF797BFD5F804335B07D0D5D5F8D4
:102870000831002BCCD01E4C1C482146FFF773FFBB
:10288000636AA2699A42C3D1E369E1684BB1A3616B
:102890002369E3600023606AE3616362FFF77AFF04
:1028A000B6E794F829300BB901236B600F4B4FF456
:1028B0000172C3F808230023606AA361EEE74FF4B6
:1028C0008E710A48FFF738FF51690029B0D0002304
:1028D000029191688DF80030019153616846D2E908
:1028E00000139847A4E705B030BD00BF00200040AA
:1028F0004C0600202DE9F843594D90F804802C2314
:1029000003FB0853064693F82A300C469146002BE9
:1029100040F0A28053490068FFF7FAFC0746002800
:1029200040F09C8022683068511C0BD04FF0A041D1
:1029300001239340C1F8083502F5E0734FF0030C12
:1029400041F823C061684B1C1FBF01F5E0734FF0D5
:10295000A04C4FF0000E4CF823E0A369C0F82435DA
:1029600094F814C0637DBCF1010F4CEA0303C0F876
:102970006C35C0F81415C0F80C251DD1A268531C85
:102980001FBF02F5E0734FF0A0414FF0000C41F87B
:1029900023C0E368591C0BD04FF0A04C0121994093
:1029A000CCF8081503F5E0714FF0030E4CF821E068
:1029B000C0F80835C0F810252C2202FB08F2AB182D
:1029C000C3F804902369AB50B9F1000F31D04FF434
:1029D0008E71227FFFF7B0FE30684FF4A271FFF7CF
:1029E000ABFE33682049C3F80413190B43F30733D4
:1029F000002BA8BF03F160404FEA5313BCBF01F0A6
:102A00000F041A484FEA4212A8BF00F561404FEA8E
:102A10008303D2B203F16043B4BF025580F80023B0
:102A200003F5614301F01F0101228A40C3F88021B0
:102A30001A6033680422C3F800252C2303FB0853D3
:102A40000022C3E9062283F829205A61012283F873
:102A50002A203846BDE8F8830827FAE71127F8E767
:102A60004C060020B52700008000020014ED00E0B5
:102A7000F8B5057900682C4C0023C0F800352C23EC
:102A800003FB05435B686BB1284BC0F8083340F388
:102A90000733C0F304315B0901228A402033244903
:102AA00041F82320D0F80C65D0F81415D0F808357B
:102AB000D0F810254FF0FF37BE42C0F8147518BF8C
:102AC00006F5E076C0F80C75C0F80875C0F810750A
:102AD0001EBF4FF0A0474FF0020C47F826C04E1C17
:102AE0001FBF4FF0A04601F5E071022746F82170A4
:102AF000511C1FBF4FF0A04102F5E072022641F8C1
:102B000022605A1C1FBF03F5E0734FF0A042022160
:102B100042F82310FFF718FC2C2303FB0544002385
:102B200084F82A306360F8BD4C060020840202005D
:102B300000E100E00279044B2C2101FB02335869CB
:102B4000003818BF012070474C0600202DE9F84FCF
:102B5000064689469246FFF7EDFF044600283DD120
:102B600096F804801F4F2C2508FB057B4FF48E71CF
:102B7000CBF82000CBF814A08BF82800CBF80890F5
:102B80003068FFF7D9FD3068012383605946FFF7AD
:102B9000DBFDDBF804305D4613BB30682A6A6B69E5
:102BA0009A4211D33368D3F81C21002AFBD00122AA
:102BB000DA6000202C2303FB087700237B61BDE84B
:102BC000F88F95F828303BB9D0F81C31002BF8D09D
:102BD0005946FFF7B9FDE1E70F20EBE71120EEE7DB
:102BE0002046ECE74C0600200023435082B04358B7
:102BF0000193019B02B070471FB501238DF800308F
:102C0000054B8DF8080001916846D3E90012904702
:102C100005B05DF804FB00BF780600207FB5374A99
:102C2000D2F82461002E47D010464FF49271FFF77E
:102C3000DBFF02238DF80030D2F88034C2F88034F4
:102C40000393D2F83C358DF808302D4BDA680192A9
:102C50000022C3E906226846D3E9001290472748BC
:102C6000D0F844316BB14FF4A271FFF7BDFF244B94
:102C70009A6932B100229A61D0F83C05D968FFF711
:102C8000BBFF1E48D0F82031A3B14FF49071FFF77D
:102C9000ABFF1B4B5A696AB1D0F84C158DF8081080
:102CA000002299688DF8002001915A616846D3E9A5
:102CB0000012904704B070BDD2F81031002BCED076
:102CC0004FF488711046FFF78FFF0D4BD2F83C058B
:102CD00099698842C3D1DC69D96864B1D2F80052DD
:102CE00025F02005C2F800521A699C61DA60DE61A5
:102CF000FFF782FFB3E79C61FAE700BF00200040C6
:102D0000780600202DE9F8435D4E90F804802423D6
:102D100003FB0863054693F820300C469146002BD0
:102D200040F0AA8057490068FFF7F2FA07460028EA
:102D300040F0A48022682868511C0BD04FF0A041BD
:102D400001239340C1F8083502F5E0734FF0030CFE
:102D500041F823C061684B1C1FBF01F5E0734FF0C1
:102D6000A04C4FF0000E4CF823E0A369C0F82435C6
:102D700094F814C0637DBCF1010F4CEA0303C0F862
:102D80006C35C0F80C25C0F814151DD1A268531C71
:102D90001FBF02F5E0734FF0A0414FF0000C41F867
:102DA00023C0E368591C0BD04FF0A04C012199407F
:102DB000CCF8081503F5E0714FF0030E4CF821E054
:102DC000C0F80835C0F81025242202FB08F2B31819
:102DD000C3F804902369B350B9F1000F3BD04FF40E
:102DE0008871227FFFF700FF28684FF49071FFF78A
:102DF000FBFE28684FF49271FFF7F6FE28684FF447
:102E0000A271FFF7F1FE2B681F49C3F80413190BD9
:102E100043F30733002BA8BF03F160404FEA53137D
:102E2000BCBF01F00F0419484FEA4212A8BF00F5D9
:102E300061404FEA8303D2B203F16043B4BF02554D
:102E400080F8002303F5614301F01F0101228A404D
:102E5000C3F880211A602B680822C3F800252423B8
:102E600003FB08660023C6E906337361012386F875
:102E700020303846BDE8F8830827FAE71127F8E73D
:102E8000780600201D2C00001003020014ED00E065
:102E9000F8B5057900682C4C0023C0F800352423D0
:102EA00003FB05435B686BB1284BC0F8083340F364
:102EB0000733C0F304315B0901228A4020332449DF
:102EC00041F82320D0F80C65D0F81415D0F8083557
:102ED000D0F810254FF0FF37BE42C0F80C7518BF70
:102EE00006F5E076C0F81475C0F80875C0F81075DE
:102EF0001EBF4FF0A0474FF0020C47F826C04E1CF3
:102F00001FBF4FF0A04601F5E071022746F821707F
:102F1000511C1FBF4FF0A04102F5E072022641F89C
:102F200022605A1C1FBF03F5E0734FF0A04202213C
:102F300042F82310FFF708FA242303FB054400237B
:102F400084F820306360F8BD78060020100302008A
:102F500000E100E00279044B242101FB02335869AF
:102F6000003818BF01207047780600202DE9F8438B
:102F700001F06043B3F1005F06468846914634D1C4
:102F8000FFF7E8FF044690BB32791B4F30682425D9
:102F900005FB02754FF49071C5F81490C5F80880D0
:102FA000FFF722FE30684FF4AC71FFF71DFE336867
:102FB0006969A868C3F84405C3F8481501219960F8
:102FC0006968B1B9D3F82011D3F8580149B900287C
:102FD000F8D00F20242303FB027700237B61BDE898
:102FE000F883002818BF0F20F4E71020F7E711201E
:102FF000F5E72046F3E700BF78060020F0B5012092
:10300000B5B0FDF754FE4FF400410020FDF70AFB78
:1030100008B1FDF76BFE734CFDF736FA2088724954
:10302000000440F00300FDF7BFFC7048012100F0F0
:1030300033FB20886E49000440F00300FDF7B4FC28
:10304000002000F007FA80B1002000F003FA60B120
:10305000002000F0FFF940B120886649000440F0EC
:103060000300FDF7A1FC20BFFDE7634B63485E69E9
:10307000B047426861484FF48015B5FBF2F5B047A0
:1030800002682088B2FBF5F200045D4940F00300BD
:10309000FDF78EFC20885B49000440F00300FDF73B
:1030A00083FC59495948012201F0C6F8238810B120
:1030B00057491804D3E71804564940F00300FDF7B8
:1030C00073FC5549554801F07FFB60B9544D534F8F
:1030D00005F109065249384601F0A9FB38B12088AC
:1030E00050490004BBE720884F490004B7E76B7ADA
:1030F000C3B9208844494D4E000440F00500FDF757
:1031000053FC20884A49000440F00300FDF74CFCC2
:1031100048494648332201F0B5F8C0B120884649F5
:1031200000049CE720882B7A0004DB0640F00500B1
:1031300007D542493246FDF73BFC6B7A002BC9D1DB
:10314000D7E72A683E493346FDF73BFCF5E76B4677
:103150003C495B22304601F022FA2388D0B11804A2
:10316000394940F00300FDF71FFC00252F4801F00E
:103170001EFBC422294603A8029501F0F0FD2D494B
:103180002A480195012201F07DF858B120882F4985
:10319000000464E71804009A2D4940F00300FDF78D
:1031A00007FCE2E72088B2892A49000440F00300C6
:1031B000FDF7FEFB01AB1D48C82202A901F043F94F
:1031C000238810B12449180449E71804019A2349B7
:1031D00040F00300FDF7ECFB02A9214800F00AF9DA
:1031E00041E700BF100000205856000038000020C2
:1031F0006F5600008C5600000C560000A8580000C6
:10320000A8560000B85600008558000008090020A4
:10321000CB560000D9560000EF5600009C06002057
:10322000F00800200B570000F1560000C8060020EF
:103230002257000040570000625700004B57000023
:10324000595700008D570000E95700000B58000047
:10325000F9570000385800005958000086580000FF
:10326000565700000369C26893429CBF80681B18D0
:10327000013B981A70472DE9F843D0E902940546BE
:10328000A9EB04084068904520440F46144404D933
:1032900001F03CFDEC60BDE8F8834246A4EB090474
:1032A00001F034FD6868224607EB0801F0E72DE9DC
:1032B000F843C5680646894617464FF0000834694A
:1032C000B3687068A54228BFE418013C621B5C1B10
:1032D000BC4228BF3C46944228BF14464946284475
:1032E000224601F013FDB3682544AB4208BF002518
:1032F0003F1BA044A144F560E1D14046BDE8F883FE
:1033000010B5114C114AA2610223C4E90433104BD9
:10331000E361A2644FF400730E4A0F492362E26432
:1033200000231022E01DA3626362E362A36563656C
:10333000E365226501F046FD0849204601F042FDA3
:103340002023A37110BD00BF540B0020C4580000FF
:10335000DC0B0020CC0B0020CD580000D158000021
:1033600070B5164B182400FB04451D4404FB0033C4
:103370001646DC6A012C0ED0022C18D0E4B928467F
:10338000FFF770FF864204D832462846FFF773FFE6
:103390003446204670BD2846FFF764FF8642344617
:1033A00028BF044622462846FFF765FFF1E7284676
:1033B000BDE87040FFF77BBF0024EAE7540B002014
:1033C00070B50B4B1B7804460D4616460BB9FFF73C
:1033D00097FF0020FEF782FA324629462046FFF783
:1033E000BFFF04460020FEF77BFA204670BD00BFF9
:1033F000540B00200FB410B5A2B024AB802153F8B9
:10340000042B019302A801F071FC802804460ADD18
:10341000802202A90020FFF7D3FF204622B0BDE89A
:10342000104004B070470028F7DD0246F1E70000C5
:103430000B78032B09D8054B087A1B680C2200FB7C
:1034400002334A781A7200229A727047DC0D00200B
:1034500020BF704738B5194B1B78834202462BD9E1
:10346000174D00EB400329689C0001EB83030859CA
:1034700010B3597AC90702D4587AC0B238BD596816
:1034800009B9104959600121997203680E491B68F6
:10349000984720B12B682344EEE75B6898472B6878
:1034A00023449A7A002AF8D11A7A002AF2D15A7A59
:1034B00002F0FE025A72EDE70320DFE7E00D002084
:1034C000DC0D00205134000031340000074B1B7824
:1034D000834281BF064B1B6800EB400003EB80007A
:1034E00086BF407AC0B20120704700BFE00D0020C7
:1034F000DC0D0020F0B515461C4A1278824285B0DA
:103500002FD9002B2DD01A4F00EB40003A688600CF
:1035100002EB8000945934B3427AD20723D4CDE928
:103520000153012303918372236820465B69984706
:1035300003689D4202D3012005B0F0BD236801A9B4
:103540009B68204698470028F5D13B6833449A7A17
:1035500022B9187A003818BF0120EDE75B68984758
:10356000F3E70420E8E70320E6E700BFE00D0020D2
:10357000DC0D0020F0B515461F4A1278824285B056
:1035800033D9002B31D01D4F00EB40003A68860044
:1035900002EB80009459002C29D0427AD20726D41D
:1035A000427A520725D4CDE9015301230391837256
:1035B000236820465B69984703689D4202D3012037
:1035C00005B0F0BD236801A9DB68204698470028B4
:1035D000F5D13B6833449A7A22B9187A003818BF7B
:1035E0000120EDE75B689847F3E70420E8E7032054
:1035F000E6E70220E4E700BFE00D0020DC0D00203C
:1036000073B5234B1B7883420D46144639D90129E3
:103610001CD0022928D00123002934D100EB40001E
:103620001C4E8DF8073084003368185903680DF17B
:1036300007021B690021984708B1112803D19DF8A2
:103640000730002BF0D1284602B070BD114B00EBC3
:1036500040001B6853F82000B8B103685B699847C5
:10366000036823600025EEE70A4B00EB40001B686F
:1036700053F8200048B103685B699847436823808A
:10368000F0E70425DFE71D46DDE70325DBE700BFA4
:10369000E00D0020DC0D0020024B1860024B197079
:1036A000704700BFDC0D0020E00D0020006870476F
:1036B0000B0A017043700B0C090E8370C1707047C8
:1036C000024400F8011B9042FBD170474369023964
:1036D000023B8B4283BF4389806A01FB03000020C9
:1036E0007047C2F307238A76CB760378032B01BF9A
:1036F000120C0A75120A4A757047026810B552B169
:1037000011460B4611F8014B202C0CD93A2CF8D15C
:10371000511C8B4202D04FF0FF3005E01278302A66
:10372000F9D101330360002010BD38B50D460446C1
:1037300018B9002309202B6038BD0368002BF8D08E
:103740001A78002AF5D0D98882889142F1D1587828
:10375000FFF7BCFE10F00100EBD12368EBE7013866
:103760000A4411F8013B00F8013F9142F9D170473A
:103770002DE9F041C66A00F1300804460123407883
:1037800032464146FFF7F6FE0546A8B9236AA2690C
:10379000E070F31A934202D2A778012F02D828468C
:1037A000BDE8F081A36960781E443246012341469A
:1037B000FFF7E0FE013FF0E70125F0E7C3780BB12A
:1037C000FFF7D6BF1846704738B5C36A8B42054627
:1037D0000C4610D0FFF7F2FF60B92246687801234B
:1037E00005F13001FFF786FE00281CBF4FF0FF34C3
:1037F0000120EC6238BD0020FCE70000002310B57A
:10380000C3704FF0FF33C3620446FFF7DDFF03468A
:1038100018BBB4F82E124AF6552291421FD194F8E3
:103820003020E92A05D0226B0F4902F0FF128A42AC
:1038300017D104F16600FFF739FF0C4A20F07F40F2
:10384000904208D004F18200FFF730FF02F14C52A1
:10385000904218BF0223184610BD0423FBE7032340
:10386000F9E70223F7E700BFEB0090004641540060
:103870002DE9FF4100230B600F461546FFF73DFF82
:10388000061EC0F210818B4B53F82640002C00F02E
:103890000C813C60237805F0FE056BB16078FFF782
:1038A00015FEC10708D41DB110F0040500D00A258B
:1038B000284604B0BDE8F0810023F0B223706070A8
:1038C000FFF7C8FDC20700F1F2800DB14307EED447
:1038D00000212046FFF792FF022840F0C8806F4683
:1038E00004F5FB7304F236213A4613F8040C10B1C8
:1038F0001846FFF7DBFE10338B4242F8040BF4D17D
:10390000002557F8046B002E00F0A88031462046B1
:10391000FFF774FF012800F2A280B4F83B30B3F542
:10392000007F40F0A880B4F8461021B904F154009B
:10393000FFF7BCFE014694F84030A1615A1E012AEF
:10394000A37000F2988094F83D506581002D00F03E
:1039500092806A1E2A4240F08E80B4F84180A4F81A
:10396000088018F00F0F40F08680B4F8430018B9B3
:1039700004F15000FFF79AFEE78F002F7BD001FB88
:1039800003FE07EB181CF444604574D3A0EB0C0253
:10399000AA42B2FBF5F36ED34FF6F57293426ED89E
:1039A00040F6F575AB428CBF022501250233374442
:1039B0000CEB0602032D6361E6612762A26260D10F
:1039C000B4F85A2052EA080255D104F15C00FFF71E
:1039D0006DFE9B00606203F2FF13B1EB532F4AD3DD
:1039E0004FF0FF33C4E90333032D4FF080032371FD
:1039F0002BD1B4F86030012B27D1711C2046FFF782
:103A0000E3FE10BBB4F82E2220714AF655239A42E9
:103A10001BD104F13000FFF749FE274B984214D127
:103A200004F50570FFF742FE03F1FF5303F5005361
:103A30002033984209D104F50670FFF737FE206164
:103A400004F50770FFF732FEE0601C4A257013880A
:103A500001339BB21380E380002529E70320013561
:103A6000042D7FF44EAF042805D1012520E704285A
:103A7000FBD0012801D90D251AE700264DE70325C3
:103A800094E7B8F1000FF6D0022D4FEA430218BFB9
:103A9000D218774418BF03F0010367620CBF1346C6
:103AA00003EB520397E70B2502E70C2500E70325FC
:103AB000FEE600BFE40D002052526141E80D0020F7
:103AC00001292DE9F04706460C46174673D943698C
:103AD0008B4270D90378022B3FD0032B50D0012B9F
:103AE00069D101EB5108016A01EB5821FFF76CFE27
:103AF000054638BB06F1300908F1010AC8F3080889
:103B000014F001041FBF19F8083003F00F023B0145
:103B100003F0F00314BF1343FBB209F80830316A15
:103B20000123F37001EB5A213046FFF74DFE0546A5
:103B300040B9CAF3080A44B1C7F3071709F80A7075
:103B40000123F3702846BDE8F08719F80A30C7F35F
:103B5000032723F00F031F43F0E7016A01EB142151
:103B6000FFF732FE05460028ECD1640006F1300371
:103B700004F4FF7418191F55C7F307274770DFE7D0
:103B8000016A01EBD411FFF71FFE05460028D9D1C9
:103B9000A40006F1300304F4FE741C442046FFF731
:103BA00085FD27F0704700F0704047EA000120468D
:103BB000FFF77EFDC4E70225C4E7F8B50446FFF72A
:103BC000FDFD0546002842D12378032B37D1277904
:103BD000012F34D104F1300601464FF40072304613
:103BE0005523FFF76DFD84F82E32AA2384F82F3277
:103BF00052234122722184F8303084F8313061231D
:103C000084F8323084F8173284F8332084F81412A0
:103C100084F8151284F81622216904F50670FFF75E
:103C200047FDE16804F50770FFF742FDE26960783F
:103C30000132E2623B463146FFF79CFC25710022CF
:103C400060781146FFF7DCFC003818BF0120F8BD92
:103C5000F8B500230246451E1C462E2615F8010F16
:103C6000202804F101040AD0052808BFE520092C0A
:103C700002BFCF1801337E72CF18013378720B2C3C
:103C8000ECD10B4400205872D37A0B7202F11C0065
:103C9000FFF70CFD086002F11600FFF707FDC88072
:103CA000000C8880F8BD03284B8B04BF8A8A43EA46
:103CB0000243184670470129F8B506460C464ED90E
:103CC000436999424BD20378022B29D0032B34D07D
:103CD000012B44D101EB5105016A01EB5521FFF79E
:103CE00073FD10B14FF0FF30F8BD6F1C316AC5F3A2
:103CF0000805354401EB5721304695F83050FFF761
:103D000063FD0028EED1C7F308073E44E30796F8A9
:103D1000300045EA00204CBF0009C0F30B00E3E788
:103D2000016A01EB1421FFF74FFD0028DAD164008E
:103D300004F4FF742644308ED6E7016A01EBD411F7
:103D4000FFF742FD0028CDD1A40006F1300004F4B5
:103D5000FE742044FFF7AAFC20F07040C4E7012065
:103D6000C2E7826838B500230568036104469AB942
:103D70002B78022B01D96B6A6BB92B890BB9022006
:103D800038BD6B6AA361A3696261002BF7D030353F
:103D9000E5610020F4E71A466B8963B91146206893
:103DA000FFF789FF431C02460BD00128E7D96B6956
:103DB0009842F3D3E3E711462846FFF787FCA0615A
:103DC000E1E70120DCE773B50C46012C05680646E7
:103DD00011462CD96B69A34229D92AB14FF0FF3281
:103DE0002846FFF76DFE40B9214630680194FFF781
:103DF00062FF0199044610B9002002B070BD01288D
:103E000015D0431C15D000222846FFF759FE002884
:103E1000F3D1D5E90432911E8B4205D201332B61D7
:103E20002B7943F001032B71A242DDD8E4E7022095
:103E3000E3E70120E1E72DE9F041056880460F4600
:103E400071B9EE68EEB16B69B34298BF0126344692
:103E50006B690134A34217D8012E14D8002406E060
:103E60002846FFF728FF0128044603D801242046EE
:103E7000BDE8F081431C30D06B698342F7D83E46E1
:103E8000E5E70126E3E70224D8F800002146FFF722
:103E900012FF30B10128E9D001301ED0B442D7D191
:103EA000DCE74FF0FF3221462846FFF709FE90B9C4
:103EB00057B9D5E90432023A9342EC6010D32B791A
:103EC00043F001032B71D2E7224639462846FFF71B
:103ED000F7FD0028EDD00128C8D14FF0FF34C6E728
:103EE000013B2B61EBE703692DE9F04703F1200863
:103EF000836905468A4693B1B8F5001F0FD2C8F30F
:103F000008090468B9F1000F4DD14169013383619B
:103F100039B92389B3EB581F45D80023AB6104207E
:103F20000BE06789013F17EA58273CD12046FFF78D
:103F3000C2FE0128064602D80220BDE8F087421CD6
:103F400001D10120F9E76369834226D8BAF1000F55
:103F5000E3D069692846FFF76EFF0646002835D092
:103F60000128E9D0431CECD02046FFF727FC01468E
:103F70000028E6D104F130004FF40072FFF7A0FBF7
:103F800031462046FFF7A2FB4FF0010AE062638949
:103F90009F420FD3E36ADB1BE3626E61314620462A
:103FA000FFF794FBA86130344C44C5F81080EC61F5
:103FB0000020C2E784F803A02046FFF7D9FB0028C1
:103FC000BFD1E36A01330137E362E0E70720B4E7DA
:103FD0002DE9F041066880460C4611F8013B2F2B75
:103FE000FAD05C2BF8D00023C8F8083023781F2BB8
:103FF00055D908F120050B2228462021FFF760FB48
:10400000002210460827235C202B00F1010108D96B
:104010002F2B01D05C2B4CD1605C2F2847D05C2823
:1040200045D00C44002A5ED098F82020D8F80070C3
:10403000E52A04BF052288F82020212B34BF042361
:10404000002388F82B304046FFF78BFE002865D10F
:10405000D8F818103846FFF7B7FB00285ED1D8F81B
:104060001C201378002B64D0D37A03F03F0388F828
:104070000630D37A13F008000CD102F10B0C29465C
:1040800012F8013B11F801EB6245A3EB0E0343D09C
:10409000002BF5D000214046FFF725FFD6E780230F
:1040A00088F82B304046BDE8F041FFF75ABE013199
:1040B000B2E72E2B54D0974215D903F17F0C5FFA4B
:1040C0008CFCBCF11E0F10D903F1200C5FFA8CFCA4
:1040D000BCF11C0F09D9DFF8A4C01CF8010B0028A3
:1040E00043D08342F9D1062021E014F801C0ACF19D
:1040F00040013E2900F1020003D98CF080017C29A7
:10410000F1D8791E8A42EED2511CAB5405F801C099
:1041100002320146084676E7002BBBD198F82B30D7
:1041200048B1042803D113F0040F08BF0520BDE8EF
:10413000F0810420F2E75A07F9D498F80630DB063C
:104140000CD5D8F81010307806F13003C1F308010F
:104150001944FFF7A8FDC8F808004CE70520E6E77A
:104160000B2FC0D008220B27D4E7A3F16100192838
:1041700001D8203BDBB2AB540132CBE7D85800006A
:1041800038B5056804460420A16909B9A8B11CE046
:104190002846FFF719FBC0B9E3691A78C2B1DB7A88
:1041A000E52A03F03F03A37109D02E2A07D00F2B75
:1041B00005D023F02003082B01D0002038BD0021BA
:1041C0002046FFF790FE0028DED00023A361F5E72C
:1041D0000420FAE770B506680546FFF7C2FD0446FD
:1041E00028BBA9693046FFF7EFFA0446F8B9EB6936
:1041F0001B78E52B14D1A9693046FFF7E5FA044690
:1042000060B901462022E869FFF75AFAE8690B22F3
:1042100005F12001FFF7A3FA0123F370204670BDDA
:10422000002BE8D001212846FFF75DFED7E7042CDC
:1042300008BF0724F2E700001FB5CDE9001003A86E
:1042400014460391FFF759FA031E15DB0C4A52F886
:10425000231009B100200870019808B100210170F5
:1042600042F8230030B1012C08D1002201A9684690
:10427000FFF7FEFA04B010BD0B20FBE70020F9E7C2
:10428000E40D00202DE9F0438FB01746019104465C
:10429000002800F0D68002F03F052A4602A901A8B6
:1042A000FFF7E6FA0646002852D1029B01990393D4
:1042B00003A8FFF78DFE20B99DF93730002BB8BF5A
:1042C000062017F01C0F00F09C80002847D004281F
:1042D0003ED103A8FFF77EFF002839D145F008053D
:1042E0000A9BDDF808900027212148225A749F7309
:1042F000DF7319740A9B5A769F75DF7519760A9BCE
:104300002022DA720A9999F80000FFF7CCFC3A46AD
:1043100080464846FFF7E5F90A9B1F775F779F774E
:10432000DF77029B0122DA70B8F1000F20D03A4605
:10433000414603A8D3F82C90FFF745FD40B90298F9
:104340004946FFF741FA029A08F1FF33D36078B18A
:1043500000232360064630460FB0BDE8F0839DF889
:10436000123013F0110F56D1780764D43907B7D43F
:10437000029F2907FB6A0A9923626162387848BF65
:1043800045F04005FFF78FFCA06001F11C00FFF72E
:104390008DF90021FB88276004F12807E0604FF4C5
:1043A0000072A38025746174E16161613846FFF792
:1043B00087F9AA06CFD5D4F80C80B8F1000FCAD07F
:1043C000029BA1685D89C4F814806D02454524D321
:1043D0000020A1610028BBD1C8F30803002BBAD08C
:1043E000029D2846FFF772F948B300EB5822E261BC
:1043F000687801233946FFF77DF80028ABD001200B
:10440000A6E70028A4D19DF81230DA0615D4BF071C
:10441000AED5D807ACD507209AE72068FFF74BFC4C
:1044200001280146A8EB050803D9431CCED1012081
:10443000CFE70220CDE708208AE7042088E70220A2
:1044400086E7092687E72DE9F04F994685B00023D6
:104450008846C9F8003003A904461646FFF765F9F7
:10446000054608BB657CFDB9237C13F0010300936E
:1044700000F09380E2686369D21A964228BF16461C
:1044800004F1280A86B16369C3F30802002A76D1D1
:10449000039A5289013A12EA532217D143B9A0680C
:1044A00001280CD802256574284605B0BDE8F08FB8
:1044B000A16920680192FFF7FEFB019AF0E7431C17
:1044C00003D10123009D6374EEE7A061DDF80CB019
:1044D000A1695846FFF7FAF80028E3D0B6F5007F47
:1044E00002EB00072ED3BBF80A1002EB56208842DD
:1044F0004FEA56239BF8010088BF8B1A3A46414683
:104500000193FEF7F7FF0028DBD194F91020019BFF
:10451000002A0BDAE069C01B984207D24FF4007200
:10452000514608EB4020FFF71AF9019B5F026369CF
:104530003B446361D9F800303B44B844C9F80030CB
:10454000F61B9FE7E269BA4218D094F91030002BAD
:104550000BDA9BF8010001235146FFF70BF8002806
:10456000AFD1237C03F07F032374039801234078A9
:104570003A465146FEF7BEFF0028A2D1E7616169C5
:10458000C1F30801C1F50077B74228BF37463A4664
:1045900051444046FFF7E3F8C9E7072584E72DE9D2
:1045A000F04F994685B000238846C9F8003003A92A
:1045B00004461646FFF7B9F8054620BB657C15BBD7
:1045C000237C9A0740F1AA806369F34228BFDE4347
:1045D00004F1280A9EB16369C3F30802002A40F07F
:1045E0008B80039A5789013F17EA53271ED173B96D
:1045F000A06870B901462046FFF71DFC48B9237C2E
:1046000043F040032374284605B0BDE8F08FA1694C
:10461000F1E7012802D102256574F4E7431C01D1BA
:104620000125F9E7A368A06103B9A06094F91030EF
:10463000002B0CDA0398E269407801235146FEF71B
:1046400099FF0028ECD1237C03F07F032374DDF86D
:104650000CB0A1695846FFF739F80028DBD0B6F551
:10466000007F07EB000235D3BBF80A1007EB56209A
:1046700088424FEA56239BF8010088BFCB1B414676
:10468000CDE90023FEF776FF0028C9D1E169009A41
:10469000019B891A99420CD24FF4007208EB412118
:1046A00050460093FFF75BF8227C009B02F07F02EC
:1046B00022745F026369E2683B4463619A422CBFE3
:1046C000E260E360D9F800303B44B844C9F80030F8
:1046D000F61B7FE7E36993420DD0E1686369994275
:1046E00009D99BF80100009201235146FEF702FF11
:1046F000009A002894D1E2616069C0F30800C0F517
:104700000077B74228BF37463A4641465044FFF744
:1047100026F8237C63F07F032374CBE7072572E739
:1047200073B501A90546FFF700F80446002839D102
:104730002B7C13F0400435D01B060CD50198EA6998
:104740004078012305F12801FEF714FF68BB2B7C9C
:1047500003F07F032B74296A0198FFF735F80446AC
:1047600000BB6E6AF37A43F02003F372AA682868EC
:104770003146FEF7B6FFE96806F11C00FEF798FF28
:10478000212333760198B475482373760123F47599
:10479000B474F474C370FFF710FA2B7C23F0400359
:1047A00004462B74204602B070BD0124FAE713B50D
:1047B0000446FFF7B5FF28B901A92046FEF7B5FF6B
:1047C00000B9206002B010BD1FB50446019148B386
:1047D000002203A901A8FFF74BF870B9039B0199C8
:1047E00023602046FFF7F4FBF0B994F92B30002B3F
:1047F0000CDBA379DB0603D40520002323600FE044
:10480000039BE1691878FFF74EFAA060039BDB88F1
:10481000A3802046FFF7A5FA0428EDD00028ECD1AC
:1048200004B010BD0920FBE70428E5D0E5E737B563
:104830000D4601A90446FEF778FF18B920461DB9B8
:10484000FFF78FFA03B030BDFFF79AFC10F0FB03BF
:10485000F8D16B72A3691BB1E0692946FFF7F8F93B
:1048600000212046FFF73FFB042808BF0020E9E7AE
:104870004FF0704393F8E02F062A10D1D3F8E42FBD
:1048800012070CD1D3F8E80F00F0F003302B08D05A
:1048900000F0E000A0F1400358425841704700206A
:1048A0007047012070474FF0704393F8E02F062ABD
:1048B0000CD1D3F8E42F120708D1D3F8E80F00F099
:1048C000F000A0F130035842584170470020704773
:1048D00008B5FFF7CDFF40B14FF08053884AD3F8B9
:1048E0002433C3F30423C2F84035FFF7DCFF10B1D3
:1048F000844B854A5A67FFF7BBFF48B14FF080539E
:104900004FF08042D3F84432C3F34233C2F83C350F
:10491000FFF7C9FF30B17D4AD2F8FC3023F0807335
:10492000C2F8FC30FFF7A4FF40B14FF080430022F3
:10493000C3F80C21C3F81021C3F83825FFF7B3FFE3
:1049400020B14FF080430322C3F8A025FFF7ABFF4F
:1049500060B16F4B0522C3F810260122C3F88826E8
:104960000022C3F818263F22C3F814264FF07043E4
:1049700093F8E02F062A50D1D3F8E42F11074CD139
:10498000D3F8E83F03F0F003502B46D14FF08052AC
:10499000604BD2F80414C3F82015D2F80814C3F8F9
:1049A0002415D2F80C14C3F82815D2F81014C3F843
:1049B0002C15D2F81414C3F83015D2F81814C3F813
:1049C0003415D2F81C14C3F84015D2F82014C3F8DB
:1049D0004415D2F82414C3F84815D2F82814C3F8A3
:1049E0004C15D2F82C14C3F85015D2F83014C3F873
:1049F0005415D2F83414C3F86015D2F83814C3F83B
:104A00006415D2F83C14C3F86815D2F84014C3F802
:104A10006C15D2F84424C3F87025FFF729FF48B17C
:104A20004FF080534FF08042D3F8583203F04F03D9
:104A3000C2F8E43EFFF71CFF48B14FF08043D3F8C3
:104A40000024D20744BF6FF00102C3F800244FF0E6
:104A50008053D3F83021062A0AD1D3F83431062BFB
:104A600001BF2D4AD2F83C3743F48063C2F83C378B
:104A7000264AD2F8883043F47003C2F88830BFF376
:104A80004F8FBFF36F8F4FF01023D3F80022002A0F
:104A900003DBD3F80432002B2EDA204B0122C3F8BB
:104AA0000425D3F80024002AFBD04FF01022152152
:104AB000C2F80012D3F80024002AFBD04FF01023D4
:104AC0001522C3F80422154BD3F80024002AFBD08A
:104AD0000022C3F80425D3F80024002AFBD0BFF33A
:104AE0004F8F0A490E4BCA6802F4E0621343CB6051
:104AF000BFF34F8F00BFFDE70A4B0B4A1A6008BD9A
:104B00000030014000C007400DF0ADBA00ED00E0FC
:104B10000050004000C000400010004000E0014094
:104B20000400FA05440000200090D0037F2805D837
:104B3000034A044B105C5B5C1840704700207047D0
:104B4000F458000074590000A0F16103192B98BFBC
:104B500020387047A0F14103192B98BF20307047CF
:104B60007F299ABF017001206FF02E00704700BFAF
:104B70005AB10A787F2A0AD800B102600021501A7F
:104B8000C3E9001118BF01207047104670476FF04D
:104B90002E007047A0F16103192B98BF2038704791
:104BA000A0F14103192B98BF203070477F2805D80A
:104BB000034A044B105C5B5C184070470020704750
:104BC000F45800007459000038B58568044608465A
:104BD00045B122686168531C8B4208BF00208A429D
:104BE0000AD2A854E26823682AB161688B4202D2D3
:104BF0002146904723680133236038BD70B54D1EB0
:104C000022D413681446C6B20EE0D0542368E2687A
:104C10002AB16168994202D9214690472368013D33
:104C200001336A1C23600FD0A26872B1616803F17E
:104C3000010C8C4514BF304600209942E5D8013D57
:104C400063466A1C2360EFD170BD3046DFE700BFCA
:104C5000C3062BD410F4007F70B514BF3026202675
:104C60004D1E22D413681446F6B20EE0D0542368C9
:104C7000E2682AB16168994202D9214690472368C7
:104C8000013D01336A1C23600FD0A2687AB16168CC
:104C900003F1010C8C4514BF304600209942E5D841
:104CA000013D63466A1C2360EFD170BD70473046FA
:104CB000DEE700BF024B5B689B6809211B68184751
:104CC00048000020027862B169B100EB010C034694
:104CD00001E0634503D013F8011F0029F9D1181A28
:104CE0007047104670470846704700BF30B594467D
:104CF00085B00025CDE902050C461A466146684696
:104D0000019400F0B1F805B030BD00BF844640EA20
:104D1000010313F0030F18D18446202A0BD32DE989
:104D2000F007B1E8F807A0E8F807A2F12002202A6E
:104D3000F7D2BDE8F007042A07D351F8043B40F846
:104D4000043BA2F10402042AF7D2002A05D011F88C
:104D5000013B00F8013B013AF9D1604670478446B7
:104D6000002A2DD010F0030F04D000F8011B013AE7
:104D700026D0F7E7C9B241EA012141EA0141202AE0
:104D800012D3A2F120022DE9F0030B460C460D468A
:104D90000E460F4688468946A0E8FA03203AFBD221
:104DA000BDE8F00320320BD0042A05D340F8041BE1
:104DB000043A05D0042AF9D200F8011B013AFBD1CC
:104DC00060467047024610F0030F16D111F0030F32
:104DD00013D12DE9F0004FF001374FF0803351F837
:104DE000044BA4EB070525EA04051D4002D142F857
:104DF000044BF4E7A1F10401F0BC11F8013B02F807
:104E0000013B002BF9D1704700F1010110F0030FB5
:104E100011D010F8012B002A23D010F0030F0AD074
:104E200010F8012B002A1CD010F0030F03D010F84B
:104E3000012B002A15D02DE970004FF001324FF000
:104E4000803350F8044BA4EB020525EA04051D400D
:104E500000D1F6E7A0F1040070BC10F8012B002A85
:104E6000FBD1A0EB010070472DE9F04F00230C4669
:104E7000036089B014F8011B03920746002900F073
:104E8000E582DFF8DC9507E03846FFF79DFE14F871
:104E9000011B002900F058812529F5D12246002662
:104EA00012F8010B302800F29E801F280ED9A0F1C5
:104EB0002003102B0AD8DFE803F0AC0909A8090980
:104EC00009A4090909A0099C09098D002A2840F0B4
:104ED000FC80039B10781D680433002D0393BCBF36
:104EE0006D4246F01006A21C2E2800F0048100211D
:104EF000742800F092807A2800F08F806C2800F0EF
:104F000032814C2800F03581682800F0BE811446BB
:104F1000002800F08880A0F12503DAB2532A00F2BD
:104F20002B81532B00F22881DFE813F0EB012601DF
:104F30002601260126012601260126012601260139
:104F40002601260126012601260126012601260129
:104F50002601260126012601260126012601260119
:104F60002601260126012601260126012601260109
:104F700026012601260126012601260126012601F9
:104F800026012601260126012601260126012601E9
:104F9000260182002601260126012601260126017E
:104FA0002601260126012601D601F600260126014A
:104FB00026012601F60026012601260126015002BF
:104FC0004802130226012601ED012601CB0126012C
:104FD0002601840046F400761446224612F8010B9E
:104FE00030287FF662AF5E286FD146F480561446B3
:104FF000F3E746F010061446EFE746F020061446A5
:10500000EBE746F400461446E7E746F08006144610
:10501000E3E746F040061446DFE7144614F8010BB8
:1050200000287FF478AF4FF0FF3009B0BDE8F08F73
:1050300046F4005616F0800A06D043F2780A43F28E
:105040005803782818BF9A4616F4807307BF06F4F1
:105050008042B04626F4007806F48042002A61D1EE
:10506000039A18F0040F02F104060396126800F088
:10507000A08092B2002B65D028F400785838202800
:1050800000F29D80DFE810F073019B009B009B0005
:105090009B009B009B009B009B009B009B009B0038
:1050A000D4009B009B009B009B00D4009B009B00B6
:1050B0009B009B009B00090173019B009B009B00D0
:1050C0009B00D4009B009B007301A0F13004E3B26D
:1050D000092B4FF000053FF607AF12F8010B05EB67
:1050E000850504EB4505A0F13004E3B2092BF4D9A2
:1050F0002E287FF4FCAE10782A2840F07781039B9D
:1051000050781968941C0433002903932246FFF653
:10511000EFAE46F48076EBE646F4804806F4807302
:105120004FF0000A039A18F0040F02F104060396E8
:10513000126830D012B2002A31DA52424FF02D0AF2
:10514000002B99D1012199E73868BB68002B3FF407
:105150006CAF7A6882427FF668AF00221A543868D2
:1051600009B0BDE8F08F144646F0010614F8010BB3
:10517000CEE646F001061446B54BD3F80080B8F1F0
:10518000000F3FF484AE009103A901912B463246F3
:105190003946C0477BE618F0080FCCD0D2B218F0E1
:1051A000200F40F03E8118F0400F18BF4FF0200A4A
:1051B00060E718F0080F3FF45DAFD2B25AE74FF046
:1051C000FF36002321EAE17BA5EB0B05BAF1FF0FC7
:1051D000A5EB030540F20481CAF307213846023DDE
:1051E000FFF7F2FC5FFA8AF13846FFF7EDFC404624
:1051F0003A462946FFF72CFD3A4659463020FFF73C
:10520000FDFC731C0AD001360DF1140A564416F841
:10521000011D3846FFF7D8FCB245F8D118F0100F41
:105220003FF435AE29463A462020FFF7E7FC2EE64C
:105230001046002A00F0068108F4004C6246002364
:105240008C464FF02C0E114603F0030209B1032ADD
:1052500014D01E46A9FB0032D20802EB820306F1ED
:10526000200BA0EB4303EB44303309280BF80C3C34
:1052700006F1010340F2D2801046E5E703F1200277
:105280006A445E1C02F80CECE4E71078682800F031
:10529000D480541C46F004063AE61046002A00F07A
:1052A000D1800DF1140C002302F007023032C00847
:1052B0000CF8012B1E46024601330028F4D1C91A0E
:1052C00080E716F4807300F0AF8026F4007806F4CF
:1052D00080424FF0000AC1E6039B013D191D93F87F
:1052E000008003913A4629463046FFF7B1FC41461B
:1052F0003846FFF769FCB3461BF0100F3FF4C7AD0B
:1053000090E72521C0E5039B524A181D0390D3F86E
:1053100000A0BAF1000F08BF9246F205D04626F46D
:10532000007B504640F18580FFF7CCFC0646AD1B64
:105330003A4629465846FFF78BFC002EDCD018F879
:10534000011B3846FFF740FCAAEB0803F342F6D1F5
:10535000D2E7039B1A1D039216F0800F1A6846F4D9
:1053600080780CBF4FF0000A4FF0230A0821104646
:10537000002A67D008F4005C634605AA8C46002624
:10538000A346194609E0344B000913F80E3002F821
:10539000013B06F101030DD01E4600F00F0E00295F
:1053A000F1D12E4C000914F80E3002F8013B06F141
:1053B0000103F1D161465C46C91A03E716F0800F7C
:1053C0000CBF4FF0000A4FF0300A3DE6039B3A68ED
:1053D000191D03911B6831074CBF1A701A6056E5FE
:1053E000BAF1000F3FF403AF013DFBE6A0F130043A
:1053F000E3B2092B02F101024FF000013FF689AE42
:1054000012F8010B01EB810104EB4101A0F1300422
:10541000E3B2092BF4D946F4807669E56146C91AEE
:10542000D0E64FF02B0A25E606F48042B0469A46B5
:1054300014E6FFF7E9FC064679E7507846F00806DF
:10544000941C65E513464FF0FF36BBE608467CE644
:10545000EC0D0020485B0000385B0000285B00007A
:04546000CDCCCCCC17
:105464004456000000000000485600000000000000
:105474004D560000000000005256000000000000DD
:10548400015500000000030305550000000000035F
:10549400A00000206801002070010020A800002066
:0854A4001400002018000000B4
:1054AC0000000000000000000000000000000000F0
:0854BC000000000000000000E8
:1054C400FFFFFFFFFFFFFFFFFFFFFFFFFFFFFFFFE8
:1054D40000000000000000000000D60107010000E9
:1054E400B503000059040000B30300004261636B7C
:1054F400656E647320666C757368656400617070B2
:105504000062616C6C6F632E6C6F675F6D656D70AC
:105514006F6F6C001B5B313B33316D0025734C6F37
:1055240067732064726F7070656420282564292570
:10553400730D0A001B5B306D003C25733E20257300
:105544003A2000202530327800202020007C0025DD
:1055540063001B5B313B33306D001B5B313B3332EB
:105564006D001B5B313B33336D001B5B313B3334CC
:105574006D001B5B313B33356D001B5B313B3336B8
:105584006D001B5B313B33376D007761726E696E62
:105594006700696E666F00646562756700000000ED
:1055A4003855000056550000185500005E5500009F
:1055B400665500006E550000765500007E550000CB
:1055C4008655000000000000E65500008E550000DE
:1055D400965500009B550000111213144661746126
:1055E4006C206572726F720053797374656D2072EA
:1055F4006573657400000000000000000030004086
:105604000000000001000000711B00001D1B0000D1
:10561400A51A00002D1A0000FF1900001D1A000031
:1056240030313233343536373839414243444546D4
:10563400FFFFFFFF0007FF00000000400000000024
:10564400505253005350494D005541525400554156
:10565400525445004641544653206578616D706C40
:105664006520737461727465642E00496E6974698F
:10567400616C697A696E67206469736B20302028D5
:10568400534443292E2E2E004469736B20696E699E
:105694007469616C697A6174696F6E206661696CA2
:1056A40065642E0043617061636974793A202564EE
:1056B400204D42004D6F756E74696E6720766F6C75
:1056C400756D652E2E2E004D6F756E7420666169A2
:1056D4006C65642E000D0A204C697374696E672032
:1056E4006469726563746F72793A202F0044697239
:1056F4006563746F7279206C697374696E67206670
:1057040061696C656421004469726563746F7279C0
:105714002072656164206661696C65642E0057724D
:105724006974696E6720746F2066696C65204E4FDA
:10573400524449432E5458542E2E2E004E4F524458
:1057440049432E545854002020203C4449523E20C2
:10575400202025730025396C752020257300556E93
:1057640061626C6520746F206F70656E206F7220AB
:105774006372656174652066696C653A204E4F52A8
:105784004449432E5458542E00424C455F52582FDE
:10579400434D443A2046574420340A424C455F5214
:1057A400582F434D443A205243432032300A424C4E
:1057B400455F52582F434D443A2046574420340AFB
:1057C400424C455F52582F434D443A205243572090
:1057D40032300A424C455F52582F434D443A2046DA
:1057E40057442034005772697465206661696C659A
:1057F400640D0A2E00256420627974657320777223
:10580400697474656E2E00556E61626C6520746FE8
:10581400206F70656E206F722063726561746520FD
:1058240066696C653A204E4F524449432E5458548D
:105834002E0D0A0073697A65206F662074686520EE
:1058440066696C6520696E206279746573203D20F9
:1058540025640D0A00556E61626C6520746F2072B8
:10586400656164206F722063726561746520666986
:105874006C653A204E4F524449432E5458542E0DD1
:105884000A00256420627974657320726561640D71
:105894000A004E6F726469630053444300312E3032
:1058A400300000000C560000965800009D5800007F
:1058B400A15800000002000013111214380B00203C
:1058C4005465726D696E616C0052545400534547BF
:1058D40047455200222A2B2C3A3B3C3D3E3F5B5D20
:1058E4007C7F000043000000504F534958000000E3
:1058F400202020202020202020682828282820203C
:105904002020202020202020202020202020202093
:10591400481010101010101010101010101010104B
:1059240084848484848484848484101010101010EB
:105934001081818181818101010101010101010144
:1059440001010101010101010101011010101010F8
:105954001082828282828202020202020202020215
:1059640002020202020202020202021010101020BD
:1059740000070320041702010857104080000000AC
:10598400E8580000EC590000005B000053756E00FD
:105994004D6F6E005475650057656400546875005A
:1059A4004672690053617400000000004A616E0091
:1059B400466562004D617200417072004D6179006C
:1059C4004A756E004A756C00417567005365700036
:1059D4004F6374004E6F760044656300000000005E
:1059E400414D00504D000000245B0000205B00008E
:1059F400205B0000205B0000205B0000205B0000B7
:105A0400205B0000205B0000205B0000205B0000A6
:105A1400FFFFFFFFFFFFFFFFFFFFFFFFFFFF000090
:105A2400605A0000905900009C5A0000B0590000D0
:105A3400E4590000445A0000F45A0000505A00008F
:105A4400256D2F25642F2579000000002561202570
:105A540062202565202554202559000053756E6465
:105A64006179004D6F6E646179005475657364618A
:105A740079005765646E6573646179005468757262
:105A84007364617900467269646179005361747565
:105A940072646179000000004A616E756172790078
:105AA4004665627275617279004D61726368004186
:105AB4007072696C004D6179004A756E65004A75B3
:105AC4006C79004175677573740053657074656D06
