:020000022000DC
:1060000000000120356202008D6202008F620200F2
:10601000916202009362020095620200000000009B
:106020000000000000000000000000009762020075
:1060300099620200000000009B6202009D62020063
:10604000B1AA0200A3620200F5B00200A76202003A
:10605000A9620200AB62020015AE0200AF6202004C
:1060600041B2020059B20200B5620200B7620200FA
:10607000B9620200BB620200BD620200BF620200A0
:10608000C162020029780200C5620200C7620200F4
:1060900069780200CB620200151D0300CF62020086
:1060A000D1620200D3620200D5620200D762020010
:1060B000D9620200DB6202009F6202009F6202005E
:1060C000DD620200DF620200E1620200E3620200C0
:0C60D000E5620200E7620200E9620200E3
:1060DC00344935480A1A02D0072291438D46334978
:1060EC0033480A1A06D00722914381F30988022209
:1060FC0082F314882F483049304A00F041F8304878
:10610C003049314A00F03CF830483149314A00F00E
:10611C0037F831483149324A00F032F831483249C7
:10612C00324A00F02DF832483249334A00F028F850
:10613C0032483349334A00F023F8334833490022BC
:10614C0000F029F832483349002200F024F8324894
:10615C003249091A0CF008FB314A90471F48204974
:10616C00884205D00268043003B4904703BCF7E7BB
:10617C0000208646EC46002000212A4A9047FEE784
:10618C00884207D0521A05D0037801300B700131C8
:10619C00013AF9D17047884202D002700130FAE717
:1061AC00704700000000012000E0002000000120EA
:1061BC00000001205043030078220020B62200206A
:1061CC00EC620200EC6202008827030050430300DB
:1061DC0078220020782200200829030008290300D7
:1061EC0008290300082903000829030008290300D3
:1061FC0008290300082903004D43030090430300C2
:10620C00B8220020B8220020B8220020202E002026
:10621C00202E0020202E0020202E0020204E00209A
:10622C005962020095B902000F484FF007018843EC
:10623C0085460E4880470E48016841F470010160A4
:10624C00BFF34F8FBFF36F8FFFF742BF09480A4967
:10625C000A4A884207D0521A05D0037801300B70D5
:10626C000131013AF9D170470000012035110300CA
:10627C0088ED00E0B02803002022002078220020C6
:10628C00FEE7FEE7FEE7FEE7FEE7FEE7FEE7FEE7DA
:10629C00FEE7FEE7FEE7FEE7FEE7FEE7FEE7FEE7CA
:1062AC00FEE7FEE7FEE7FEE7FEE7FEE7FEE7FEE7BA
:1062BC00FEE7FEE7FEE7FEE7FEE7FEE7FEE7FEE7AA
:1062CC00FEE7FEE7FEE7FEE7FEE7FEE7FEE7FEE79A
:1062DC00FEE7FEE7FEE7FEE7FEE7FEE7FEE700BFB0
:1062EC0000B583B001900091019B1B681B6800995D
:1062FC000198984700BF03B05DF804FB00B583B06C
:10630C000190019B1B685B680198984700BF03B024
:10631C005DF804FB00B583B00190019B1B689B6882
:10632C000198984700BF03B05DF804FB82B0019060
:10633C00019B01225A7200BF02B0704782B00190DB
:10634C00019B5B7A184602B070470000024A034B6F
:10635C00D31ADB081846704770280300E82703009F
:10636C0000B585B00190009100238DF80F30019B92
:10637C001B7803F00303DBB2002B06D0019B1B78C8
:10638C0003F00403DBB2002B43D0019B1B7803F01A
:10639C000403DBB2002B27D0019B1B78C3F3010352
:1063AC00DBB2012B02D0022B0CD017E0009B1B6838
:1063BC00019A1288C2F38312D2B213449A1C009B26
:1063CC001A6023E0009B1B68019A5288C2F3891261
:1063DC0092B213449A1C009B1A6017E010494FF4B8
:1063EC00A4700BF0DFFF11E0009B1A68019B5B8827
:1063FC00C3F389139BB21946019B1B88C3F3891302
:10640C009BB20B4413445A1C009B1A6001238DF859
:10641C000F309DF80F30184605B05DF804FB00BF37
:10642C002029030000B58BB00023ADF826303E4880
:10643C0003F092F83D4803F08FF83D4B5B680493F2
:10644C003B4B9B680693049A069B134002339B00BC
:10645C00374A13440433089304AB19460898FFF7E2
:10646C007FFF0346002B09D0049A069B134002338E
:10647C009B002F4A134404330893EDE700BF00231D
:10648C00079311E0049B5A1C0492069A1340079A36
:10649C00920001A90A44264902339B000B445B6815
:1064AC001360079B01330793079B012BEAD99DF8D7
:1064BC000430C3F30103DBB2012B10D0022B1CD12F
:1064CC00BDF80A30ADF82630BDF80630C3F3891399
:1064DC009BB203339A08049B1344049313E0BDF856
:1064EC000A30ADF82630BDF80430C3F38313DBB2A9
:1064FC001A46049B1344049305E00E494FF4C270F2
:10650C000BF050FF00BF094803F032F80590059BD3
:10651C00002B02D0049B064A5360BDF82630184667
:10652C000BB05DF804FB00BFA02700209C270020C7
:10653C00882300202029030000B585B000210748DE
:10654C0002F063FF0390039B0293029B83F31003FF
:10655C000193019B184605B05DF804FBA4270020AD
:10656C0000B589B00390029101920093039B1B0C20
:10657C000793FFF7E1FF0690FFF7E8FE0246079B43
:10658C00934204D3214940F2A9100BF00BFF069B58
:10659C001904009B5A1C0A9B1340079A0A431C4976
:1065AC0002339B000B445A60009A0A9B134002333F
:1065BC009B00174A134404330593039B03F0070312
:1065CC00D9B2059A137861F3C5031370019B03F0DC
:1065DC000F03D9B2059A138861F389131380029BB8
:1065EC00C3F31501059A136861F39F231360059A91
:1065FC001378012161F301031370059A13786FF37B
:10660C008203137000BF09B05DF804FB202903005E
:10661C008823002000B58DB00390029113468DF8AD
:10662C000730039B02330A9301238DF82730002394
:10663C008DF81B300DF11B03184601F0DDF9404BB2
:10664C001A68029B1A603E4B9A683D4B59683C4B4A
:10665C001B68CB1A134401330B9314E00121394806
:10666C0002F04AFFFFF7DEFE07900799354802F06B
:10667C0043FF334B9A68324B5968314B1B68CB1A2A
:10668C00134401330B930A9A0B9B9A42E6D89DF85C
:10669C002730002B48D0002305939DF80730002BA2
:1066AC0017D09DF81430012262F301038DF81430D9
:1066BC009DF8143043F004038DF81430039B03F061
:1066CC000F03DAB2BDF8143062F38913ADF814304D
:1066DC0016E09DF81430022262F301038DF8143099
:1066EC009DF8143043F004038DF81430039BC3F36E
:1066FC0009039AB2BDF8163062F38F13ADF8163059
:10670C000F4B1A680E4B9B68134002339B000C4ACC
:10671C00134404330893059A089B1A60084B1A68B3
:10672C000A9B1344064A13609DF81B30184601F06F
:10673C0079F99DF8273018460DB05DF804FB00BFC1
:10674C0088230020A427002000B58BB0059004916D
:10675C00039202931F4B9B68079306AB01221946C9
:10676C000298FFF757FF0346002B24D0069B0233F9
:10677C0009930023089311E0089B9B00039A1A4489
:10678C00099B591C099107990B4012681149023356
:10679C009B000B445A60089B01330893089A029B98
:1067AC009A42E9D3069A079B00931346029A0499DE
:1067BC000598FFF7D5FE074B93F82034002B05D036
:1067CC0000BF00F07BF80346002BFAD100BF0BB0E2
:1067DC005DF804FB8823002000B583B00190009184
:1067EC000023002200990198FFF7AEFF00BF03B011
:1067FC005DF804FB00B587B0039002910192019BF8
:10680C00059305AA012302990398FFF79DFF00BF8A
:10681C0007B05DF804FB00B587B0039002910192BC
:10682C000093019B0493009B059304AA02230299F5
:10683C000398FFF789FF00BF07B05DF804FB00B5B4
:10684C0089B00390029101920093019B0593009BE8
:10685C0006930A9B079305AA032302990398FFF753
:10686C0073FF00BF09B05DF804FB00B58BB003905B
:10687C00029101920093019B0593009B06930C9B44
:10688C0007930D9B08930E9B099305AA0523029968
:10689C000398FFF759FF00BF0BB05DF804FB000035
:1068AC00054B5A68044B1B689A420CBF012300230A
:1068BC00DBB21846704700BF8823002000B599B0A2
:1068CC00FFF7EEFF0346002B01D00023B6E1994BF6
:1068DC000022C3F81824BFF34F8F00BF954B5B68A1
:1068EC000493944B9B681093049A109B13400233AF
:1068FC009B00904A134404331293002317930023F4
:10690C00169300230F9304AB19461298FFF728FD3A
:10691C000346002B14D0874B1A68049B9A4205D867
:10692C00844B1B68834A5360002387E1049A109BB5
:10693C00134002339B007F4A134404331293E2E763
:10694C0000BF0023159311E0049B5A1C0492109A6B
:10695C001340159A920001A90A44764902339B0010
:10696C000B445B681360159B01331593159B012B2E
:10697C00EAD99DF8043003F00303DBB2022B40F09C
:10698C009C80BDF80630C3F389139BB20D93BDF800
:10699C000630C3F389139BB2502B28BF50239BB2F4
:1069AC000C930C9BC3F309039AB2BDF8063062F347
:1069BC008F13ADF806300C9B08330B939DF8043005
:1069CC00C3F3C203DBB20F930B995B4803F062FA7B
:1069DC001790179B002B00F0D180179803F0EBFA5F
:1069EC0001A9169B0822179803F090FB169B0833FD
:1069FC001693049BDA43109B134001339B000A93BC
:106A0C000C9A0A9B9A4242D90A9B002B08D0049AF2
:106A1C00109B134002339B00464A1344043300E09E
:106A2C00464B08930A9B002B02D00A9BDBB201E079
:106A3C000C9BDBB28DF81F300A9B002B01D03F4B17
:106A4C0000E0002306930A9B002B06D00C9BDAB2C5
:106A5C000A9BDBB2D31ADBB200E000238DF81730AF
:106A6C009DF81F20169B0899179803F04FFB9DF873
:106A7C001F30169A13441693069B002B16D09DF8C4
:106A8C001720169B0699179803F040FB0EE0049A0A
:106A9C00109B134002339B00264A13440433099382
:106AAC00169B0C9A0999179803F030FB0D9B033336
:106ABC009A08049B1344049360E09DF8043003F09F
:106ACC000303DBB2012B59D1BDF80430C3F383139C
:106ADC00DBB2062B28BF0623DAB2BDF8043062F312
:106AEC008913ADF80430BDF80430C3F38313DBB263
:106AFC0002330E939DF80430C3F3C203DBB20F9341
:106B0C000E9B9B0019460C4803F0C4F91790179B79
:106B1C00002B33D0179803F04EFA01A9169B0822CC
:106B2C00179803F0F3FA169B08331693002315936A
:106B3C001BE000BF88230020702803009423002052
:106B4C00049B5A1C0492109A134002339B003D4A3A
:106B5C001344191D169B0422179803F0D7FA169BA1
:106B6C0004331693159B01331593BDF80430C3F30E
:106B7C008313DBB21A46159B9342E1D3179B002B70
:106B8C003FD0304BD3F8103414932E4BD3F8183429
:106B9C00002B1AD0179803F01DFA49E000238DF84A
:106BAC004F301498FFF7CAFB0346002B02D0012389
:106BBC008DF84F309DF84F30002B03D01799149857
:106BCC00FFF78EFB149B5B681493149B002BE5D191
:106BDC00179803F0FFF900238DF803300DF1030330
:106BEC00184600F009FF174BD3F81834002B02D1CC
:106BFC00049B144A53609DF80330184600F012FFB2
:106C0C0016E0104BD3F81034119305E01198FFF7F0
:106C1C0081FB119B5B681193119B002BF6D10A4BE6
:106C2C001B881B0443F0020308491846FFF7D4FDE8
:106C3C00FFF736FE034683F00103DBB2184619B0AA
:106C4C005DF804FB8823002038220020A0290300D3
:106C5C0000B583B00C4BD3F8103401930A4B0122CE
:106C6C0083F8202408E00198FFF760FB0198FFF7F8
:106C7C0045FB019B5B680193019B002BF3D100BF8B
:106C8C0000BF03B05DF804FB8823002086B003909E
:106C9C000291019201238DF817309DF81730214A8B
:106CAC00039B13601F4A029B53601E4A019B936017
:106CBC00039B44F20102934213D0039B44F2020261
:106CCC00934221D1019B174AD360164BDB681B887A
:106CDC001A46144B9A61134BDB685B68114AD361FB
:106CEC0012E0019B0F4A13610E4B1B699B680D4A06
:106CFC0053610C4B1B691B680A4A9361094B1B6956
:106D0C005B68084AD36100BF72B600BF00BF9DF834
:106D1C001730DBB2002BFAD162B600BF00BF06B051
:106D2C00704700BFAC27002000B583B002900091E3
:106D3C00019244F2010071466A4600F003F803B078
:106D4C0000BD00BF30B58BB007900691059272B6AE
:106D5C0000BFFFF77DFF00BFFFF7B0FD0346002B20
:106D6C00FAD1079B44F2020293422BD0079B44F2C8
:106D7C000202934261D8079B44F20102934232D043
:106D8C00079B44F20102934257D8079B012B05D075
:106D9C00079B41F2010293420AD04EE0344B1B8810
:106DAC001B0443F0010333491846FFF715FD4FE070
:106DBC002F4B1B881B0443F001032F491846FFF788
:106DCC000BFD45E0059B0993294B1B881B0443F0E5
:106DDC0001031846099B5B681A46099B1B882749C7
:106DEC00FFF719FD34E0059B0893214B1B881B040E
:106DFC0043F001031D46089B9C68089B9B68184642
:106E0C0003F0F2F903461846089B5B681946089B89
:106E1C001B68069A02920193009103462246184978
:106E2C002846FFF722FD124B1B881B0443F001037D
:106E3C0014491846FFF7D0FC0AE00D4B1B881B04C5
:106E4C0043F00103069A10491846FFF7D3FC00BF24
:106E5C000E4B1B6803F00103002B00D000BE059AFB
:106E6C0006990798FFF712FF00BF0BB030BD00BFAB
:106E7C0038220020B4290300D4290300F829030088
:106E8C00142A03003C2A0300502A0300F0ED00E012
:106E9C0082B003468DF807309DF8073003F01F02CF
:106EAC0005499DF907305B09012000FA02F241F80F
:106EBC00232000BF02B0704700E100E082B003461F
:106ECC008DF807309DF8073003F01F0206499DF935
:106EDC0007305B09012000FA02F2203341F823202D
:106EEC0000BF02B0704700BF00E100E082B0034673
:106EFC008DF807309DF8073003F01F0206499DF905
:106F0C0007305B09012000FA02F2403341F82320DC
:106F1C0000BF02B0704700BF00E100E082B0034642
:106F2C008DF807309DF8073003F01F0206499DF9D4
:106F3C0007305B09012000FA02F2603341F823208C
:106F4C0000BF02B0704700BF00E100E000B585B0A3
:106F5C000190019B002B0AD0074B43F001030393D4
:106F6C00019B9B010293039B0298984700E000BF92
:106F7C0005B05DF804FB00BF702A030008B50D4B8B
:106F8C004FF48032C3F844230A4B4FF48032C3F8D9
:106F9C0004231120FFF7C2FF1120FFF779FF054BE7
:106FAC0001221A602F20FFF7D1FF034B01221A7028
:106FBC0000BF08BD00100140EA28002008B51120D0
:106FCC00FFF77CFF0E4B4FF48032C3F848230C4B79
:106FDC004FF48032C3F80823094B01225A602F204A
:106FEC00FFF7B4FF064B01229A60064B00221A6091
:106FFC002F20FFF7ABFF044B00221A7000BF08BD17
:10700C0000100140DC280020EA280020024BD3F8B5
:10701C0004351846704700BF0010014082B0019043
:10702C000091019A009BD31A23F07F43184602B0BB
:10703C007047000082B00190034A019BC2F84035B2
:10704C0000BF02B0704700BF0010014086B0019035
:10705C00284B1B68002B03D1264A019B136045E08B
:10706C00019B1A68234B1B681B689A4210D8214B52
:10707C001B681968019B1A681E4B1B688A1A1A60D8
:10708C001C4B1A68019BDA611A4A019B13602DE0B4
:10709C00019B1B680393174B1B680593154B1B68CF
:1070AC00049309E0049B1B68039AD31A0393049B73
:1070BC000593049BDB690493049B002B04D0049B75
:1070CC001B68039A9A42EDD8049B002B05D0049BB5
:1070DC001A68039BD21A049B1A60019B039A1A60CC
:1070EC00019B049ADA61059B019ADA6100BF06B034
:1070FC00704700BFD828002000B587B001902A4BFC
:10710C001B680393284B1B680593059B049308E0AD
:10711C00049A019B9A4208D0049B0593049BDB695B
:10712C000493049B002BF3D100E000BF049B002BC5
:10713C0001D1002333E0059A049B9A4214D11A4BD7
:10714C001B68DB69184A1360174B1B68002B0BD1AB
:10715C00164B01229A60164B00221A60154B012225
:10716C001A702F20FFF7F2FE049B1B680293049BFE
:10717C00DA69059BDA61059BDB690493049B002BA0
:10718C0005D0049B1A68029B1A44049B1A60064B98
:10719C001B68039A9A4214BF01230023DBB21846E2
:1071AC0007B05DF804FB00BFD82800200010014098
:1071BC00DC280020EB28002008B51120FFF796FEF4
:1071CC0000BF08BD08B51420FFF790FE00BF08BD36
:1071DC0000B583B00190019B5B69019A92691046DE
:1071EC00984700BF03B05DF804FB000000B585B004
:1071FC002B4B1B68002B4ED000230193FFF706FF8F
:10720C000246284B1B6819461046FFF707FF0290F1
:10721C00234B1B6803931DE0039B1B68029A9A4245
:10722C001CD3039B1B68029AD31A0293039B1B6803
:10723C00019A13440193039B0093039BDB69039313
:10724C00009B1B7C002B05D0009B00221A7400981D
:10725C00FFF7BEFF039B002BDED100E000BF124BFB
:10726C001A78124B1B789A420CD1104B1B780133B5
:10727C00DAB20E4B1A700D4B1B78022B02D10B4B52
:10728C0000221A70094B1B781946094A019B42F8D7
:10729C002130FFF797FF00BF05B05DF804FB00BF7E
:1072AC00D8280020DC280020E8280020E92800202D
:1072BC00E028002082B00190184B1A78184B1B78EC
:1072CC009A4223D0154B1B780133DAB2134B1A7048
:1072DC00124B1B78022B02D1104B00221A700F4B51
:1072EC001B781A460F4B53F82220019B1A60019B06
:1072FC001A680D4B1B6813440B4A13600A4B1B682E
:10730C0023F07F43084A1360012303E0019B002212
:10731C001A600023184602B0704700BFE82800200E
:10732C00E9280020E0280020DC28002088B0039009
:10733C00029101920023079338E0204B1B680693BF
:10734C00069B1B68039A9A4206D2069B1A68039BFB
:10735C00D21A069B1A602EE0069B1B68039AD31A5E
:10736C000393069B1B68079A13440793069B002202
:10737C001A60124B1B680593069BDB690F4A13605E
:10738C00069BDB68002B11D0029A079B134423F059
:10739C007F42069B5A60069BDA68069B9A60019BAB
:1073AC001A68069BDA61019B059A1A60034B1B68ED
:1073BC00002BC2D100BF00BF08B07047D8280020F6
:1073CC0000B589B0019000238DF81F30664B1B6807
:1073DC000593AAE0019B002B05D0019B0693069B0D
:1073EC00DB69019361E0614B1B781A4613465B0025
:1073FC001344DB005D4A1344043304935B4B1B784A
:10740C000133DAB2594B1A70584B1A78574B9B7898
:10741C009A4202D1554B00221A70049B5B6806936A
:10742C00049B1B78032B1ED0032B7EDC012B1FD05F
:10743C00022B7AD1049B5B681846FFF75DFE03466E
:10744C00002B02D001238DF81F30069B00221A74EA
:10745C006BE0454B1B680393039B00221A74039B40
:10746C00DB69414A1360404B1B68002BF1D15CE097
:10747C0000BF069B1B7C002B00D056E0049B9A6837
:10748C00069B5A60049BDA68069B9A60049B1A69F7
:10749C00069BDA60049B5A69069B9A61344B1B78F5
:1074AC00002B02D0069B00225A60069B5A68314B77
:1074BC001B68D31A23F07F432F4A93420ED8069BA6
:1074CC005B682C4A126811461846FFF7A7FD024666
:1074DC00069B9B681A44069B1A6017E0254B1A689A
:1074EC00069B5B6819461046FFF798FD0290069BB9
:1074FC009B68029A9A4206D2069B9A68029BD21A01
:10750C00069B1A6002E0069B00221A60069B002272
:10751C005A60069B00229A60069B01221A74069BF5
:10752C000022DA610698FFF791FD019B002B7FF496
:10753C0051AF0E4B1A780D4B5B789A427FF44AAFE1
:10754C009DF81F30002B04D1074B1B68059A9A42FB
:10755C0001D0012300E0002303F00103DBB2184645
:10756C0009B05DF804FB00BFD8280020CC27002010
:10757C00EB280020DC280020FEFF7F0010B588B02F
:10758C000190274B1B68002B44D0254B1B681B68B4
:10759C000793FFF73BFD0690224B1B68059305995B
:1075AC000698FFF73BFD0346033304931E4B1B78F1
:1075BC0083F00103DBB2002B01D0FFF7DFFC049A50
:1075CC00079B934238BF1346059A13440593059BBA
:1075DC0023F07F4305930598FFF72CFDFFF716FD6D
:1075EC00039006990398FFF719FD0346DC1C0699D6
:1075FC000598FFF713FD03469C420DD9FFF706FDD6
:10760C0003461846FFF716FD2F20FFF79FFCFFF7E8
:10761C00D3FD01E0FFF7D2FC00BF08B010BD00BFE6
:10762C00D8280020DC280020EA28002000B587B0EC
:10763C000023019300238DF81730194B1B6804931A
:10764C00184B1B6803936B461846FFF733FE034633
:10765C008DF80B309DF80B30002B08D0009B01AA45
:10766C0004991846FFF762FE01238DF81730019B31
:10767C001846FFF7A5FE0346002B02D001238DF818
:10768C0017309DF81730002B02D00398FFF776FFC8
:10769C00054B00221A7000BF07B05DF804FB00BF59
:1076AC00DC280020D8280020EB28002082B00346DC
:1076BC008DF80730034A9DF80730537000BF02B0B5
:1076CC00704700BFCC27002084B00190144B5B782E
:1076DC0001338DF80F30124B9B789DF80F209A4296
:1076EC0002D100238DF80F300D4B1B789DF80F2025
:1076FC009A4201D100230FE0019B9DF80F201A70D4
:10770C00074B5B781A4613465B001344DB00044AB4
:10771C00134404330293029B184604B0704700BF15
:10772C00CC27002000B589B0039002910192009300
:10773C000023079300238DF816300DF1160318461D
:10774C0000F05AF90DF117031846FFF7BDFF06902C
:10775C00069B002B02D10423079318E0069B012201
:10776C001A70069B039A5A60FFF750FC0246069B60
:10777C009A60069B029ADA60069B019A1A61069B34
:10778C00009A5A619DF817301846FFF78FFF9DF845
:10779C001630184600F046F9079B002B01D1FFF775
:1077AC0011FD079B184609B05DF804FB00B587B0C6
:1077BC0001900B468DF803300023059300238DF8C0
:1077CC000E300DF10E03184600F016F90DF10F03F3
:1077DC001846FFF779FF0490049B002B02D1042379
:1077EC0005930BE0049B9DF803201A70049B019AEF
:1077FC005A609DF80F301846FFF758FF9DF80E3071
:10780C00184600F00FF9059B002B01D1FFF7DAFCAD
:10781C00059B184607B05DF804FB000008B50E4B3D
:10782C000022C3F840210C4B0022C3F844210A4B20
:10783C000022C3F84821084B0022C3F84C21064B08
:10784C000022C3F80021044B0022C3F80421FFF7E7
:10785C00CDFC00BF08BD00BF0010014008B5FFF70C
:10786C00E5FE00BF08BD000000B587B00390029193
:10787C000192039B0593144B9B78002B01D1082399
:10788C001EE0039B002B01D1082319E0029B042B63
:10789C0001D8072314E0059B5B69002B01D1082359
:1078AC000EE0059B5B7C012B01D1029B00E00023C9
:1078BC000493019B049A02990598FFF733FF034642
:1078CC00184607B05DF804FBCC27002000B585B046
:1078DC000190019B03930D4B9B78002B01D1082346
:1078EC0010E0019B002B03D0039B5B69002B01D1A3
:1078FC00082307E0039B00221A7402210398FFF768
:10790C0055FF0346184605B05DF804FBCC27002054
:10791C0082B0EFF310830093009B019372B600BF0B
:10792C00019B184602B0704762B600BF00BF70479B
:10793C0000B585B00190FFF7EBFF0390164B9B68E9
:10794C00002B1BD1144B01229A60144BD3F88020CE
:10795C00134B1340104A1360104B114AC3F880208C
:10796C000E4BD3F884300C4A53600C4B4FF0FF3263
:10797C00C3F88420019B00221A7002E0019B0122B3
:10798C001A70039B002B01D1FFF7CEFF0023184682
:10799C0005B05DF804FB00BFEC28002000E100E01E
:1079AC00FC06FFBD00B585B003468DF80730104BC3
:1079BC009B68002B16D09DF80730002B12D1FFF7D7
:1079CC00A7FF03900B4A0A4B1B681360094A084B2C
:1079DC005B685360064B00229A60039B002B01D11D
:1079EC00FFF7A2FF0023184605B05DF804FB00BFAB
:1079FC00EC28002000E100E000B583B0019000F01D
:107A0C002BF80346012B03D0054943200AF0CAFC8E
:107A1C000198FFF78DFF00BF03B05DF804FB00BFBA
:107A2C00782A030000B583B003468DF8073000F0C8
:107A3C0013F80346012B03D0064951200AF0B2FC7F
:107A4C009DF807301846FFF7ADFF00BF03B05DF897
:107A5C0004FB00BF782A030084B0EFF30583019385
:107A6C00019BC3F308030393039B002B0DD1EFF38E
:107A7C0014830093009B0293029B03F00103002BE1
:107A8C000CBF01230023DBB200E00123184604B035
:107A9C00704782B00190019B03F00303002B0CBFD5
:107AAC0001230023DBB2184602B0704700B585B045
:107ABC000190002303930EE00B4A039B52F82330F2
:107ACC00002B05D0084A039B52F8233001989847A5
:107ADC00039B01330393039B032BEDD900BF00BF22
:107AEC0005B05DF804FB00BF0429002082B00190B2
:107AFC000091019B1B78013B052B61D801A252F828
:107B0C0023F000BF297B0200317B0200577B02006F
:107B1C00897B0200A97B0200C57B0200009B00222E
:107B2C001A704EE0009B01221A70019B1A89009B6F
:107B3C009A81019B9A88009BDA81019BDA68009BF1
:107B4C009A60009B00221A743BE0009B02221A7080
:107B5C00019B1A89009B9A81019B9A88009BDA8170
:107B6C00019BDA68009B9A60019B9B7D062B0CBFE6
:107B7C0001230023DAB2009B1A7422E0009B03223B
:107B8C001A70019BDA88009B9A81019B1A89009BD1
:107B9C00DA81019BDA68009B9A6012E0009B042258
:107BAC001A70019BDA88009B9A81009B0022DA8173
:107BBC00009B00229A6004E0009B05221A7000E0F2
:107BCC0000BF00BF02B0704784B001900091019BD0
:107BDC000393039A009B9A4206D2039B1B68B3F152
:107BEC00FF3F01D0012300E0002303F00103DBB2CF
:107BFC00184604B0704782B00190019B5B88033338
:107C0C009B00019A1344184602B0704700B583B02C
:107C1C00019000910198FFF7EEFF0246009B934202
:107C2C0001D202230CE0019B9B884FF6FF7293421A
:107C3C0003D0019B1B88002B01D1012300E0002302
:107C4C00184603B05DF804FB00B583B00190019BAE
:107C5C00002B13D00D4BDB681A46019B93420DD3BE
:107C6C000A4B1B691A46019B934207D80198FFF7F0
:107C7C0010FF0346002B01D0012300E0002303F08A
:107C8C000103DBB2184603B05DF804FB642200204C
:107C9C0082B003460A46ADF806301346ADF8043000
:107CAC00BDF80620134913469B0013449B000B445C
:107CBC0008331A88BDF804301344ADF80430BDF80D
:107CCC0006200C4913469B0013449B000B440A33BB
:107CDC001A88BDF804301344ADF80430BDF80430F4
:107CEC0040F2FF32934294BF01230023DBB21846CB
:107CFC0002B070471829002084B0019000910A232B
:107D0C0003930023ADF80A3027E0BDF80A20174989
:107D1C0013469B0013449B000B4404331B68009ACE
:107D2C009A4215D9BDF80A20104913469B001344FA
:107D3C009B000B4404331B6803F58053009A9A4252
:107D4C0006D200230393019BBDF80A201A8008E099
:107D5C00BDF80A300133ADF80A30BDF80A30012BFA
:107D6C00D3D9039B184604B0704700BF18290020D4
:107D7C0082B001900091009B9B7D022B09D9019B45
:107D8C001A89009BDB8813449BB203339AB2019B84
:107D9C001A81019B5A89009BDB88D31A9BB2033B47
:107DAC009AB2019B5A8100BF02B0704700B583B0F4
:107DBC00074B1B681946002300930823054A064805
:107DCC0001F094FC0346184603B05DF804FB00BFB9
:107DDC0040290020602B03006422002000B585B0F0
:107DEC0003900399002300930823044A044801F0EC
:107DFC007DFC0346184605B05DF804FB682B0300B8
:107E0C006422002000B585B003460091ADF8063021
:107E1C0000238DF80F30BDF806300333ADF80A306F
:107E2C00BDF80A3040F2FD32934201D909234AE0F1
:107E3C000023ADF80C303BE0BDF80C202449134670
:107E4C009B0013449B000B441B78002B2BD1BDF8DB
:107E5C000A20BDF80C3011461846FFF719FF0346EF
:107E6C00002B20D001238DF80F30009BBDF80C2087
:107E7C001A80BDF80C20164913469B0013449B0036
:107E8C000B440A331988BDF80C20BDF80A300B449A
:107E9C0098B20F4913469B0013449B000B440A33C2
:107EAC0002461A8008E0BDF80C300133ADF80C30F6
:107EBC00BDF80C30012BBFD99DF80F30002B01D031
:107ECC00002300E00723184605B05DF804FB00BF53
:107EDC001829002082B003460A46ADF80630134636
:107EEC00ADF80430BDF804200D4913469B00134433
:107EFC009B000B440A331A88BDF80630D31A9BB288
:107F0C00BDF80420033B98B2054913469B0013446B
:107F1C009B000B440A3302461A8000BF02B0704724
:107F2C001829002008B50121024801F0E5FA0346A2
:107F3C00184608BD1429002000B585B003460091F1
:107F4C00ADF80630BDF80620244913469B001344B7
:107F5C009B000B4404331B6803F580530293009B76
:107F6C001B680393039B002B04D00398FFF743FE7D
:107F7C00039026E0BDF80620184913469B001344D5
:107F8C009B000B4404331B680833039319E00299DC
:107F9C000398FFF73BFE0346022B10D0022B10DC9C
:107FAC00002B02D0012B05D00BE0009B039A1A602A
:107FBC0001230EE00398FFF71EFE039001E000235F
:107FCC0007E002990398FFF7FFFD0346002BDED173
:107FDC000023184605B05DF804FB00BF18290020EB
:107FEC0000B585B001900091019B5B681846FFF7C6
:107FFC002BFE0346002B19D0019B1A89244B1B899D
:10800C009A4213D1019B1A68019B5B689B689A4248
:10801C000CD1019B5B6819460098FFF76DFE034677
:10802C00002B0CBF01230023DBB22CE0009B0022B1
:10803C001A8023E00023029310E0029B0393039B1E
:10804C009A68019B1B689A4208D1029A019B5A605C
:10805C000F4B1A89019B1A81012314E0009B1B888A
:10806C0002AA11461846FFF767FF0346002BE4D11E
:10807C00009B1B8801339AB2009B1A80009B1B88C3
:10808C00012BD7D90023184605B05DF804FB00BFBF
:10809C004829002000B587B003900291019200930B
:1080AC00304B1B78DBB283F00103DBB2002B01D029
:1080BC00022353E0019B002B02D0009B002B48D1E4
:1080CC0005234BE0009B9B881946274A0B469B00D7
:1080DC000B449B0013441B78002B33D124E0009BF2
:1080EC001B680593039B002B06D0059B9A88039B6A
:1080FC001B889A4200D017E0029B002B06D0059BF0
:10810C001A88029B1B889A4200D00DE0059B9A6846
:10811C00019B1A60009B1A68019B5A60134B1A89C9
:10812C00019B1A81002319E0009B9B88009A114641
:10813C001846FFF701FF0346002BD0D1009B00220D
:10814C001A6000E000BF009B9B8801339AB2009B31
:10815C009A80009B9B88012BB4D90A23184607B040
:10816C005DF804FBF828002018290020482900207D
:10817C0000B585B00190084B0199184601F0A2F8A2
:10818C0003901C22002103980AF09AFA039B1846CC
:10819C0005B05DF804FB00BF7822002000B583B069
:1081AC000190044B0199184601F0A5F800BF03B0EB
:1081BC005DF804FB7822002000B583B00190054BDC
:1081CC000199184601F0ABF80346184603B05DF868
:1081DC0004FB00BF7822002000B583B00190044B53
:1081EC000199184601F0B4F800BF03B05DF804FB28
:1081FC007822002008B50A4B1B68002B04D10949D2
:10820C0040F27A200AF0CEF80121054801F08CF9F1
:10821C000346002B14BF01230023DBB2184608BD14
:10822C0000290020FC2A030000B587B003900291BE
:10823C00039B02229A750299039B1A1D002300933B
:10824C000423074801F052FA0590059B002B01D13D
:10825C00002300E00E23184607B05DF804FB00BFB6
:10826C006422002000B587B003900291039B1B6928
:10827C00002B01D0032200E00122039B9A75029B84
:10828C0008331946039B03F10C02002300930423CB
:10829C00064801F02BFA0590059B002B01D1002319
:1082AC0000E00E23184607B05DF804FB64220020A2
:1082BC0000B587B003900291039B1B78032B01D16F
:1082CC00052200E00622039B9A75029B0433194693
:1082DC00039B03F10802002300930423064801F0DA
:1082EC0005FA0590059B002B01D1002300E00E231D
:1082FC00184607B05DF804FB6422002000B587B077
:10830C0003900B46ADF80A30039900230093042325
:10831C000C4A0D4801F0EAF90590059B002B01D0A1
:10832C000E230BE0BDF80A20084913469B001344AA
:10833C009B000B44103301221A700023184607B01F
:10834C005DF804FB702B0300642200201829002028
:10835C0000B589B0019002AB00221A605A609A6095
:10836C00019BDB6802930DF1160202AB1146184615
:10837C00FFF736FE0346002B12D0039B0693069B99
:10838C009A88019BDA80069B1A88019B1A81039BB1
:10839C00BDF8162011461846FFF7B0FF079001E014
:1083AC000A230793079B184609B05DF804FB0000ED
:1083BC0000B587B00190019B981D02AA0D4B0021BE
:1083CC00FFF768FE0590059B002B08D1039B094A1B
:1083DC00928811461846FFF791FF059004E0082299
:1083EC00002104480AF06CF9059B184607B05DF8AB
:1083FC0004FB00BF5829002000B587B00390029100
:10840C00039B01229A75029B0C331846039B1A6935
:10841C00039BDB889B00002100910146064801F07C
:10842C0065F90590059B002B01D1002300E00E237C
:10843C00184607B05DF804FB6422002082B0184B8C
:10844C001B8901339AB2164B1A81154B00225A80A4
:10845C00134B00221A730023ADF8063018E0BDF858
:10846C000620104913469B0013449B000B441A78BA
:10847C00BDF80630002A0CBF01220022D1B2084AF6
:10848C0013440A469A72BDF806300133ADF8063033
:10849C00BDF80630012BE2D900BF00BF02B0704717
:1084AC00482900201829002084B0019000238DF861
:1084BC000F300023ADF80C3031E0BDF80C301C4A05
:1084CC0013449B7A002B25D0BDF80C30184A13446A
:1084DC0000229A72BDF80C20164913469B001344D7
:1084EC009B000B440C331B68002B13D1BDF80C20E4
:1084FC00104913469B0013449B000B4410331B780C
:10850C00002B07D0019BBDF80C201A8001238DF89D
:10851C000F3008E0BDF80C300133ADF80C30BDF86D
:10852C000C30012BC9D99DF80F30184604B0704798
:10853C00482900201829002008B5084B05221A707C
:10854C00074B02229A80064B1B6819460023012216
:10855C00044801F0A3F90346184608BD4829002039
:10856C00402900206422002000B583B0164B5B88A4
:10857C00ADF80230BDF80220144913469B00134499
:10858C009B000B440C331B68002B14D10E4B0422A4
:10859C001A70BDF802200D4913469B0013449B0032
:1085AC000B4404331B68194600230122084801F0D0
:1085BC0075F9019002E0FFF7BFFF0190019B18468F
:1085CC0003B05DF804FB00BF4829002018290020E7
:1085DC006422002000B587B0104B5B680593104BEC
:1085EC001A680F4B9B889B0013440493059B5B8874
:1085FC000333ADF80E30094B03221A700499074B64
:10860C005A68BDF80E309B0000200090054801F020
:10861C006DF80346184607B05DF804FB48290020A6
:10862C00402900206422002000B583B00A4B5B88EF
:10863C000A491846FFF780FC0346002B03D0FFF7CE
:10864C00C9FF019002E0FFF78FFF0190019B1846D4
:10865C0003B05DF804FB00BF482900204C29002022
:10866C0008B50A4B06221A70084B5B881946084A53
:10867C000B469B000B449B00134404331B681846A9
:10868C00FFF7ACFB0346184608BD00BF4829002085
:10869C001829002008B5054B07221A70034B00223D
:1086AC005A60FFF783FB0346184608BD4829002093
:1086BC0008B50D48FFF7F8FE034683F00103DBB263
:1086CC00002B0BD0094B00221A70084B00225A8049
:1086DC00064B00225A6041F61D5302E0FFF7A4FF3F
:1086EC000346184608BD00BF4A290020482900202F
:1086FC0082B0094B5B680193019B5B880333ADF837
:10870C000230064B9A88BDF8023013449AB2034BE0
:10871C009A8000BF02B070474829002040290020F1
:10872C0082B0184B1B680193174B5B881946174A8C
:10873C000B469B000B449B00134404331B68114AEB
:10874C001360114B5B881946104A0B469B000B4477
:10875C009B0013440433019A1A600B4B5B88194637
:10876C00084B9888094A0B469B000B449B0013440A
:10877C00083302461A80034B02229A8000BF02B0D3
:10878C00704700BF402900204829002018290020EC
:10879C0008B51A4B1B78072B2CD801A252F823F0E2
:1087AC00CD8702000188020001880200D9870200EF
:1087BC00E5870200F1870200F1870200F9870200C9
:1087CC00FFF73CFE0D4B01221A7014E0FFF790FFEF
:1087DC000A4B02221A700EE0FFF7A2FF074B06228B
:1087EC001A7008E0054B07221A7004E0034B0122B3
:1087FC001A7000E000BF00BF08BD00BF4829002070
:10880C0000B587B0019000910F230593019B002BBD
:10881C0004D0624B00225A600123BBE0009B1B7901
:10882C00032B00F2AB8001A252F823F0498802001E
:10883C0057880200E588020005890200009B01228E
:10884C001A71FFF7B3FA05909BE000238DF81330F3
:10885C000023ADF810302BE0BDF810205049134622
:10886C009B0013449B000B441B78022B1BD1BDF8BF
:10887C0010204B4913469B0013449B000B440022D1
:10888C001A7001238DF81330BDF81020444913469B
:10889C009B0013449B000B4404331B681846FFF7E2
:1088AC009DFA059008E0BDF810300133ADF810309A
:1088BC00BDF81030012BCFD99DF8133083F0010394
:1088CC00DBB2002B5CD0354B01221A70334B0022EB
:1088DC005A6041F61D535DE0009B00221A71314B2A
:1088EC0002229A802F4B1B681946002301222E4826
:1088FC0000F0D4FF059044E0009B00221A71294B34
:10890C001B681846FFF76AFA0590284B5B88ADF890
:10891C000E30244B1B680293BDF80E2020491346E1
:10892C009B0013449B000B4404331B681D4A1360CB
:10893C00BDF80E201A4913469B0013449B000B44B0
:10894C000433029A1A60BDF80E20164B988814490D
:10895C0013469B0013449B000B44083302461A80B9
:10896C00104B02229A80BDF80E200D4913469B0035
:10897C0013449B000B4400221A7002E000BF00E07D
:10898C0000BF059B002B04D0044B00225A600E2321
:10899C0000E00023184607B05DF804FBF82800201F
:1089AC00182900204029002064220020482900209A
:1089BC0000B587B001900091009B9B8A1A46134624
:1089CC009B0013449B003A4A13440493019B002BD5
:1089DC0005D000990498FFF7CBF9012363E0049BC1
:1089EC005A68049B1B899B0013440393009B9B7D3B
:1089FC00062B4DD801A252F823F000BF4B8A02007F
:108A0C006F8A0200578A0200638A0200258A0200DC
:108A1C007B8A0200958A0200264B00225A60009B3A
:108A2C009B69244A136024492248FFF7D9FA03466C
:108A3C0083F00103DBB2002B01D00A2333E003994E
:108A4C000098FFF7F1FB059025E003990098FFF7DC
:108A5C0009FC05901FE003990098FFF7CDFC0590E9
:108A6C0019E003990098FFF723FC059013E0009B95
:108A7C0006229A750F4B5B680F4A128811461846EE
:108A8C00FFF73CFC059006E041F61D53059302E010
:108A9C000F23059300BF059B002B03D0009904986E
:108AAC00FFF766F9059B184607B05DF804FB00BF9D
:108ABC0018290020602900206C29002000B585B001
:108ACC0001900091019B002B01D0012326E0009B1B
:108ADC001B79022B19D0022B1BDC002B02D0012B93
:108AEC0008D016E0009B02221A710098FFF730FCA8
:108AFC00039012E00098FFF75BFC0390039B0A2B9A
:108B0C000AD141F61D53039306E041F61D5303931E
:108B1C0003E00F23039300E000BF039B184605B04E
:108B2C005DF804FB00B585B00190019B002B01D0D2
:108B3C0001233BE01F4B1B7B002B03D01D4B002262
:108B4C001A7301E0FFF724FE1A4B1B78013B062B2E
:108B5C0028D801A252F823F0818B0200898B0200E5
:108B6C00918B0200998B0200B18B0200A18B020049
:108B7C00A98B0200FFF79CFD039016E0FFF754FD54
:108B8C00039012E0FFF726FD03900EE0FFF7ECFCDC
:108B9C0003900AE0FFF764FD039006E0FFF77AFD0F
:108BAC00039002E00F23039300BF039B184605B00C
:108BBC005DF804FB4829002000B589B001903F4BBB
:108BCC001B68002B05D13E48FFF7F6FA03463B4ADB
:108BDC0013603A4B1B68002B04D13A4940F2825087
:108BEC0009F0E0FB354B1B681B78013B052B2CD89F
:108BFC0001A252F823F000BF1D8C02002D8C020044
:108C0C002D8C02003D8C02003D8C02004D8C02002C
:108C1C002A4B1B6819460198FFF7F2FD019017E0EB
:108C2C00264B1B6819460198FFF7C2FE01900FE016
:108C3C00224B1B6819460198FFF740FF019007E093
:108C4C000198FFF76FFF019002E00F23019300BF23
:108C5C00019B002B2BD003AB00221A605A609A6048
:108C6C00DA601A61019B41F61D52934201D0019BBF
:108C7C0000E000230493114B1B6803AA114618460D
:108C8C00FEF734FF03AB1846FEF710FF0B4B002228
:108C9C001A60002301930A48FFF79EFAFFF7AAFA1D
:108CAC00034683F00103DBB2002B02D187E700BF40
:108CBC0000E000BF00BF09B05DF804FB7029002084
:108CCC0074290020FC2A030008B50121054800F096
:108CDC00FBFB0346002B02D10020FFF76DFF00BF0A
:108CEC0008BD00BF0029002000B583B00190019B96
:108CFC005B681846FFF760FF00BF03B05DF804FB2C
:108D0C0000B58BB00390029101928DF803300023D3
:108D1C00ADF824300023ADF82630514B1B78DBB274
:108D2C0083F00103DBB2002B01D0022393E0029B02
:108D3C00002B01D105238EE0029B1B884FF6FF729E
:108D4C00934203D0029B5B88002B01D1042382E069
:108D5C00029B5B681846FEF79CFE034683F00103FA
:108D6C00DBB2002B01D0032375E0019B002B11D14A
:108D7C00029B9B68ADF826300DF11A02BDF8263027
:108D8C0011461846FFF73EF80890089B002B09D0B7
:108D9C00089B60E0019B1B88ADF81A30019B5B8837
:108DAC00ADF8263005AB1846FFF7E2F90790079BA4
:108DBC00002B09D1BDF81A20BDF8263011461846F3
:108DCC00FFF788F8082346E0079B9DF803201A70EC
:108DDC00079B00229A75BDF81A20079B9A82029B6A
:108DEC005A68079B1A61FFF79DF80246079BDA60E9
:108DFC00029B1A88079B1A81029B5A88079B9A80B0
:108E0C00079BBDF82620DA809DF80330032B06D192
:108E1C00079B04229A75039B1A68079B9A61079B10
:108E2C00BDF824205A8105AB1846FFF7B7F9039B10
:108E3C00002B0DD0039B00225A60079BDA68039B22
:108E4C001A60039B00229A72064B1A89039B1A81A3
:108E5C00FFF73AFF002318460BB05DF804FB00BF88
:108E6C00F82800204829002000B585B00190009119
:108E7C00019B002B02D0009B002B01D1052329E084
:108E8C000DF10A0319460198FFF7AAF80346002BC7
:108E9C001FD0019B5B680393BDF80A301A4613463A
:108EAC009B0013449B0008330C4A134404330121E8
:108EBC00184600F021FB009B039A1A60019B5B682B
:108ECC0003F10C02009B5A60019B01229A72002351
:108EDC0000E00A23184605B05DF804FB18290020B1
:108EEC0000B585B00190019B002B01D1052339E021
:108EFC000DF10A0319460198FFF772F80346002B8F
:108F0C002DD0BDF80A301946184A0B469B000B446D
:108F1C009B0013440C331B68002B1DD0019B9B7AC8
:108F2C00002B19D0BDF80A301A46104913469B0085
:108F3C0013449B000B440C331B68591E0B481346FF
:108F4C009B0013449B0003440C331960019B0022CB
:108F5C009A720023039304E00623039301E00A238F
:108F6C000393039B184605B05DF804FB18290020F9
:108F7C0000B585B001900B46ADF80230134B1B7851
:108F8C00DBB283F00103DBB2002B01D0022319E02A
:108F9C00019B002B01D1052314E00DF10A02BDF851
:108FAC00023011461846FEF72DFF0390039B002B51
:108FBC0007D1BDF80A20019B1A80019BBDF8022045
:108FCC005A80039B184605B05DF804FBF828002076
:108FDC0000B585B001901F4B1B78DBB283F0010309
:108FEC00DBB2002B01D002232FE0019B002B01D11F
:108FFC0005232AE0019B1B88022B01D9042324E0C2
:10900C00019B1B881A4613469B0013449B00124A73
:10901C0013440293019B5B880233029A5289934258
:10902C0010DA019B5A88019B1B8819461046FEF7E3
:10903C0051FF019B00221A80019B00225A800023C1
:10904C00039301E004230393039B184605B05DF8DA
:10905C0004FB00BFF82800201829002000B583B0BD
:10906C00019000910223002200990198FFF748FE1D
:10907C000346184603B05DF804FB00B585B00390B9
:10908C0002910192019B002B01D1052306E00223E2
:10909C00019A02990398FFF733FE0346184605B070
:1090AC005DF804FB00B583B001900091019B002B8F
:1090BC0001D1052306E00323002200990198FFF754
:1090CC001FFE0346184603B05DF804FB00B585B0DF
:1090DC000346ADF80630184B1B78DBB283F0010366
:1090EC00DBB2002B01D0022322E0BDF806304FF694
:1090FC00FF72934201D104231AE002AB1846FFF72A
:10910C0037F80390039B002B01D1082310E0039B3D
:10911C0005221A70039B01221A71039BBDF80620CD
:10912C00DA8002AB1846FFF739F8FFF7CDFD0023C4
:10913C00184605B05DF804FBF828002000B585B092
:10914C00029201930346ADF80E300B46ADF80C308D
:10915C0003A90DF10E00019B029AFEF79BFF03463B
:10916C00184605B05DF804FB00B585B003460291C6
:10917C000192ADF80E300DF10E01019B029A002008
:10918C00FEF788FF0346184605B05DF804FB00B5F2
:10919C0085B0034602910192ADF80E300DF10E0030
:1091AC00019B029A0021FEF775FF0346184605B095
:1091BC005DF804FB82B001900091019B002B02D062
:1091CC00009B002B01D1052304E0019B1A68009B36
:1091DC001A600023184602B0704786B001900091C7
:1091EC00019B53E8011F8AB2D889024498898242B4
:1091FC0028BF121A1889824202BFBFF32F8F002397
:10920C0007E0C2EA010243E801200028E9D14FF04F
:10921C0001038DF80F30059002910492029A009B85
:10922C001A609DF80F30DBB2184606B0704784B058
:10923C000190019951E8013FC3EA034341E801322F
:10924C00002AF7D10392029300BF04B0704786B096
:10925C0001900091019B53E8021F1FFAA1F2D888DC
:10926C00824202BFBFF32F8F00230DE0D889024446
:10927C009889824228BF121AC1EA024243E80220AE
:10928C000028E8D14FF001038DF80F3005900291C2
:10929C000492029A009B1A609DF80F30DBB21846BC
:1092AC0006B0704784B00190019951E8023FC3EABF
:1092BC00234341E80232002AF7D10392029300BF04
:1092CC0004B0704700B585B001900091009B194621
:1092DC000198FFF782FF0346002B07D0019B1B6808
:1092EC00009A128813440393039B00E00023184652
:1092FC0005B05DF804FB00B583B001900091009BB4
:10930C001A88009B5B889A4204D10198FFF78FFF63
:10931C00012300E00023184603B05DF804FB00B500
:10932C0085B001900091009B19460198FFF78FFFC3
:10933C000346002B07D0019B1B68009A52881344EC
:10934C000393039B00E00023184605B05DF804FB73
:10935C0000B583B001900091009B1A88009B5B883C
:10936C009A4204D10198FFF79DFF012300E00023EE
:10937C00184603B05DF804FB00B585B00190009170
:10938C00009B5B099B00019A1A44009B03F01F038E
:10939C00012101FA03F31946104600F04DF8039031
:1093AC0000BF05B05DF804FB00B585B001900091DD
:1093BC00009B5B099B00019A1A44009B03F01F035E
:1093CC00012101FA03F3DB431946104600F064F85F
:1093DC00039000BF05B05DF804FB82B001900091D2
:1093EC00009B5B099B00019A13441A68009B03F0D5
:1093FC001F0322FA03F303F00103002B14BF012314
:10940C000023DBB2184602B0704710B487B001904D
:10941C000091019B009A53E8004F104643E800016D
:10942C0091F0000FF7D1059404900391059B184619
:10943C0007B05DF8044B704710B487B001900091F1
:10944C00019B009A53E8004F44EA020043E80001F4
:10945C0091F0000FF6D1059404900391049B1846EB
:10946C0007B05DF8044B704710B487B001900091C1
:10947C00019B009A53E8004F04EA020043E8000104
:10948C0091F0000FF6D1059404900391059B1846BA
:10949C0007B05DF8044B704710B487B00190009191
:1094AC00019B009A53E8004F04EA020043E80001D4
:1094BC0091F0000FF6D1059404900391049B18468B
:1094CC0007B05DF8044B704710B487B00190009161
:1094DC00019B009A53E8004F04EB020043E80001A3
:1094EC0091F0000FF6D1059404900391059B18465A
:1094FC0007B05DF8044B704710B487B00190009131
:10950C00019B009A53E8004F04EB020043E8000172
:10951C0091F0000FF6D1059404900391049B18462A
:10952C0007B05DF8044B704710B487B00190009100
:10953C00019B009A53E8004FA4EB020043E80001A2
:10954C0091F0000FF6D1059404900391049B1846FA
:10955C0007B05DF8044B704700B583B00190012152
:10956C000198FFF769FF0346184603B05DF804FB4A
:10957C0000B583B0019000210198FFF775FF0346F9
:10958C00184603B05DF804FB00B583B001900B46A0
:10959C008DF80330019B002B03D10849E82008F01B
:1095AC0001FF019BDA689DF803300199898A01FB60
:1095BC0003F31344184603B05DF804FB742B03004B
:1095CC0000B583B001900091019B002B03D1084999
:1095DC00F52008F0E7FE009B019AD2689B1A019ACD
:1095EC00928AB3FBF2F3DBB2184603B05DF804FBCE
:1095FC00742B030000B585B00190019B002B04D1A6
:10960C001F494FF4927008F0CDFE00230393002302
:10961C008DF80A300DF10A031846FEF7EDF9019B9F
:10962C001B681A68019B5B689A421FD9019B1B68D7
:10963C001A68013A1A601B681B7819460198FFF7E3
:10964C00A3FF0390019B9A68019B1B681B68D31AAC
:10965C008DF80B30019B1B681B799DF80B209A42EF
:10966C0004D9019B1B689DF80B201A719DF80A30D8
:10967C001846FEF7D7F9039B184605B05DF804FBB6
:10968C00742B030010B584B001900091019B002B4A
:10969C0004D1154940F2471008F084FE009B002BC2
:1096AC0004D111494FF4A47008F07CFE009B039385
:1096BC0000238DF80B300DF10B031846FEF79CF9C7
:1096CC00019B1B681C68621C1A6003990198FFF7C8
:1096DC0077FF034623709DF80B301846FEF7A2F96E
:1096EC0000BF04B010BD00BF742B030010B586B0D2
:1096FC000590049103920293059B002B0FD15C4BB8
:10970C001B881B0443F0010318465A4A5A490E237E
:10971C0000930B465949FDF792F80E23A4E0039BE6
:10972C00002B0FD1524B1B881B0443F0010318462E
:10973C00534A51490E2300930B465049FDF77FF8CD
:10974C000E2391E0059B1B68002B0FD1484B1B8807
:10975C001B0443F0010318464A4A47490823009367
:10976C000B464649FDF76BF808237DE0029B002B66
:10977C000FD13F4B1B881B0443F001031846424A90
:10978C003D49092300930B463C49FDF758F8092342
:10979C006AE0059B5B685A68029BB3FBF2F101FB24
:1097AC0002F29B1A002B0FD0314B1B881B0443F089
:1097BC0001031846354A3049092300930B462F49BB
:1097CC00FDF73DF809234FE0049800F057F90346E4
:1097DC00002B0FD1264B1B881B0443F001031846AA
:1097EC002B4A2549102300930B462449FDF727F8F3
:1097FC00102339E0039B184600F040F90346002B78
:10980C000FD11B4B1B881B0443F001031846214A44
:10981C001949102300930B461849FDF710F8102333
:10982C0022E0029A0499059800F00EF90346002BE9
:10983C000FD10F4B1B881B0443F001031846164A2B
:10984C000D49102300930B460C49FCF7F8FF10232D
:10985C000AE0059B1B68DC68089B0093029B039A3B
:10986C0004990598A0470346184606B010BD00BFE2
:10987C0050220020F02B0300942D0300F82B030042
:10988C00842C03002C2C0300402C03008C2C030094
:10989C00B82C0300D02C0300F42C030010B586B0B8
:1098AC000590049103920293059B002B0FD13C4B26
:1098BC001B881B0443F0010318463A4A3A490E230D
:1098CC0000930B463949FCF7BAFF0E2364E0059B65
:1098DC001B68002B0FD1324B1B881B0443F0010378
:1098EC001846334A3049082300930B462F49FCF79E
:1098FC00A6FF082350E0039B002B0FD1284B1B889D
:10990C001B0443F0010318462A4A274909230093F4
:10991C000B462649FCF793FF09233DE00499059873
:10992C0000F0B9F80346002B0FD11D4B1B881B040C
:10993C0043F001031846204A1B49102300930B46A1
:10994C001A49FCF77CFF102326E0059B5B681B681B
:10995C00039A02FB03F31A460499059800F074F875
:10996C000346002B0FD10E4B1B881B0443F0010345
:10997C001846124A0C49102300930B460B49FCF76E
:10998C005EFF102308E0059B1B681C69029B039A71
:10999C0004990598A0470346184606B010BD00BFB1
:1099AC0050220020F02B0300A82D0300F82B0300FD
:1099BC002C2C0300402C03001C2D0300442D030011
:1099CC0000B585B00190019B002B03D0019B1B6857
:1099DC00002B28D10023039319E0039A13469B0014
:1099EC0013449B001A46154B13440193019B1B68AF
:1099FC00002B09D0019B1B68DB6901989847034633
:109A0C00002B01D0012314E0039B013303930C4A78
:109A1C000A4BD31A0B4AA2FB03231B09039A9A4243
:109A2C00DBD3002305E0019B1B68DB690198984799
:109A3C000346184605B05DF804FB00BF6422002005
:109A4C0078220020CDCCCCCC84B003900291019232
:109A5C00039BDB68029A9A4209D3029A019B134436
:109A6C005A1E039B1B699A4201D8012300E0002374
:109A7C0003F00103DBB2184604B0704782B00190CA
:109A8C00019B03F00303002B0CBF01230023DBB26B
:109A9C00184602B0704782B001900091019B5B6840
:109AAC001B685A1E009B1340002B0CBF0123002384
:109ABC00DBB2184602B0704729DF704700BF18466A
:109ACC0028DF704700BF184600B589B0019000919F
:109ADC00019B1B689B68002B35D002AB00221A60DF
:109AEC005A609A60DA601A615A61009B0393019B79
:109AFC009B680793019B1B79002B02D0012B0DD087
:109B0C001AE001238DF80830019B1B690493019B1B
:109B1C00DB680593019B5B6906930DE002238DF8CE
:109B2C000830019BDB684FF4805202FB03F3049373
:109B3C00019B5B69069300BF019B1B689B6802AA93
:109B4C001046984700E000BF09B05DF804FB00B573
:109B5C0087B00190019B5A69019B9B69D31AB3F59D
:109B6C00805F28BF4FF4805305930422059BB3FB01
:109B7C00F2F3012B38BF01230593019B1A69019B5A
:109B8C009B6913440493019BDB681A46019B9B69F8
:109B9C0013440393059A03990498FFF78DFF03462A
:109BAC00184607B05DF804FB00B583B00190019B2B
:109BBC00DA68019B1B6913441846FFF781FF0346C3
:109BCC00184603B05DF804FB08B5034B034918466F
:109BDC00FFF7BEFB00BF08BD8C220020902900209F
:109BEC0008B5084B08491846FFF799FB0346074A86
:109BFC001360064B1B68002B14BF01230023DBB240
:109C0C00184608BD8C220020902900208C290020A9
:109C1C0000B583B02A4B1B7A002B0BD1FFF7E0FF6A
:109C2C00034683F00103DBB2002B03D0244B00224C
:109C3C005A6042E0224B02221A72224B1B681B799B
:109C4C00002B02D0012B07D00DE01E4B1B681846D1
:109C5C00FFF77DFF019009E01A4B1B681846FFF7D0
:109C6C00A3FF019002E00323019300BF019B002B93
:109C7C0003D0019B112B0CD00FE0114B1B7C83F0FC
:109C8C000103DBB2002B17D00021022000F06EF88C
:109C9C0012E00B4B01221A720FE00A4B1B680321D6
:109CAC001846FFF711FF064B00221A72044B0022D4
:109CBC005A60FFF789FF00E000BF03B05DF804FBBA
:109CCC00782900208C29002084B001901B4B0022A5
:109CDC00DA60019B1B79002B02D0012B19D028E0F4
:109CEC00019B5A69019B9B69D31AB3F5805F28BF0E
:109CFC004FF480530393019B9A69039B1A44019B75
:109D0C009A61019B9A69019B5B699A420ED101236E
:109D1C0010E0019B1B695A1C019B1A61019B1A697B
:109D2C00019B5B699A4203D1012303E000BF00E071
:109D3C0000BF0023184604B0704700BF78290020EC
:109D4C0082B00190084BDB680133074AD360064BA5
:109D5C00DB68082B04D9044B0022DA60012300E0F5
:109D6C000023184602B070477829002000B585B052
:109D7C0001900091019B022B02D0019B032B48D137
:109D8C00274B1B7A022B05D0022B35DC002B42D043
:109D9C00012B31E000238DF80F30019B022B03D0F7
:109DAC00019B032B09D011E01E4B1B681846FFF7D3
:109DBC008BFF03468DF80F3008E01A4B1B681846D2
:109DCC00FFF7BEFF03468DF80F3000BF9DF80F3034
:109DDC00002B10D0124B00221A72124B1A68019BE6
:109DEC00022B01D1002300E00D2319461046FFF78A
:109DFC006BFEFFF7E9FE00BF094B5B7C83F00103B0
:109E0C00DBB2002B02D0FFF703FF05E007F032FFB7
:109E1C0002E000BF00E000BF05B05DF804FB00BF2E
:109E2C00782900208C29002082B0034600918DF8FF
:109E3C000730064B01225A74044B1B7A002B0CBFC3
:109E4C0001230023DBB2184602B0704778290020AA
:109E5C0000B583B0034600918DF807309DF80730AC
:109E6C00012B03D09DF80730032B0DD1084B00229A
:109E7C005A749DF80730012B0CBF01230023DAB272
:109E8C00034B1A74FFF7C4FE00BF03B05DF804FB6C
:109E9C007829002000B58BB001900091019B9B8A22
:109EAC00043B0793009A079B1344DA1C079BB2FBF5
:109EBC00F3F38DF81B300198FFF79CFB0590059B85
:109ECC00002B01D1002338E0059B00221A71059B61
:109EDC0001225A71079B9AB2059BDA80059B099364
:109EEC009DF81B30013B0493099B019A1A600023D7
:109EFC0008931DE00198FFF77DFB0390039B002B5B
:109F0C000ED0059B5B790133DAB2059B5A71099B24
:109F1C00039A1A60039B019A1A60039B099304E04D
:109F2C00059800F00EF8002307E0089B0133089316
:109F3C00089A049B9A42DDD3059B18460BB05DF83A
:109F4C0004FB00B58BB00190019B0793079B5B79D9
:109F5C008DF81B30019B08939DF81B30013B05933A
:109F6C000023099305E0089B1B680893099B0133A8
:109F7C000993099A059B9A42F5D3089B1B68049395
:109F8C00019B0893002309930BE0089B1B68039328
:109F9C0008990498FFF776FB039B0893099B013300
:109FAC0009939DF81B30099A9A42EED300BF00BF6B
:109FBC000BB05DF804FB00B585B00190019B0393D9
:109FCC00039B043301211846FFF796FA00BF05B036
:109FDC005DF804FB00B587B00190019B0593059BD0
:109FEC00043301211846FFF79FFA0346039303AB92
:109FFC000493049B1B78002B02D10198FFF7A1FF5F
:10A00C0000BF07B05DF804FB00B58DB00390029162
:10A01C0001920093039B0693069BDB880593039B9D
:10A02C000B93009B1A1D059BB2FBF3F30A93009B49
:10A03C000433059AB3FBF2F2059901FB02F29B1A69
:10A04C000993009A019B1A44059B1344DA1C059B47
:10A05C00B2FBF3F38DF81330069B5B799DF813205C
:10A06C009A420AD92849BA2008F09CF905E00B9BC2
:10A07C001B680B930A9B013B0A930A9B002BF6D19E
:10A08C0000230893059A099BD31A0793079A019BFF
:10A09C00934228BF134607932DE09DF83830002BD0
:10A0AC000BD0029A089BD0180B9A099B13440433CB
:10A0BC00079A194608F0CEFA0AE00B9A099B13444A
:10A0CC00181D029A089B1344079A194608F0C2FA05
:10A0DC00002309930B9B1B680B93019A079BD31AC4
:10A0EC000193089A079B13440893059A019B93428A
:10A0FC0028BF13460793019B002BCED100BF00BF96
:10A10C000DB05DF804FB00BFCC2D030000B587B08B
:10A11C00059004910392029300230093029B039AEF
:10A12C0004990598FFF770FF00BF07B05DF804FBBA
:10A13C0000B583B001900091019B002B03D1104915
:10A14C00502008F02FF9009B002B03D10C49512013
:10A15C0008F028F9019B009A1A60019B1B681A6889
:10A16C00019B5A60019B5A68019B1B685B689A4271
:10A17C0002D1019B00225A6000BF03B05DF804FBC2
:10A18C00502F030000B583B00190019B002B03D12D
:10A19C001449632008F006F9019B1B68002B03D1BE
:10A1AC001049642008F0FEF8019B5B68002B14D06A
:10A1BC00019B5B681A46019B1B689B6813441A46FB
:10A1CC00019B5A60019B5A68019B1B685B689A4211
:10A1DC0004D1019B00225A6000E000BF03B05DF87F
:10A1EC0004FB00BF502F030000B585B0019001980F
:10A1FC0000F00EF80390039B002B01D0039B00E0B2
:10A20C00024B184605B05DF804FB00BFD82F0300C5
:10A21C0086B00190164B0593164B04931FE0049ADD
:10A22C00059BD31ADB10DA0F13445B10DB00059A85
:10A23C0013440393039B1B680293029A019B9A425B
:10A24C0002D9039B04930AE0029A019B9A4203D21F
:10A25C00039B0833059302E0039B5B6804E0059ABB
:10A26C00049B9A42DBD30023184606B0704700BF0C
:10A27C00D83303000035030000B583B00190019B77
:10A28C001B681F2B04D9054940F2C71008F08AF847
:10A29C004FF0A043184603B05DF804FB00350300F3
:10A2AC0000B585B0019001AB1846FFF7E5FF0390B0
:10A2BC00019B012202FA03F31946039800F069F896
:10A2CC0000BF05B05DF804FB00B585B0019001AB93
:10A2DC001846FFF7D1FF0390019B012202FA03F30A
:10A2EC001946039800F05FF800BF05B05DF804FB59
:10A2FC0000B585B0019001AB1846FFF7BDFF039088
:10A30C00039BD3F804350293029BDA43019B012192
:10A31C0001FA03F31A40039BC3F80825019B0122A1
:10A32C009A40029B1A40039BC3F80C2500BF05B052
:10A33C005DF804FB00B583B001900091009B002BED
:10A34C0003D10198FFF7C0FF02E00198FFF7A8FFC7
:10A35C0000BF03B05DF804FB00B585B0019001AB04
:10A36C001846FFF789FF0390039800F00AF802469D
:10A37C00019B22FA03F303F00103184605B05DF8C4
:10A38C0004FB82B00190019BD3F80435184602B04F
:10A39C00704782B001900091019B009AC3F8082588
:10A3AC0000BF02B0704782B001900091019B009AEF
:10A3BC00C3F80C2500BF02B07047000000B585B093
:10A3CC000190019B032B03D911493A2007F0EAFFB6
:10A3DC00104A019B13441B781846FFF7BDFF034638
:10A3EC00002B14BF012300238DF80F309DF80F3084
:10A3FC00002B14BF01230023DBB283F00103DBB27B
:10A40C0003F00103DBB2184605B05DF804FB00BF96
:10A41C00303503009035030000B583B00190019BEB
:10A42C00032B03D90749412007F0BCFF064A019BC7
:10A43C0013441B7800211846FFF77CFF00BF03B0C4
:10A44C005DF804FB303503009035030000B583B094
:10A45C000190019B032B03D90749472007F0A2FF6A
:10A46C00064A019B13441B7801211846FFF762FF33
:10A47C0000BF03B05DF804FB3035030090350300DA
:10A48C0000B583B00023019305E00198FFF7DEFFD0
:10A49C00019B01330193019B032BF6D900BF00BF35
:10A4AC0003B05DF804FB00B583B00023019305E015
:10A4BC000198FFF7B1FF019B01330193019B032B23
:10A4CC00F6D900BF00BF03B05DF804FB00B583B044
:10A4DC000190019B032B03D907495F2007F062FF12
:10A4EC00064A019B13441B781846FFF701FF00BF77
:10A4FC0003B05DF804FB00BF30350300903503005A
:10A50C0082B003468DF807309DF8073003F01F0228
:10A51C0006499DF907305B09012000FA02F220334D
:10A52C0041F8232000BF02B0704700BF00E100E0FB
:10A53C0008B507F0BBFB034683F00103DBB2002B2D
:10A54C0003D10549792007F02DFF00F091FA034B58
:10A55C0000229A7000BF08BD9C350300942900208E
:10A56C0000B583B000230193144B1B78002B02D051
:10A57C00852301931CE0114B00229A600F4B0022A3
:10A58C005A600E4B00221A610C4B0022DA600C4808
:10A59C0000F032FA019007F089FB034683F00103C7
:10A5AC00DBB2002B01D000F04FFA044B01221A70E1
:10A5BC00019B184603B05DF804FB00BF94290020F2
:10A5CC00A5A6020084B00190019B1B680393039B1A
:10A5DC00002B03D0039B1A68019B1A60039B18463F
:10A5EC0004B0704700B583B0164B1B78002B04D118
:10A5FC0015494FF4847007F0D5FE124BDB68002B25
:10A60C0004D1114940F2091007F0CCFE00238DF85B
:10A61C0007300DF107031846FDF7EEF9094BDB681F
:10A62C00013B084AD360074BDB68002B01D1FFF7D5
:10A63C007FFF9DF807301846FDF7F4F900BF03B013
:10A64C005DF804FB942900209C35030000B585B00F
:10A65C0003468DF807309DF80730002B02D10C4BC8
:10A66C00039301E00B4B03930398FFF7ABFF0290AE
:10A67C00029B002B06D0029B5B689DF807201046BE
:10A68C009847F1E700BF00BF05B05DF804FB00BFC1
:10A69C009C290020A429002000B583B003468DF826
:10A6AC0007309DF80730002B05D10A4B01225A7058
:10A6BC000020FFF7CBFF9DF80730012B05D1054B90
:10A6CC0001229A700120FFF7C1FF00BF03B05DF8B3
:10A6DC0004FB00BF9429002000B583B001900091C9
:10A6EC00019B002B05D1054B01225A700020FFF76E
:10A6FC00ADFF00BF03B05DF804FB00BF9429002040
:10A70C0000B585B0034600918DF807309DF80730F1
:10A71C00032B29D0032B35DC002B02D0012B04D0CA
:10A72C0030E00020FFF7ECFE2DE000238DF80F3019
:10A73C000DF10F031846FDF75FF9154B1B7883F0ED
:10A74C000103DBB2002B01D0FFF70AFF104BDB68D3
:10A75C0001330F4AD3600E4B01229A709DF80F30D3
:10A76C001846FDF75FF90EE0094B1B78002B04D15E
:10A77C00084940F2432007F015FE00F065F9FFF799
:10A78C0031FF00E000BF00BF05B05DF804FB00BF67
:10A79C00942900209C35030082B003468DF80730C5
:10A7AC009DF8073003F01F0205499DF907305B093E
:10A7BC00012000FA02F241F8232000BF02B07047DA
:10A7CC0000E100E082B003468DF807309DF80730B9
:10A7DC0003F01F0206499DF907305B09012000FABE
:10A7EC0002F2603341F8232000BF02B0704700BF73
:10A7FC0000E100E082B0034600918DF807309DF92E
:10A80C000730002B0CDA009BDAB20C499DF80730AC
:10A81C0003F00F03043B5201D2B20B441A7609E049
:10A82C00009BDAB206499DF907305201D2B20B44B3
:10A83C0083F8002300BF02B0704700BF00ED00E0BA
:10A84C0000E100E000B583B003460A468DF80730FE
:10A85C0013468DF806309DF80630012B03D99DF870
:10A86C000630032B0BD99DF80630042B03D99DF829
:10A87C000630072B03D908496B2007F093FD9DF890
:10A88C0006209DF9073011461846FFF7B3FF00BFAD
:10A89C0003B05DF804FB00BF0836030000B583B0BD
:10A8AC0003468DF807309DF907301846FFF78AFFED
:10A8BC009DF907301846FFF76FFF00BF03B05DF836
:10A8CC0004FB000082B003468DF807300F4A9DF957
:10A8DC000730002B00DA1F335B115BB252F82320D8
:10A8EC009DF90730594203F01F0301F01F0158BFB7
:10A8FC004B425BB222FA03F303F00103002B14BFAB
:10A90C0001230023DBB2184602B0704700E100E0DF
:10A91C0082B001904FF08042019BC2F8083300BF17
:10A92C0002B0704782B003468DF807309DF80730AF
:10A93C0003F1804301221A6000BF02B0704784B05B
:10A94C000346ADF80630BDF8063003F18043002213
:10A95C001A60BDF8063003F180431B680393039B18
:10A96C0000BF04B0704782B00346ADF80630BDF8A6
:10A97C00063003F180431B68002B14BF0123002316
:10A98C00DBB2184602B0704782B003468DF8073030
:10A99C009DF807304FF0804203F00303C2F81835DE
:10A9AC0000BF02B070474FF08043D3F818341B0C33
:10A9BC0003F00103002B14BF01230023DBB2184664
:10A9CC00704700B583B007238DF807300020FFF7E0
:10A9DC0079FF034683F00103DBB2002B08D09DF80E
:10A9EC00073019460020FFF72DFF0020FFF756FF18
:10A9FC0000BF03B05DF804FB00B585B00190019B6E
:10AA0C00002B03D10E49A22007F0CCFC00230393AA
:10AA1C000C4B1B79002B02D0852303930BE0094BC5
:10AA2C0000229A71074A019B1360064B01221A718E
:10AA3C00044B00225A71039B184605B05DF804FBC9
:10AA4C0040360300A829002008B5074B1B79002BC2
:10AA5C0003D10649BB2007F0A5FCFFF7B2FF00208D
:10AA6C00FFF792FF00BF08BDA82900204036030065
:10AA7C0008B50A4B1B79002B03D10949F22007F0CA
:10AA8C0091FC0C20FFF74EFF00BFFFF78CFF034635
:10AA9C00002BFAD100BF00BF08BD00BFA8290020C1
:10AAAC004036030008B54FF48070FFF75CFF034697
:10AABC00002B14D04FF48070FFF741FF0120FFF7FB
:10AACC0027FF264B5B7983F00103DBB2002B06D00A
:10AADC00224B01225A71214B1B68002098474FF4DE
:10AAEC008270FFF740FF0346002B0AD04FF48270B0
:10AAFC00FFF725FF0220FFF70BFF184B1B68012007
:10AB0C0098474FF48870FFF72EFF0346002B0AD0AE
:10AB1C004FF48870FFF713FF1020FFF7F9FE0F4B6F
:10AB2C001B68022098474FF48670FFF71CFF034602
:10AB3C00002B10D00A4B00221A604FF48670FFF7DE
:10AB4C00FEFE0820FFF7E4FE044B00229A71034B33
:10AB5C001B680320984700BF08BD00BFA829002030
:10AB6C00340C004000B583B00346ADF80630BDF898
:10AB7C000630184600F026F803461B68012B0CBF64
:10AB8C0001230023DBB2184603B05DF804FB00B5CB
:10AB9C0085B00346ADF80630BDF80630184600F017
:10ABAC0011F803461A4600231360BDF80630184608
:10ABBC0000F008F803461B680393039B00BF05B025
:10ABCC005DF804FB82B00346ADF80630BDF80630E4
:10ABDC0003F1804303F5C043184602B070470000F0
:10ABEC0082B00190034BD3F80423019B1340184609
:10ABFC0002B070470060004082B00190054A019B92
:10AC0C0003F5A27352F823301B0A03F01F031846F6
:10AC1C0002B070470060004082B00190064A019B70
:10AC2C0003F5A27352F823301B0C03F00303DBB2C1
:10AC3C00184602B0704700BF0060004000B583B0FA
:10AC4C000190019B1B681F2B04D9054940F2C710CA
:10AC5C0007F0A8FB4FF0A043184603B05DF804FBC7
:10AC6C00DC36030000B585B001900B468DF803303F
:10AC7C0001AB1846FFF7E2FF0390019A039B02F524
:10AC8C00E07253F82230019A23F44031039B02F511
:10AC9C00E07243F82210019A039B02F5E07253F81C
:10ACAC0022309DF8032012041146019A1943039B8C
:10ACBC0002F5E07243F8221000BF05B05DF804FB0A
:10ACCC0000B585B0019001AB1846FFF7B7FF0390B4
:10ACDC00019A039B02F5E07253F822301B0C03F02F
:10ACEC000303DBB2184605B05DF804FB82B001909B
:10ACFC00019BD3F81035184602B0704700B587B0E9
:10AD0C000390029101924FF0A0430493039A029B8B
:10AD1C001344012B04D9124940F2DF2007F042FB07
:10AD2C00039B059311E0059B9B0018336B4453F870
:10AD3C00083C1846FFF7DAFF0246019B1A60019B9C
:10AD4C0004330193059B01330593039A029B13442F
:10AD5C00059A9A42E7D300BF00BF07B05DF804FB29
:10AD6C00DC36030084B001900091009B0393019B9F
:10AD7C00DB080293019B03F0070301930122019B63
:10AD8C0002FA03F30399029A0A4412781340184604
:10AD9C0004B0704784B001900091009B0393019B19
:10ADAC00DB080293019B03F007030193039A029BB8
:10ADBC0013441B785AB20121019B01FA03F35BB2D5
:10ADCC00134359B2039A029B1344CAB21A7000BFC0
:10ADDC0004B0704782B00190044A019B1344303395
:10ADEC0093F90030184602B0704700BFB02900201C
:10ADFC0082B00190034A019B52F82330184602B0EE
:10AE0C00704700BFB029002000B595B00023109307
:10AE1C00002303934FF48073ADF84C30012312934D
:10AE2C0000230F9321E0BDF84C301846FFF79AFE33
:10AE3C000346002B0ED01298FFF7D2FE0346002BD0
:10AE4C0008D0BDF84C301846FFF7A1FE109A129BA3
:10AE5C0013431093129B5B001293BDF84C300433D8
:10AE6C00ADF84C300F9B01330F930F9B072BDAD9A6
:10AE7C004FF4BE70FFF776FE0346002B0DD04FF457
:10AE8C00BE70FFF784FE109B43F00043109303AB9E
:10AE9C001A4601210020FFF731FF109BDBB2002B7B
:10AEAC0029D00123129300230F9321E0129A109BB7
:10AEBC001340002B16D00F98FFF79EFE0D900F98A5
:10AECC00FFF7AAFE03468DF833300F98FFF790FF7B
:10AEDC000B900B9B002B05D09DF833200B9B114640
:10AEEC000D989847129B5B0012930F9B01330F93A5
:10AEFC000F9B072BDAD9109B002B80F2EE800023DE
:10AF0C008DF84F3000230293002311930AE0119B1C
:10AF1C009B0050336B444FF0FF3243F84C2C119B89
:10AF2C0001331193119B002BF1D000238DF84F307E
:10AF3C0000230F9378E06B4A0F9B1344503393F923
:10AF4C0000308DF82B309DF82B3023F0C003099383
:10AF5C00644A0F9B1344503393F90030B3F1FF3F15
:10AF6C005FD001AB19460998FFF7FCFE0346002B96
:10AF7C0057D09DF82B309B098DF823300998FFF79B
:10AF8C0029FF03461846FFF733FF0790079B002B5A
:10AF9C0003D19DF82330032B43D19DF82330032B91
:10AFAC0004D102AB19460998FFF7F4FE0998FFF794
:10AFBC0087FE03468DF81B3003AB19460998FFF743
:10AFCC00D1FE0590059B002B03D09DF81B30022B66
:10AFDC0006D0059B002B24D19DF81B30032B20D1D0
:10AFEC009DF82330032B13D19DF81B30022B01D17C
:10AFFC00032300E002238DF813309DF8133019461B
:10B00C000998FFF72FFE9DF84F3001338DF84F3024
:10B01C00079B002B05D09DF82320079B1146099810
:10B02C0098470F9B01330F930F9B032B83D99DF8EC
:10B03C004F30002B4CD001238DF83B306B461A4619
:10B04C0001210020FFF75AFE0023119314E0119BFD
:10B05C009B0050336B4453F8502C119B9B00503386
:10B06C006B4453F8443C9A4203D000238DF83B3098
:10B07C0005E0119B01331193119B002BE7D09DF838
:10B08C003B30002B03D000238DF84F3020E0002301
:10B09C0011931AE0119B9B0050336B4453F8502CC6
:10B0AC00119B9B0050336B4443F8442C119B9B0029
:10B0BC0050336B4453F8482C119B9B0050336B441A
:10B0CC0043F84C2C119B01331193119B002BE1D0B5
:10B0DC009DF84F30002B7FF428AF00BF15B05DF802
:10B0EC0004FB00BFB029002008B5064B1B68002BE1
:10B0FC0003D10549512007F055F9024B1B689847BD
:10B10C0000BF08BD0C2A00208437030084B00190D6
:10B11C000B46ADF80230BDF80230019A1344002200
:10B12C001A60BDF80230019A13441B680393039B09
:10B13C0000BF04B0704782B001900B46ADF80230EE
:10B14C00BDF80230019A13441B68002B14BF012375
:10B15C000023DBB2184602B0704782B00190009118
:10B16C00019BD3F80423009B1340002B14BF012335
:10B17C000023DBB2184602B0704782B00190019BED
:10B18C009BB250339BB29B009BB2184602B07047E7
:10B19C0082B001904FF48032019B02FA03F31846FF
:10B1AC0002B0704700B587B00390029113468DF83A
:10B1BC00073000238DF8173030E09DF81730184613
:10B1CC00FFF7DBFF0346ADF814309DF81730184637
:10B1DC00FFF7DEFF0490BDF8143019460398FFF713
:10B1EC00AAFF0346002B14D004990398FFF7B5FF70
:10B1FC000346002B0DD0BDF8143019460398FFF709
:10B20C0085FF029B1B68029A5168BDF814201046FA
:10B21C0098479DF8173001338DF817309DF817209B
:10B22C009DF807309A42C8D300BF00BF07B05DF845
:10B23C0004FB000008B5042202490348FFF7B2FFE3
:10B24C0000BF08BD142A00200080004008B504226D
:10B25C0002490348FFF7A6FF00BF08BD202A0020C3
:10B26C000090004000B583B00C4B1B78002B0FD026
:10B27C000023019308E0019B022B02D00198FFF7F9
:10B28C00E5F8019B01330193019B032BF3D901E0FA
:10B29C00FFF7F6F800BF03B05DF804FB342A00207A
:10B2AC002DE9D04F92B003468DF83F300023119317
:10B2BC0000231093C94B1B78002B04D0C74A0023E2
:10B2CC001370FFF7CFFF9DF83F30172B00F2398238
:10B2DC0001A252F823F000BF45B3020053B30200A1
:10B2EC0053B30200EFB302008BB4020007B50200A7
:10B2FC009BB50200BBB50200CBB50200F5B5020050
:10B30C0013B6020031B602004FB602005DB6020061
:10B31C005DB602005DB602005DB602005DB60200CD
:10B32C00F1B60200FFB6020013B7020027B7020005
:10B33C0041B7020041B70200FFF794FFA84A9DF8FD
:10B34C003F301370FEE10020FFF738F80346002B66
:10B35C000DD00020FFF77AF89DF83F30022B02D178
:10B36C004FF4E16301E04FF47A6310930BE000209B
:10B37C00FFF752F89DF83F30022B01D1C82301E0B2
:10B38C004FF4C8731093964A9DF83F301370954C48
:10B39C00109B0022009301924FF000024FF000032B
:10B3AC00DDE900673946CB03314643EA5143314668
:10B3BC00CA0312F5FA71029143F1000303934FF49F
:10B3CC007A724FF00003DDE9020107F0ABF8024698
:10B3DC000B461346002219462046FCF745FA1190FD
:10B3EC00B0E10020FEF7EAFF0346002B0DD0002051
:10B3FC00FFF72CF89DF83F30032B02D14FF4487324
:10B40C0001E04FF47A6310930BE00020FFF704F88F
:10B41C009DF83F30032B01D1C82301E04FF4C873D2
:10B42C0010936F4A9DF83F3013706E4C109B0022A6
:10B43C00049305924FF000024FF00003DDE904671E
:10B44C003946CB03314643EA51433146CA0312F520
:10B45C00FA71069143F1000307934FF47A724FF09F
:10B46C000003DDE9060107F05DF802460B461346C2
:10B47C00002219462046FCF7F7F9119062E10020F2
:10B48C00FEF79CFF0346002B06D00020FEF7DEFFE4
:10B49C004FF47A63109305E00020FEF7BDFF4FF4E4
:10B4AC00C87310934E4A9DF83F3013704D4C109B4F
:10B4BC0000229A4693464FF000024FF000034FEAE9
:10B4CC00CB3343EA5A434FEACA3212F5FA71089168
:10B4DC0043F1000309934FF47A724FF00003DDE956
:10B4EC00080107F01FF802460B46134600221946C6
:10B4FC002046FCF7B9F9119024E10020FEF75EFF1D
:10B50C000346002B0CD00020FEF7A0FF9DF83F3027
:10B51C00052B01D1C82301E04FF47A6310930BE0A3
:10B52C000020FEF779FF9DF83F30052B01D1C82391
:10B53C0001E04FF4C8731093294A9DF83F30137003
:10B54C00284C109B0022984691464FF000024FF079
:10B55C0000034FEAC93343EA58434FEAC83212F5A5
:10B56C00FA710A9143F100030B934FF47A724FF086
:10B57C000003DDE90A0106F0D5FF02460B4613462F
:10B58C00002219462046FCF76FF91190DAE00020F2
:10B59C00FEF79CFF124A9DF83F301370114B0022AE
:10B5AC0040F6CD411846FCF75FF91190CAE0002037
:10B5BC00FEF732FF0A4A9DF83F301370C2E0074B8A
:10B5CC0001221A700120FEF781FF064B002240F683
:10B5DC00CD411846FCF748F91190B3E02D2A002014
:10B5EC002C2A0020382A0020594B01221A700120E5
:10B5FC00FEF76CFF574B00224FF480411846FCF7C6
:10B60C0033F911909EE0524B01221A700120FEF783
:10B61C005DFF504B002240F6CD411846FCF724F953
:10B62C0011908FE04A4B01221A700120FEF74EFF59
:10B63C00484B00224FF480411846FCF715F9119045
:10B64C0080E0FEF730FF444A9DF83F30137079E0FC
:10B65C00424B1846FCF73AF911909DF83F30C3F174
:10B66C0011031093109B002B35D0119B002B32D162
:10B67C00109B012B28D9394C109B9BB21A46C8231E
:10B68C0002FB03F3DA171E4617464FF000024FF089
:10B69C000003FB0343EA5643F20312F5FA710C91D3
:10B6AC0043F100030D934FF47A724FF00003DDE980
:10B6BC000C0106F037FF02460B46134600221946D2
:10B6CC002046FCF7D1F811900220FEF7A5FE244B82
:10B6DC0001221A7036E00220FEF7B8FE204B002241
:10B6EC001A702FE0FFF7BEFD1B4A9DF83F30137018
:10B6FC0028E0FFF7B7FD0020FEF78EFE164A9DF8F6
:10B70C003F3013701EE0FFF7ADFD0120FEF784FE05
:10B71C00114A9DF83F30137014E0FFF7A3FD002091
:10B72C00FEF77AFE0120FEF777FE0B4A9DF83F30BC
:10B73C00137007E0FEF7B7FE074A9DF83F30137011
:10B74C0000E000BF119B184612B0BDE8D08F00BFBF
:10B75C002D2A0020382A00202C2A0020582A0020CC
:10B76C00342A002000B585B003468DF8073000233D
:10B77C000393084B1B6803F00103002B05D09DF8C5
:10B78C0007301846FFF78CFD0390039B184605B055
:10B79C005DF804FB302A002084B001900B468DF834
:10B7AC00033013468DF8023000230393019B032BC7
:10B7BC003CD89DF80230012B0BD19DF80330012BA6
:10B7CC0004D1019BDBB20E33DBB200E000238DF819
:10B7DC0002309DF80330022B0FD0022B23DC002B00
:10B7EC0016D0012B1FD11449019A13465B00134448
:10B7FC000B449DF802201A701AE00F49019A134667
:10B80C005B0013440B4401339DF802201A700FE0C7
:10B81C000949019A13465B0013440B4402339DF80B
:10B82C0002201A7004E00723039301E0072303931B
:10B83C00039B184604B07047782A002000B583B0EB
:10B84C00012200210020FFF7A7FF0190019B002B94
:10B85C0004D0019B072B01D0019B1CE00722022185
:10B86C000120FFF799FF0190019B002B04D0019B55
:10B87C00072B01D0019B0EE0042202210020FFF7D0
:10B88C008BFF0190019B002B04D0019B072B01D057
:10B89C00019B00E00023184603B05DF804FB00B5E3
:10B8AC0083B0012202210020FFF776FF0190019B5B
:10B8BC00002B04D0019B072B01D0019B1CE007221D
:10B8CC0002210120FFF768FF0190019B002B04D09F
:10B8DC00019B072B01D0019B0EE00A2200210020C6
:10B8EC00FFF75AFF0190019B002B04D0019B072B03
:10B8FC0001D0019B00E00023184603B05DF804FB67
:10B90C0000B585B001900091019B1B88102B02D0D3
:10B91C00112B18D02FE01A4B1B68002B0DD1FFF701
:10B92C008DFF0390039B002B07D0164B1B68002B3D
:10B93C0003D0144B1B6803989847114B1B680133B9
:10B94C000F4A136017E00E4B1B68013B0C4A136047
:10B95C000B4B1B68002B0DD1FFF7A1FF0390039B32
:10B96C00002B07D0074B1B68002B03D0054B1B6823
:10B97C000398984700BF00BF05B05DF804FB00BFFB
:10B98C00882A0020842A002008B5054B1B881B043C
:10B99C0043F0030303491846FAF71EFFFEE700BF06
:10B9AC0038220020383A030086B0039001921A46E0
:10B9BC000B46ADF80A3013468DF80930039B002B6B
:10B9CC0002D0019B002B01D100233CE00023ADF8F9
:10B9DC0016300CE0BDF81630039A13441B789AB25B
:10B9EC00BDF8163013449BB20133ADF81630019BF1
:10B9FC001B88BDF816209A4209D3BDF816300133C6
:10BA0C00039A13441B789DF809209A4205D0BDF87F
:10BA1C001620BDF80A309A42DCD3BDF81620BDF8CA
:10BA2C000A309A4201D300230DE0BDF816300233E0
:10BA3C009AB2019B1A80BDF81630039A13441B78F6
:10BA4C009BB2013B9BB2184606B0704700B585B05F
:10BA5C0001900B46ADF8023013468DF801300023EF
:10BA6C00ADF80C309DF8013003AABDF80210019816
:10BA7C00FFF79AFF0346ADF80E30BDF80E30002BE1
:10BA8C0001D1002304E0BDF80C301A46019B13448D
:10BA9C00184605B05DF804FB72DF704700BF18460E
:10BAAC0073DF704700BF184682B00190019B93F87A
:10BABC00B430184602B0704784B001900023039351
:10BACC000AE0019A039B13441B78002B01D001233D
