:020000022000DC
:1060000000000120396202009162020093620200E6
:10601000956202009762020099620200000000008F
:106020000000000000000000000000009B62020071
:106030009D620200000000009F620200A162020057
:1060400071940200A7620200A9980200AB620200EC
:10605000AD620200AF62020031970200B36202003B
:10606000B5620200B7620200B9620200BB620200C0
:10607000BD620200BF620200C1620200C362020090
:10608000C5620200D16F0200C9620200CB62020049
:106090006D700200CF620200C1DE0200D362020016
:1060A000D5620200D7620200D9620200DB62020000
:1060B000DD620200DF620200A3620200A36202004E
:1060C000E1620200E3620200E5620200E7620200B0
:0C60D000E9620200EB620200ED620200D7
:1060DC00354936480A1A02D0072291438D46344975
:1060EC0034480A1A06D00722914381F30988022208
:1060FC0082F3148830483149314A00F044F8314871
:10610C003149324A00F03FF831483249324A00F006
:10611C003AF832483249334A00F035F832483349BC
:10612C00334A00F030F833483349344A00F02BF846
:10613C0033483449344A00F026F8344834490022B4
:10614C0000F02CF833483449002200F027F833488B
:10615C003349091A082902DB002202604160314AE6
:10616C0090471F481F49884205D00268043003B489
:10617C00904703BCF7E700208646EC460020002140
:10618C00294A9047FEE7884207D0521A05D0037877
:10619C0001300B700131013AF9D17047884202D0BD
:1061AC0002700130FAE770470000012000E0002087
:1061BC000000012000000120ECF8020074220020F5
:1061CC00D4220020F0620200F0620200D0E602004D
:1061DC00ECF80200742200207422002044E8020033
:1061EC0044E8020044E8020044E8020044E80200EB
:1061FC0044E8020044E8020044E80200EAF8020025
:10620C004CF90200D4220020D4220020D4220020F9
:10621C004C3300204C3300204C3300204C330020F6
:10622C004C5300205D620200A9A002000F484FF001
:10623C000701884385460E4880470E48016841F4A3
:10624C0070010160BFF34F8FBFF36F8FFFF740BF3B
:10625C0009480A490A4A884207D0521A05D00378DD
:10626C0001300B700131013AF9D170470000012067
:10627C0065DA020088ED00E0F0E702002022002041
:10628C0074220020FEE7FEE7FEE7FEE7FEE7FEE7EE
:10629C00FEE7FEE7FEE7FEE7FEE7FEE7FEE7FEE7CA
:1062AC00FEE7FEE7FEE7FEE7FEE7FEE7FEE7FEE7BA
:1062BC00FEE7FEE7FEE7FEE7FEE7FEE7FEE7FEE7AA
:1062CC00FEE7FEE7FEE7FEE7FEE7FEE7FEE7FEE79A
:1062DC00FEE7FEE7FEE7FEE7FEE7FEE7FEE7FEE78A
:0462EC00FEE700BF0A
:1062F0007047000007B5044B0093044A402300F0A8
:1063000032F803B05DF804FB11630200D5220020CF
:106310002DE9F84388461446B2B10F4B0F4E0325C2
:10632000002743F00109224608EB0701002004F092
:106330005DF80744241A48B933782BB14FF47A40FA
:10634000C847013D02D13570BDE8F88301233370A1
:10635000002CE8D1F8E700BF50E80200D42200206A
:10636000704704F073B8F0B595B01D461646084660
:106370000C4602F03CFE1A9B0D93CDE90865002502
:106380002B46082205A920460A958DF82C500C951D
:1063900002F068FE079B0293069B03939DF814305E
:1063A0008DF8115003F00302012A1DD1BDF814200D
:1063B000059DC3F3C203C2F383168DF81030B200FB
:1063C00008230EA9204602F04DFEC5F3952508AB23
:1063D0000093324602AB0EA9284600F073FB20461C
:1063E00002F009FE15B0F0BD022AF8D1BDF8165032
:1063F000C3F3C203C5F389158DF810300827082DA3
:106400002E4628BF08263B4632460EA9204602F0FB
:1064100029FEAD1B08AB02AA31460EA8374400F096
:10642000B5FB002DEBD1DAE710B5054CFFF799FF6E
:106430000421204600F0B4FA0123637210BD00BFAE
:1064400074220020037813F0030F03F0040202D03B
:1064500012B910467047B2B103F00303012B03D009
:10646000022B09D0012070470A6800880232C0F36D
:10647000831002440A60F5E70B684288023303EB9D
:1064800092130B60EEE70B684288013303EB921323
:106490000288F4E72DE9F04FDFF830A187B00F460E
:1064A00000230446861C0DF1070015468DF80730C1
:1064B00000F0D2FFDAF800103960DAE90132134453
:1064C00001335B1A0AF21C470AF583690AF2144881
:1064D000B3421CD30020002D73D004F00F039B01A6
:1064E00043F0050363F30F00DAF80020DAF8083010
:1064F0001340033332444AF823009DF80700CAF8DA
:10650000002000F0CDFF012007B0BDE8F08F012191
:10651000384602F022F8484602F03AF8404602F0C7
:1065200037F8DAF80400DAF808B0029000EA0B0055
:1065300003300AEB800002A9FFF784FF029B50BBE7
:106540000BEA03020AEB820203F1020CD268039207
:10655000013303EA0B0B0AEB8B0B02F00302012A57
:10656000DBF80C10CDF808C023D0022A16D08346E1
:10657000404602F010F810B1029BCAF804305946A8
:10658000384601F0EAFFDAE901231344DAF8002083
:1065900001339B1A9CE70BEA0300C9E7BDF80E30F4
:1065A000C3F3891303334FEA114B0CEB93030293AC
:1065B000DEE7BDF80C30C3F383134FEA114B63449D
:1065C000F5E7A40544F006008EE700BFE8230020AD
:1065D00008B50E4B0E48FF229A600022C3F818241B
:1065E000C3E90022C3F8142483F8202402F0B8FC85
:1065F00038B9084A084B09499B1ADB0802469A42F7
:1066000000D108BD21F822200132F8E7E82300205C
:10661000B0E7020030E70200B0E7020020220020CD
:1066200030B50A4C71B10A4A0A49121BD20800233C
:106630009A4201D1002030BD31F82350854202D06A
:106640000133F5E7034654F83300F4E730E702007E
:10665000B0E7020022220020094B013903EBC00001
:10666000032909D8DFE801F00A0204060420704774
:1066700000797047407970470020704702207047CA
:1066800030E70200034BD3E90030C31A58425841A7
:10669000704700BFE82300202DE9F04387B0FFF7E3
:1066A000F1FF0646002840F0FE80804CC4F8180434
:1066B000BFF34F8F6368A56802932B40033304EB4D
:1066C000830002A9FFF7BEFE029A0746002865D1A3
:1066D00005EA020304EB8303911C0132DB68039398
:1066E0002A4004EB820203F00303D2680291022BDA
:1066F00004926BD1BDF80E306D48C3F38918B8F120
:10670000500FC14628BF4FF0500909F1080169F345
:106710008F13C1F30901ADF80E3002F039FC0646C3
:10672000002800F0AE8002F062FC3B46082203A97C
:10673000304602F06EFC029925EA01020132B9EB03
:10674000820F4FEA82033AD95FFA89F99BB3294055
:10675000DDB2A9EB050903315FFA89F7A946554D6A
:1067600004EB810108234A46304602F052FC45B151
:1067700009F108095FFA89F33A462946304602F0E2
:1067800048FC029B08F1030803EB98030293D4F83A
:106790001834002B4FD1D4F810545DE02368934295
:1067A00004D86360304607B0BDE8F0832A40033266
:1067B00004EB820085E73F491D461F46D2E729408A
:1067C000033108234A4604EB8101D7E7012B58D156
:1067D000BDF80C303648C3F38311062928BF0621C3
:1067E00061F38913023101F00F018900ADF80C301B
:1067F00002F0CEFB0646002843D002F0F8FB3B46F1
:10680000082203A9304602F004FCBDF80C20C2F3B4
:106810008312BB00974203F10803B8D202994A1CC5
:1068200029400331029204EB81010422304602F038
:10683000F0FB0137E9E7304602F0DDFBFFF722FF0E
:1068400080F00100C6B2ADE76B7A23B12B68314608
:106850001B68284698476D68002DF5D1304602F038
:10686000CAFB0DF107008DF8075000F0F5FDD4F8D4
:1068700018340BB9029B63609DF8070000F010FE0E
:10688000DCE7D4F8104444B90B4B0C4918880004D9
:1068900040F0020000F060F8D0E7236820469B68D3
:1068A00098476468EFE700267CE700BFE8230020F4
:1068B000B0E70200F42300203422002064E8020044
:1068C0002DE9F74F224E04460F46924601A90122B8
:1068D0001846D6F808909B46FFF7DCFD20B3019DD3
:1068E0004FF00008AA1CD84508EB020126D1194830
:1068F000002101F0EBFD80F31000000440EA144099
:10690000E4006B1C04F0380403EA090305EA0905F6
:1069100044F0010406EB8303033544EA881444EA97
:106920008724D86046F8254096F820341BB1FFF73D
:10693000B3FE0028FBD103B0BDE8F08F09EA0101E6
:1069400006EB81015AF82830CB6008F10108CAE74C
:10695000E82300200428002000231A46FFF7B0BFD8
:1069600007B50123019201AAFFF7AAFF03B05DF862
:1069700004FB07B5CDE9002302236A46FFF7A0FF19
:1069800003B05DF804FB1FB5CDE90123069B03931B
:1069900001AA0323FFF794FF05B05DF804FB000094
:1069A00030B50E4CD4F8102403460020114629B906
:1069B000187242B9C4F810345A6030BD0D7A85425D
:1069C00005D04968F3E7516859605360F5E7013035
:1069D0000A28EBD14FF0FF30EFE700BFE82300209B
:1069E00038B5074B0125D3F8104483F8205404B977
:1069F00038BD2368657220465B6898476468F6E78F
:106A0000E823002030B5C38885B004460D4633B175
:106A1000144A00921449154A284601F01FFE217AB3
:106A200005291DD0637A4BB1A088FFF715FE104BE6
:106A3000104953F82020284601F010FE227A0E4B10
:106A4000A08853F8222003920021FFF7E9FD039A62
:106A50000A490346284605B0BDE8304001F0FEBDB6
:106A600005B030BDACE8020094E802008CE80200FA
:106A700018E90200B1E802003CE90200B4E80200B3
:106A800007B503460846197A052911D05B7A2BB160
:106A9000094A0A49019001F0E1FD01980849019075
:106AA00001F0DCFD019803B05DF804EB01F0CBBD13
:106AB000002AF8D0F2E700BFACE80200B1E802001B
:106AC00097F602002DE9F04385B01F460C9D002388
:106AD00095F80C902B7306460C469046294638468E
:106AE000FFF790FFB8F1060F09D8DFE808F00412AD
:106AF000181F283340003146284601F0AFFD002220
:106B000029463846FFF7BCFF85F80C9005B0BDE874
:106B1000F08322683146284601F0A0FDEFE7D4E972
:106B200000233146284601F099FDE8E7A368009369
:106B30003146D4E90023284601F090FDDFE7E36801
:106B40000193A36800933146D4E90023284601F05D
:106B500085FDD4E723690293E3680193A36800935A
:106B60003146D4E90023284601F078FDC7E7636980
:106B7000039323690293E3680193A368009331466A
:106B8000D4E90023284601F069FDB8E708292DE97A
:106B9000F74F80460E4617461C4639D8002593F815
:106BA0000C901D7319461046FFF72CFFDFF880A0EC
:106BB000DFF880B0AE422ED918F80520594620469D
:106BC00001F04CFD0135082DF4D11849DFF868A01B
:106BD000DFF868B0204601F041FD0025AE421FD924
:106BE00018F805200192104607F082FC0028019A4F
:106BF000594608BF2E22204601F030FD0135082DF0
:106C0000ECD1012221463846FFF73AFF84F80C9078
:106C100003B0BDE8F08F5146204601F01FFDD1E7DB
:106C20005146204601F01AFDE8E700BFC8E802001F
:106C3000C4E80200BEE80200C6E80200CAE802009A
:106C40002DE9F84F2F4F304E4FF000082F4B1B7897
:106C50005FFA88F5AB4201D8BDE8F88FD7F800900D
:106C600019F835000124A0F12002C0F1200304FA34
:106C700002F224FA03F31343D6E9001204FA00FCEB
:106C800001EA0C0B02EA030E5BEA0E0E09EBC50AE1
:106C900035D021EA0C0122EA0303C6E9001302F011
:106CA0003DFD024619F83500194DA0F12003C0F151
:106CB000200124FA01F104FA03F30B43D5E900C1E2
:106CC000C0F120050B40A0F1200122FA05F5844017
:106CD00002FA01F1294304EA0C0402FA00F58B429E
:106CE00008BFAC420BD1DAF8043043B19AF8011076
:106CF0004C1E614261418D1A69426941984708F111
:106D00000108A3E748280020402800200C28002084
:106D100038280020F8B507461E4800F08DFBB8BBA8
:106D200001251D4EA7F12004C7F1200325FA03F326
:106D300005FA04F41C43D6E90023BD4002EA05002D
:106D400003EA040101431DD1384602F0E7FC134B6E
:106D5000D3E9001288B129432243C3E90012D6E9DE
:106D600000232A432343C6E900230D4B0948196831
:106D70000022BDE8F84000F017BB21EA050122EA35
:106D80000402EAE722EA050223EA0403C6E9002333
:106D9000F8BD00BF1428002040280020382800201B
:106DA00010280020042A2DE9F34105460C4616461A
:106DB0003BD902F0EBFBE8B11D4B1E491D601E4B99
:106DC000DFF888801C701D4B00221E600023C1E983
:106DD00000231B49C1E90023013CE4B2002603273C
:106DE000FF2C0ED1174A1848002102B0BDE8F0412F
:106DF00000F0C8BA02F098FB0028DDD002B0BDE870
:106E0000F08105EBC40315F834009B788DF806601B
:106E1000424601A98DF804708DF8053002F0C0FBE0
:106E2000013CE4B20028DBD0E8E70720E6E700BF3A
:106E300048280020382800200C2800201028002096
:106E400040280020416C020050E90200156D02004C
:106E500070B5084D084E00242B789C4201D30020C9
:106E600070BD3368012113F8340002F011FC0134C5
:106E7000F2E700BF0C280020482800201FB50021A1
:106E8000039001AA44F20100CDE9011100F004F8D9
:106E900005B05DF804FB000010B572B6FFF7A0FD69
:106EA000FFF7FAFB0028FBD1104C114920880004A1
:106EB00040F00100FFF750FD0E4BD3F8F030DB0738
:106EC00000D500BE20880C49000440F00200FFF706
:106ED00043FDBFF34F8F0749084BCA6802F4E062D5
:106EE0001343CB60BFF34F8F00BFFDE73422002078
:106EF00054E9020000ED00E060E902000400FA0538
:106F0000094B5A7899780132D2B2914208BF0022D7
:106F1000197891421FBF02705878182202FB003086
:106F200014BF0430002070474C28002073B505467C
:106F300000240DF107000E468DF8074000F08CFA92
:106F40000DF10600FFF7DCFF90B10670094B9DF8CC
:106F5000062045605A709DF8070000F0A1FA24B998
:106F6000054B4FF48012C3F80021204602B070BDDB
:106F70000424F0E74C28002000E100E0024B4FF42D
:106F80003C6043F00103184770E9020038B50C4B30
:106F90000C4C4FF40032C3F8802001254FF48033AD
:106FA000C4F84833C4F808336560FFF7E7FF064BC1
:106FB000A56000241C60FFF7E1FF044B1C7038BD86
:106FC00000E100E00010014068290020592900205C
:106FD000F8B51F4B1F491B680025C1F84051C1F887
:106FE0004451C1F84851C1F84C51C1F80051C1F8A1
:106FF00004514BB3D1F8044517490968641A24F0C9
:107000007F442F461A68A24209D8A41A15441A7C54
:10701000DE691AB1D3E905201F749047AEB90F4A53
:107020000F4B11781B788B4205D10133DBB2022B59
:1070300008BF0023137012780A4B43F822500A4B02
:107040004FF48012C3F80021F8BD3346DAE700BFE1
:107050006C290020001001406829002065290020CB
:10706000642900205C29002000E100E02DE9F04FB8
:10707000A14AA24913780978A14D994285B03CD024
:107080000133DBB2022B08BF002313709D49127835
:107090009D4B0F6853F822003B1823F07F430022DA
:1070A0000B602B6816461446944613B942B12B6008
:1070B00006E0196881420ED902B12B60091A1960E5
:1070C00001272B68DFF848A201934FF00008BEB9F2
:1070D000DFF844B260E0401A0C44D968D3F81CE0F1
:1070E000C3F800C031B13A1922F07F42C3E901214F
:1070F000DE611E4673460122D7E700263746E0E7E9
:107100003446F6697F4B60681B68DFF810C2A168DF
:10711000C21A22F07F42624500F2A6800A44226031
:10712000012222742A680023C4E90133E361002AA2
:1071300040F0A3802C60CAE79BF802105A1CD2B220
:1071400091428BF8002004BF00228BF80020182207
:1071500002FB03B32A6819799C68022975D00329B8
:107160007FD0012918D1207CB0B9D3E90312A260E5
:107170005A69E2609A69654BA2611A78002A18BFC1
:1071800001466160BEE78C4200F094808946C9697F
:107190000029F8D1002323749BF800309BF80120CC
:1071A0009A42C9D12B68B8F1000F04D1019A9A42D2
:1071B00001D1002F43D0002B79D0D3F800A0544D3B
:1071C000504BD5F804751C68DFF854813E1B98F8C5
:1071D000003026F07F4603369BB94FF48033C5F864
:1071E0004433C5F804334B4B4FF400324FF00109E0
:1071F000C3F880211A60C5F80090FFF7BFFE88F839
:107200000090B2452CBF5444A41924F07F44C5F823
:107210004045D5F80435DB1B23F07F43E41B0333E3
:1072200024F07F44A3420AD9D5F80435C5F8403587
:10723000FFF7A4FE374B4FF40032C3F80021334B65
:1072400000221A7005B0BDE8F08F114691469FE705
:107250001174D2690123002AFAD1002B9CD02A6034
:107260009AE700231946F6E71B1A23F07F438B4267
:1072700034BFCB1A0023236052E721681368994278
:1072800013D85B1A1360E26154E7091AD8691A46E9
:1072900038B1034618688842F7D3401A1860184678
:1072A00013462160E061DC6111E71346F2E7FFF766
:1072B0006DFEC4E74C4511D1D3692B6073B9DFF87B
:1072C00044E00120CDE90212CAF80800CEF80030EF
:1072D0000E4B1870FFF752FEDDE902120B68C96908
:1072E000C9F81C1011B1086803440B602B68934265
:1072F00018BF4FF001084DE76429002065290020E0
:107300006C290020682900205C29002058290020D1
:107310000010014000E100E04C280020FEFF7F004B
:107320005929002008B5FFF731FE104B00200B2231
:1073300018809A700E4B18600E4B18700E4B187018
:107340000E4B4FF48012E021C3F8802183F8141310
:107350001A6002F18042A2F56F22C2F8080583F894
:107360001113074BD2F804251A6008BD4C280020E1
:107370006C290020642900206529002000E100E03C
:1073800068290020074B9B784BB132B128B10368C4
:10739000187C20B959745A6170470720704708203B
:1073A000704700BF4C2800202DE9F743DFF88480A8
:1073B00098F8023005460E461746ABB3A0B3042931
:1073C00030D9436983B3437C0024012B0DF10700BE
:1073D0000CBF8946A1468DF8074000F03DF80DF13D
:1073E0000600FFF78DFDD8B1012303700F4B4560F8
:1073F000D3F80435C0E90497C0E902369DF8063099
:1074000088F801309DF8070000F04AF824B9084BCD
:107410004FF48012C3F80021204603B0BDE8F0838A
:107420000424EFE70724F7E70824F5E700100140FC
:1074300000E100E04C280020064A92783AB130B1D1
:10744000426922B1002202740221FFF76FBD0820B9
:10745000704700BF4C28002070B5EFF3108672B65D
:107460000C4A946801239CB993600B4B0B4DD3F8E5
:10747000801029401160C3F88050D3F88410516007
:107480004FF0FF32C3F88420047006B962B670BDB5
:107490000370FAE77029002000E100E0FC06FFBD60
:1074A000084B9A6810B55AB150B9EFF3108172B613
:1074B000054A1C6814605C685460986001B962B643
:1074C00010BD00BF7029002000E100E070B5064D3E
:1074D0000646002455F8043B0BB13046984701346A
:1074E000042CF7D170BD00BF8829002043880333E6
:1074F00000EB8303994209D382884FF6FF739A42C7
:1075000006D00088B0FA80F040097047022070472A
:1075100001207047033080B240F2FD33984230B50D
:107520001FD8124B1A783AB91C895D892C4404443F
:10753000A4B2B4F5806F0AD31A7DA2B99A8BDC8B02
:107540002244024492B2B2F5806F0CD201220A802A
:107550001446142202FB04335A8910445881002037
:1075600030BD0920FCE70720FAE700BFBC29002056
:107570000B4A0C495388142000FB0311CB6833B924
:107580000420496810700122074801F0DDBA07495C
:107590000523137002238B80012209680023F3E77F
:1075A000A0290020BC29002060220020742A00208D
:1075B00007B5002305490093054A096805480823D3
:1075C00001F03AFA03B05DF804FB00BF742A002012
:1075D00094E902006022002007B5002301460093D1
:1075E000034A0448082301F027FA03B05DF804FBBE
:1075F0008CE902006022002013B500230C460093A2
:107600000146084A0848042301F016FA38B9074B26
:10761000142101FB043101230B7402B010BD0E20B4
:10762000FBE700BF88E9020060220020BC2900209F
:1076300037B50A480A4B42689C8819685388032565
:10764000033305709BB2002000909B0001EB840186
:10765000044801F0F1F903B030BD00BFA0290020BB
:10766000742A00206022002010B50146044800F072
:1076700061FE1C220446002106F0A5FF204610BD35
:107680008022002068B10268084B9A4209D1406804
:10769000074B984207D00133984214BF03200120C2
:1076A0007047032070470020704700BFDEC0ADDE8A
:1076B000FE011EF12DE9F0410D460223154F2B80EE
:1076C000164600F5805100F108044FF001088C4285
:1076D0000ED2236801330BD02046FFF707FF48B1D5
:1076E0000EB186F80080022809D14FF480632B8008
:1076F000BDE8F081A3683A68934200D93B602B88CB
:107700006288033313442B806388033304EB8304C0
:10771000DDE700BFB429002038B5144B14220D4614
:1077200002FB00302B68446804F58051A3B15C88EB
:10773000033403EB84048C4215D22368013312D046
:107740002046FFF7D3FE012808D002280BD00028DE
:10775000F1D12C60012038BD0834ECE76388033395
:1077600004EB8304E7E70020F5E700BFBC29002015
:10777000426873B504460D4662B3234BD9688A420A
:1077800028D31B699A4225D812F0030322D11F493E
:107790000089098988421DD120689168884219D1E1
:1077A0001B4841688A4203D901F580518A420DD3B2
:1077B00081698A420CD901F580518A4208D201229E
:1077C0002A80B3FA83F0400902B070BD1A46F7E789
:1077D0000A23F6E700262E800196288801A9FFF7E4
:1077E0009BFF30B92B8801339BB2012B2B80F3D93F
:1077F000EAE7019B226899689142EED16360034BEE
:107800001B892381E0E700BF60220020A02900201F
:10781000BC2900202DE9F8431C461C4B1B7806466A
:107820000F4615466BB372B36CB3DFF868804FF048
:107830001409A388012B01D90A2020E009FB03F3D6
:1078400018F803302BB9A0882146FFF765FF20B94F
:107850002060A3880133A380EBE723681EB19988D9
:1078600032889142EFD11FB119883A889142EAD10A
:107870009A68C5E90023064B1B892B810020BDE8CF
:10788000F8830220FBE70520F9E700BF98290020D4
:10789000A0290020BC29002008B5074B5888191DD5
:1078A000FFF73AFF18B1BDE80840FFF7C1BEBDE8D9
:1078B0000840FFF75DBE00BFA02900202DE9F0477A
:1078C0009F4FDFF8A08288B006463B6823B99D48E9
:1078D000414600F069FD38603D6829784B1E052B54
:1078E00007D8DFE813F01F007700770007010701D2
:1078F0005B010F241422002103A806F064FE41F668
:107900001D539C4208BF00243B6804941A78023A35
:10791000042A00F2F981DFE812F0DA01E601080238
:107920001002170226B1884B00225A600124E1E7B9
:107930002B79032B1CD8DFE803F014022934834A87
:107940001378022B19D0137D022B4FF0010316D1AF
:1079500014214B43D1180020D0544868FFF73CFE57
:1079600003E001232B71FFF723FE002800F0BD8008
:10797000754B00225A600E24BCE70023E8E7724AE8
:1079800013700023536041F61D54B3E770497148EA
:10799000002302222B718A800968012201F0D4F8A9
:1079A000E3E76B4C00262E712068FFF715FE6A4B4B
:1079B000DFF898C15B882568142253430CEB03025F
:1079C0000CF8036051685560A5881581022221607A
:1079D000A280CAE7B5F814A0AA7DDFF87091AEB115
:1079E000022AEB8806D9142101FB0A91DA1C0889C6
:1079F00002440A81142202FB0A99C3F57F43B9F8B5
:107A00000A20FD331344A9F80A308FE7142303FB3F
:107A10000A9318895C6804EB8004062A68D8DFE8BA
:107A200002F0274D35431D59040041F61D54AA7D2F
:107A3000EB88022A06D9142101FB0A91DA1C088975
:107A400002440A81142202FB0A99C3F57F43B9F864
:107A50000A20FD331344A9F80A304BE73F48404958
:107A600000234360AB690360FFF782FE002859D012
:107A70000223AB75002300930423EA1821463548FE
:107A800000F0DAFF002830D00E24D0E72B69002B5D
:107A900014BF03230123AB750023009305F10C02EF
:107AA000042304F10801EAE70123AB750022EB8807
:107AB00000922A699B0004F10C01E0E703290CBF46
:107AC00005230623AB7500230093042305F1080268
:107AD000E118D4E70623AB75214B19881F4B586872
:107AE000FFF78AFD04460028A1D108B0BDE8F08761
:107AF0000F249CE7002E7FF419AF2B79012B33D094
:107B0000022B3FF440AF002B7FF4F3AE02232B7126
:107B10000DF10A01EB68039303A8CDE90466FFF7B2
:107B200027FE08B90A24E5E60498BDF80A10838800
:107B3000EB8003882B81FFF75FFD044627E000BF41
:107B4000B82900208022002098290020BC2900208C
:107B5000742A002060220020A02900207C29002017
:107B6000802A0020B0290020DFF8F89103AA4B46B4
:107B70003146A81DFFF74EFE044660B9B9F804105F
:107B80000498FFF739FD04460A2C3FF4FCAE002CA4
:107B90007FF4B0AEA9E7C9E90066F5E7002E7FF4EF
:107BA000C5AE6B4B1A7BBAB11E731A78013A062A1E
:107BB0003FF69FAE01A151F822F000BF637C0200A6
:107BC000897C0200A77C0200AD7C0200F3780200F1
:107BD000B37C0200C57C02001A78072AE5D801A10F
:107BE00051F822F0057C0200AB7B0200AB7B020067
:107BF0002B7C02003F7C02005F7C02005F7C020065
:107C0000277C02001A89534901321A8100225A80C6
:107C10001A730A78B2FA82F252099A720A7DB2FA9B
:107C200082F25209DA72012207E04B4958688A88C9
:107C30004088033202448A8002221A70B5E75C88C9
:107C4000444A4549142505FB0422086854685060DD
:107C50008888108102228A800C600622EDE70722C4
:107C6000EBE79A7A32B9DA7A8AB900221A705A8026
:107C70005A6088E6374900229A72CA68002AF2D10F
:107C8000097C0029EFD05A80FFF706FE55E7002255
:107C9000DA72304A116A0029E7D192F82420002ACA
:107CA000E3D00122EFE7FFF7C3FC46E7FFF760FCF4
:107CB00043E75A88274B142101FB02335868FFF72A
:107CC0008BFC3AE700225A60FFF772FC35E701228D
:107CD0008DF80C201A89ADF818209A88DB68ADF869
:107CE0001A20059310E002228DF80C201A89ADF8B5
:107CF00018209A88ADF81A20DA689B7D05929A1FA1
:107D0000534253418DF81C3003A8FFF7DFFB0026D8
:107D1000414612483E6000F072FB1148012100F01C
:107D200028FC00287FF4D1ADDFE603228DF80C207B
:107D3000DA88ADF818201A89D0E704228DF80C20D3
:107D4000DB88ADF81830DFE705238DF80C30DBE772
:107D5000A0290020BC290020742A002080220020B5
:107D6000702A0020842A00204068FFF7A7BD000089
:107D700008B50548012100F0E4FB18B9BDE808404A
:107D8000FFF79CBD08BD00BF702A00202DE9F3411C
:107D90009846354B1B7806460D46002B5BD00029D4
:107DA0005BD009884FF6FF73994258D06B88002B3F
:107DB00055D06B689B0754D14AB92F890DF1020148
:107DC0003846FFF7A7FB30B102B0BDE8F081138859
:107DD0005788ADF8023001A8FFF746FC044658B9B1
:107DE000BDF80220214B142101FB023358890338CE
:107DF000C01B58810820E7E780F8008000238375C6
:107E0000BDF8023083826B6803610121184800F0DD
:107E1000A4FB2B882381B8F1030F6B88A38004BFD8
:107E20000423A3754FF0000508BF3368E06008BF66
:107E3000A3611048E780658101A900F0A5FA36B179
:107E4000E36833600C4B75601B89B5723381FFF7B3
:107E50008FFF0020B8E70220B6E70520B4E7042032
:107E6000B2E70320B0E700BF98290020BC2900201A
:107E7000B429002080220020A029002008B5034654
:107E800007480268042A08D00168064A42F82130EF
:107E9000012100F062FB002008BD0C20FCE700BFC0
:107EA0007C2A0020882900202DE9F04F89B0142277
:107EB000002103A806F087FB724B1B7803F0FF023A
:107EC00001923BB103A8FFF701FB0026304609B041
:107ED000BDE8F08F6B4B181D00F057FB0028F4D164
:107EE0004FF010234FF080525B6911695269DFF83F
:107EF000ACB1581C08BF02FB01F3CBF8103062494B
:107F0000A3F5405300225846CBF80C3000F068FD32
:107F100006460028DAD11C235C495D48DFF880A1C1
:107F2000DFF880818C2200F0D0F90323B14635467A
:107F300000933446DBF80C704F443846FFF7A2FB41
:107F4000012839464AD0032815D0002835D11421FC
:107F5000614308EB010208F80100576001F11002CB
:107F60000831424441443846FFF7A4FB45F002057E
:107F70000134A4B221E007F580520868013074D1C1
:107F800004319142F9D1DAF800203AB902220123F2
:107F9000CAF80070AAF8042001930CE0142262438E
:107FA000022008EB020108F802003A4A4F605480B0
:107FB00001340881A4B245F0010509F58059B9F5ED
:107FC000405FB7D1009B012B98BF0025EDB2022D79
:107FD00002D0062D20D045BB0B2677E7019B63B16D
:107FE0001422624308EB0201022008F80200013467
:107FF000DAF800204A600881A4B200222649CAF8B3
:1080000000703846FFF756FBBAF80420022A0CBF6E
:10801000042208221543D0E71A4A0123137003A84B
:1080200000235360FFF752FA50E702A8FFF71CFB4A
:10803000C8B10123013D03700A2D09D8DFE805F01E
:1080400006080608070807080F110F000023037130
:1080500002A90F4800F098F9FFF78AFE36E70323DC
:10806000F5E70223F3E7082630E7009B5A1E93B298
:108070001422624308EB020100934F60032108F8C9
:10808000021075E79829002094EB0200E4290020F3
:1080900080220020A0290020782A002060220020D1
:1080A000742A0020BC29002073B50D460446C8B1CF
:1080B000C1B10DF10601FFF75BFBA8B1BDF80630B9
:1080C0000A486668142202FB030001210C3000F00C
:1080D00044FA63682E600C336B600123A3720020A6
:1080E00002B070BD0520FBE70A20F9E7BC2900209B
:1080F00013B50446A8B10DF10601FFF739FB90B1A5
:10810000BDF806200A4B142101FB0233DA6862B184
:10811000A27A52B1DA680020013ADA60A07202B0A5
:1081200010BD0520FBE70A20F9E70620F7E700BFAE
:10813000BC2900200B4B1B7837B504460D4663B1B4
:1081400068B10DF106012846FFF7E4F918B9BDF84A
:1081500006302380658003B030BD0220FBE7052098
:10816000F9E700BF98290020104B1B7810B5B3B178
:10817000B8B10188022916D80D4A4388142404FB9B
:1081800001229C1C51898C420DDAC3F57F43FD33DB
:108190000B445381002303804380184610BD022006
:1081A000FCE70520FAE70420F8E700BF9829002043
:1081B000BC29002002230022FFF7E8BD12B10223F0
:1081C000FFF7E4BD0520704718B103230022FFF735
:1081D000DDBD052070470000104B1B7813B5044629
:1081E000ABB14FF6FF73984213D001A8FFF73CFAEA
:1081F00088B10523037001230371C48001A90848D5
:1082000000F0C2F8FFF7B4FD002002B010BD02205C
:10821000FBE70420F9E70820F7E700BF98290020D2
:10822000802200200E4B1B7807B5A3B101A8FFF7F1
:108230001BFA90B10623037001A90A4800F0A4F8C4
:10824000094B1A780AB101221A73FFF791FD002039
:1082500003B05DF804FB0220FAE70820F8E700BF4E
:108260009829002080220020A029002007B5ADF821
:108270000600ADF804100DF1060001A9FFF7CAFAD7
:1082800003B05DF804FB07B51346ADF806000A46D7
:1082900000200DF10601FFF7BDFA03B05DF804FB05
:1082A00007B51346ADF806000A460DF10600002199
:1082B000FFF7B0FA03B05DF804FB20B119B1036811
:1082C0000B60002070470520704710B561B1B2FB0C
:1082D000F3F403FB1424A4B244B9C0E9001484608D
:1082E0008281C381204610BD0E20FCE70920FAE7F9
:1082F00082B050E8022FC188B2EB324F4FF000033A
:1083000017BF92B241EA014142EA014104E04268EA
:10831000B2EB324F08BF012340E80212002AE8D135
:108320008DF807309DF80730002B0CBF112000207E
:1083300002B0704737B550E8013F9DB2C48925446B
:108340008489A54228BF2D1B0489A54202BFBFF323
:108350002F8F002207E0C5EA030540E80154002CF6
:10836000E9D14FF001028DF803200193019A0A60D0
:108370009DF8031001F0FF0321B1006810FA82F0AC
:1083800003B030BD1846FBE70A884B889A4209D1F2
:1083900050E8012FC2EA024240E80123002BF7D146
:1083A000012070470020704737B550E8023F1FFAA0
:1083B000A3F5C488A54202BFBFF32F8F00220DE0B2
:1083C000C48925448489A54228BF2D1BC3EA0545DD
:1083D00040E80254002CE8D14FF001028DF8032050
:1083E0000193019A0A609DF8031001F0FF0321B187
:1083F000006800EB124003B030BD1846FBE70A8866
:108400004B889A4209D150E8022FC2EA224240E842
:108410000223002BF7D1012070470020704701F0A4
:108420001F024B090121914000EB830000F065B869
:108430004B0910B501F01F040121A14000EB83009E
:1084400000F04FF8E04000F0010010BD01F01F0304
:1084500001229A404B0900EB8300D14300F065B83C
:108460004B0901F01F0150F82300C84000F0010043
:1084700070472DE9F0474F1E7F0980460E460137B1
:10848000002558F8254008EB8509E44394FAA4F444
:10849000B4FA84F44FEA451A202C06D10135AF42D4
:1084A000EFD834462046BDE8F0875444A642F5D9BB
:1084B00021464046FFF7BCFF0028F3D0D9F8004022
:1084C000E44394FAA4F4B4FA84F4E5E710B503465F
:1084D00053E8000F0A4643E8002494F0000FF7D158
:1084E00010BD10B5034653E8000F40EA010243E80F
:1084F000002494F0000FF6D110BD10B5034653E8E8
:10850000002F42EA010043E8000494F0000FF6D186
:1085100010BD10B5034653E8000F00EA010243E81E
:10852000002494F0000FF6D110BD10B5034653E8B7
:10853000002F02EA010043E8000494F0000FF6D196
:1085400010BD10B5034653E8000F00EB010243E8ED
:10855000002494F0000FF6D110BD10B5034653E887
:10856000002F02EB010043E8000494F0000FF6D165
:1085700010BD10B5034653E8002FA2EB010043E8FD
:10858000000494F0000FF6D110BD0121FFF7A9BF40
:108590000121FFF7B2BF0021FFF7BBBF10B590B1BB
:1085A000D0E9012301689B1ADBB20A60013BDBB210
:1085B000FF2B026802D10020107110BD11684C1C05
:1085C00014600B70F2E70E20F7E737B5054600247C
:1085D0000DF107008DF80740FEF73EFF2A686B6833
:1085E000116899420ED9481E106011F8013CEC68E0
:1085F000A98A01FB0344AB6811791B1ADBB29942CB
:1086000038BF13719DF80700FEF74AFF204603B0FC
:1086100030BD37B5054600230DF107000C468DF837
:108620000730FEF719FF2A681368591C1160E968C2
:10863000641AA98AB4FBF1F41C709DF80700FEF7D8
:108640002FFF03B030BD826810B504462AB14369DC
:108650000168006998470023A36010BD0EB403B5FC
:10866000039921B104AB01AA019300F06FF802B0A5
:108670005DF804EB03B07047826830B40468551CA1
:108680008560A154D0E901329A4202D330BCFFF791
:10869000DABF30BC704700002DE9F84F9846DDE99D
:1086A0000A43154682460F460A464FF00109AA4280
:1086B0000FD2C14538BFC14613F0010B01D16CB9CF
:1086C00000240126B8F1010F1BD908F1FF386E43D1
:1086D000F8E709F10109B2FBF5F2E8E79B070ED5CF
:1086E000B8F1000F0CBF30262026A145E9D2013C8D
:1086F00031465046FFF7C0FF002CF6D1E0E72026B8
:10870000F3E7B7FBF6F39D42E1D9DFF83C80B7FB16
:10871000F6F3504618F8031006FB1377FFF7ACFF8B
:108720003346AB42B6FBF5F6F1D2BBF1000F02D0F7
:108730000CB1A14501D3BDE8F88F20215046013C82
:10874000FFF79AFFF4E700BF9CE902002DE9F74F1D
:10875000054617468846002900F03E8118F8011B9F
:1087600049B92B7B002B00F03781284603B0BDE8C8
:10877000F04FFFF768BF252940F0B780002698F832
:1087800000302D2B424608F1010823D0302B24D095
:108790002B2B25D000242A2B02F1010123D13B6889
:1087A0001A1D1B683A601C440A4613782E2B26D1EA
:1087B00001324FF0000A104610F8011BA1F1300CF5
:1087C000BCF1090F1DD80A2303FB0A13A3F1300AD9
:1087D0000246F0E746F00106D1E746F00206CEE792
:1087E00046F00406CBE711F8013CA3F1300009285C
:1087F000DBD80A2202FB0434303C0A46CBE74FF0B8
:10880000000A12F8011B01F0FB0068289046F8D01E
:10881000782909D86F290CD8632962D022D8252954
:1088200063D0582900F0888098F80030002B95D14B
:1088300097E770390829F7D801A353F821F000BF52
:10884000B3890200298802002988020049890200B0
:10885000298802002789020029880200298802004D
:1088600039890200642901D06929DDD13A68D2F83A
:108870000090111D89EAE9723960A2EBE9724FF0AC
:10888000010B092A35DCD34538BFD3462CB1B9F1E9
:10889000000F01DB720700D5013CB30702D5BAF126
:1088A000000F03D0F00701D44CBB0024B9F1000F36
:1088B0002DDAC9F100092D212846FFF7DDFE06F06B
:1088C0000302022A04D1BAF1000F01D11CBB00241B
:1088D000CDE9004653460A2249462846FFF7DCFE0A
:1088E000A2E73B681A1D19783A602846FFF7C4FED4
:1088F0009AE70A230BF1010BB2FBF3F2C1E7A345A0
:10890000D4D220212846013CFFF7B6FECCE7710700
:10891000D5D52B21D0E7A345DAD230212846013C1A
:10892000FFF7AAFED2E73968CDE900460A1D3A6092
:1089300053460A220968D0E739680A1D3A60CDE932
:10894000004653461022F5E73B681A1D3A6016F0C0
:108950000106D3F8009024D1B9F1000F03D04846A6
:1089600005F086FE0646B4421DD809F1FF3919F814
:10897000011F00293FF458AF2846FFF77DFEF6E7B8
:1089800028460136FFF778FE19F806100029F7D1BE
:10899000A642BFF449AF20212846013CFFF76CFEF8
:1089A000F6E70026F0E720212846013CFFF764FEA9
:1089B000D9E73B681A1D3A60302128461C68FFF74A
:1089C0005BFE78212846FFF757FE00220823CDE9F9
:1089D00000322146102280E703B0BDE8F08F00BFCF
:1089E00013B50B46114670B90E4B0F4A18880E236B
:1089F00000930E4B00040E4940F00100FDF7C3FF49
:108A00000E2002B010BD3BB9064B0A4A18880E234F
:108A100000930004054BEEE703601B6802B0BDE85D
:108A2000104018474C220020ACE9020068EB02001D
:108A3000B1E90200E0E902002DE9F743DDF8288002
:108A400078B9364B364A1888364B0E240004009409
:108A5000354940F00100FDF796FF204603B0BDE820
:108A6000F0833AB92D4B314A18882E4B0E2400045E
:108A70000094EDE7D0F800E0BEF1000F07D1274BDE
:108A80002B4A1888274B082400040094E0E73BB9E0
:108A9000224B284A1888234B092400040094D7E766
:108AA0004568D5F80490B3FBF9F509FB15353DB1E0
:108AB0001A4B214A18881B4B092400040094C7E76D
:108AC0008D0707D0154B1D4A1888164B102400043B
:108AD0000094BDE712F0030F07D0104B184A188816
:108AE000104B102400040094B2E7C568A9420DD3CE
:108AF0004D1EEC180569AC4208D8CDF82880DEF888
:108B00000C40A44603B0BDE8F0436047034B0D4A58
:108B10001888044B10240004009499E74C2200208C
:108B2000ACE9020055EB0200B1E902002EEA0200B6
:108B3000DAE90200EDE9020034EA02005EEA02002E
:108B400076EA020099EA0200F7B570B9254B264A89
:108B50001888264B0E2400040094254940F001009B
:108B6000FDF711FF204603B0F0BDD0F800C0BCF106
:108B7000000F07D11B4B1F4A18881C4B0824000408
:108B80000094EAE73AB9174B1B4A1888174B092497
:108B900000040094E1E74568D5F800E00EF1FF35E8
:108BA0000D4207D00F4B154A1888104B10240004B3
:108BB0000094D2E7C568A9420CD34D1E0EFB0254A7
:108BC0000569AC4206D8DCF81040A44603B0BDE805
:108BD000F0406047034B0A4A1888044B10240004F5
:108BE0000094BAE74C220020ACE9020042EB0200FC
:108BF000B1E90200DAE90200EDE90200C0EA020090
:108C0000E6EA020070B550B90E4D0F4C0026641B09
:108C10001423B4FBF3F4B44208D1002010E003683D
:108C2000002BF1D0BDE87040DB6918472B6813B901
:108C300001361435EFE7DB69284698470028F7D05E
:108C400070BD00BF602200207422002029DF704721
:108C500028DF704770B503689E6886B004460D46ED
:108C60006EB114220021684605F0ADFCA36805939F
:108C7000237901952BB1012B0DD06846B04706B082
:108C800070BD01238DF8003023690293E3680393DC
:108C900063690493F1E702238DF80030E3681B0356
:108CA0000293F5E70846704700207047024B187A98
:108CB000003818BF01207047182B0020034B187A8A
:108CC0000122B0FA80F05A7440097047182B002036
:108CD00008B510461A4605F04DFC002008BD0000FE
:108CE00008B514220021044805F06DFC0348FFF785
:108CF000FFFA002008BD00BF182B0020942200209E
:108D000010B5094C094B43602046FFF73EFC40B9C3
:108D100005F0BCF8064920741C2306488C22FFF796
:108D2000D4FA002010BD00BF182B002088EB0200F1
:108D30008C2A00209422002038B5234D234C2B7A16
:108D40003BB923492348FFF72FFB206008B968602F
:108D500038BD022324682B72237973B1012B24D0F0
:108D600020460321FFF776FF00232B726B60184922
:108D70001848BDE83840FFF742BBD4E90523D21AB2
:108D8000B2F5805FD4E9031028BF4FF480529208F7
:108D9000012A38BF012219441844FFF757FF50B188
:108DA0001128DDD101232B72D2E7D4E90303184443
:108DB000FFF74EFFF3E72B7C002BC9D1BDE838400D
:108DC000022000F009B800BF182B0020302B002033
:108DD0002C2B00209422002038B5234C237A002B22
:108DE00041D0022B09D1032830D0204B00221B6830
:108DF000E2601A793AB1012A22D0637C7BBBBDE8DC
:108E00003840FFF799BFD3E905128D1AB5F5805F99
:108E100094BF521902F580529A619142EDD1022815
:108E20004FF0000308BF19462372104B18BF0D21E5
:108E30001868FFF70FFF0E490E48FFF7E0FADCE76E
:108E40001A6901321A615B699A42E7E7E368013304
:108E5000082B01D8E360D0E70023E360DFE7BDE83B
:108E6000384005F003B838BD182B0020302B002007
:108E70002C2B002094220020831E012B01D8FFF709
:108E8000ABBF704700F0FD03012B08D1044B00225B
:108E90005A74421E504250411874FFF74DBF70473C
:108EA000182B002010B5064C201DFFF76EFB28B9CB
:108EB000637C1BB9BDE81040FFF73EBF10BD00BF8B
:108EC000182B00202DE9F34180460D46104801A9DA
:108ED00016461F46FFF72EFA0446B0B118220021AD
:108EE000043005F070FB2D0B0123237101A9084804
:108EF000C4F80080A760E5606661FFF745FAFFF7F8
:108F0000D1FF002002B0BDE8F0810420FAE700BFE5
:108F1000942200202DE9F34180460F460F4801A915
:108F200016461D46FFF706FA0446A8B1182200218E
:108F3000043005F048FB089BA36001A9C4E903675E
:108F40000648C4F800806561FFF71EFAFFF7AAFF24
:108F5000002002B0BDE8F0810420FAE7942200204E
:108F6000FFF71CBBF8B546790146721E0546002383
:108F700093422D6803D30024A64202D8F8BD0133E2
:108F8000F6E70F682846FFF744FB01343946F3E75C
:108F90002DE9F843868ACD1C0746FFF716FB043EF1
:108FA00035440446B5FBF6F5F0B14FF48073EDB2ED
:108FB0008380C680013D076081464FF00008A845C8
:108FC00012D23846FFF701FB064648B163790133F8
:108FD000637108F10108C9F8000007608146EEE7F7
:108FE0002046FFF7BFFF34462046BDE8F883012145
:108FF0000430FFF7B2BA10B5012104460430FFF780
:10900000B8FAC0B220B92046BDE81040FFF7AABFA9
:1090100010BD2DE9F843B0F8068004330546B3FBD4
:10902000F8F40F46164608FB14333CB9A8EB0309C5
:10903000B14528BFB14626B9BDE8F8832D68013C8B
:10904000F3E70433E818A6EB09064A46391905F098
:1090500091FAB0454C442D68C1464FF0000328BF3B
:10906000B146E8E72DE9F843B0F806800433054639
:10907000B3FBF8F40F46164608FB14333CB9A8EBD3
:109080000309B14528BFB14626B9BDE8F8832D686C
:10909000013CF3E70433E918A6EB09064A46381900
:1090A00005F068FAB0454C442D68C1464FF0000306
:1090B00028BFB146E8E741DF70470000064B10B516
:1090C00000241C70054B1C60BFF35F8F04490548EA
:1090D00000F032F8204610BD3C2B0020402B002031
:1090E000C0EB0200342B002007B500230DF1070070
:1090F0008DF80730FEF7B0F9F1EE103A23F09F0338
:10910000E1EE103ABFF35F8F0A4B4022C3F884218F
:109110009DF80700FEF7C4F904F0B8FE20B103B0D3
:109120005DF804EBFFF7C7BF20BF40BF20BF03B00F
:109130005DF804FB00E100E00B684A68436093427D
:1091400008BF0023016008BF43607047436843B114
:109150000268916852680B449342436004BF002345
:109160004360704710B50D49A1F59472914201D842
:1091700000200FE08C1AE30F03EBE4035B1002EB1B
:10918000C30452F83330834205D802D204F10802F6
:10919000ECE7606810BD2146E8E700BFC4F00200BC
:1091A00008B5FFF7DFFF024B002808BF184608BDCF
:1091B00086EF0200054A4FF0A043105CD3F8043557
:1091C00023FA00F0C04300F001007047C8F002002D
:1091D000044B1A5C012393404FF0A042C2F80C35B7
:1091E000704700BFC8F00200044B1A5C0123934093
:1091F0004FF0A042C2F80835704700BFC8F0020027
:1092000008B50020FFF7F0FF0120FFF7EDFF022077
:10921000FFF7EAFFBDE808400320FFF7E5BF08B508
:109220000020FFF7D5FF0120FFF7D2FF0220FFF754
:10923000CFFFBDE808400320FFF7CABF074A4FF041
:10924000A041105CD1F804350122824022EA0300DB
:109250001340C1F80805C1F80C357047C8F002008A
:10926000054A4FF0A043105CD3F8103523FA00F004
:10927000C04300F001007047C4F002000D2809D07F
:109280000E2809D00F2809D010280CBF03204FF05A
:10929000FF30704700207047012070470220704760
:1092A000014B185C704700BFC4F00200C20708B54C
:1092B00001460CD54FF0A0430322C3F84427C3F85E
:1092C0004827C3F84C27C3F85027FFF799FF8B07AF
:1092D0000AD54FF0A0430C22C3F83427C3F838272F
:1092E000C3F83C27C3F8402708BD000038B5074C39
:1092F000051E04F1080318BF1C4623682BB11A6829
:1093000022605B6828469847F7E738BD4C2B002061
:1093100020B9054B01225A70FFF7E8BF012802D19E
:10932000014A9070F8E77047442B002020B9034BA6
:1093300001225A70FFF7DABF704700BF442B0020AC
:1093400038B50B4C237883B90A486360A360236166
:10935000E36000F063F8054604F098FD08B900F0FA
:1093600069F801232370284638BD8525FBE700BF37
:10937000442B00201193020037B50B4C00230DF154
:1093800007008DF80730FEF767F8E368013BE360FC
:10939000E56815B900F062F8A5709DF80700FEF7C2
:1093A0007FF803B030BD00BF442B0020012813B567
:1093B00008D003281CD018B9114B0122C3F8802013
:1093C00002B010BD0F4C00230DF107008DF80730DF
:1093D000FEF742F823780BB9FFF7B2FFE3689DF878
:1093E00007000133E3600123A370FEF759F8E7E7B4
:1093F00000F020F802B0BDE81040FFF7BDBF00BF8D
:1094000000E100E0442B002000F18040002382B006
:10941000036003680193019B02B07047044A13790B
:1094200023B901211060918018467047852070474C
:10943000582B0020084B1A68D20706D4E02283F884
:1094400000230122C3F880211A604FF080430122DB
:10945000C3F81825704700BF00E100E04FF08043DB
:109460000122DA60D3F81824D203FBD4704700003D
:109470004FF0804110B5D1F8003163B14FF48070E6
:10948000FFF7C2FF0D4B58790122C1F8082310B92C
:109490005A711B6898474FF08042D2F8043163B18B
:1094A0004FF48270FFF7B0FF0223C2F80833034B7A
:1094B000BDE810401B680120184710BD582B002044
:1094C00000F1804000F5C040002382B003600368D3
:1094D0000193019B02B07047800000F1A040D0F8DA
:1094E000002722F44032C0F80027D0F8003743EAC2
:1094F0000141C0F800177047C208012300F00700BF
:1095000003FA00F08B5C184388547047054B4FF00A
:10951000FF32072843F8202084BFC01880F8482075
:10952000704700BF602B002038B5154D95F85840A6
:109530001CBB2022FF2105F1300005F044F8E0B209
:109540000134FFF7E3FF0C2CF9D10E4B0022E02190
:109550006A6583F806134021C3F880114FF4BE708A
:109560001960FFF7ADFF084B4FF00041C3F804133B
:10957000012385F85830104638BD0820FCE700BFAD
:10958000602B002000E100E000600040034B93F8F6
:109590005800003818BF0120704700BF602B002022
:1095A0002DE9F041DFF8E48008EB0003054693F96C
:1095B0003030002B0F4664DA8B78C3F34003002B66
:1095C0000BBF082400240C2108218C4202D1042066
:1095D000BDE8F08158F8240001303DD108EB0501C9
:1095E00066B248F8242081F830601BB908EB040308
:1095F00083F84850BB785A070ED4D9072ED5AB0054
:1096000003F1A043D3F8002722F00202C3F8002799
:109610001D492846FFF770FFBB783A7813F0020324
:1096200025D0A40004F1804404F5C0442D02D4F8F0
:10963000103523F4473323F44073C4F81035120473
:10964000D4F8103505F4F85502F4403215431D43A3
:10965000C4F810550020BBE70134B6E77A7805F569
:10966000E0734FF0A041920041F82320D0E7083E7C
:1096700048FA86F696F8505045EA821286F850204D
:10968000E8E70820A4E700BFB42B0020602B0020EF
:1096900038B5204C251895F93020072A18DD083AEE
:1096A00044FA82F494F850309B09032B0BD14FF00D
:1096B000A043D3F81015C14001F001010231BDE80B
:1096C0003840FFF709BF012B0CBF02210321F6E749
:1096D000D3B2072B1DD8930003F1804303F5C04399
:1096E000D3F8100540F00100C3F8100502F1400066
:1096F00040B2800080B2FFF7E3FE51B195F93030FF
:1097000054F823302BB1012303FA02F2024BC3F8C1
:10971000042338BD602B0020006000404FF0A043C0
:10972000D3F8103523FA00F000F001007047000074
:109730002DE9F04F87B00024584D03944FF4807208
:10974000012102F1804303F5C04390B21B68012B55
:1097500006D1D5F804330B4202D0FFF7B1FE0C431B
:109760000432B2F5907F4FEA4101EAD14B4BD3F876
:109770007C31012B0AD14FF4BE70FFF7A1FE4FF0F0
:10978000A04344F00044D3F810350393E3B2D3B1BF
:10979000434F00250126344210D0AB0003F1804333
:1097A00003F5C043D3F81005D3F8101557F825304A
:1097B00023B1C1F30141C0F3042098470135082DBE
:1097C0004FEA4606E7D1002C61DA00224FF0FF3362
:1097D000CDE90423DFF8C880DFF8C89000273E46B3
:1097E0004FF0A04B19F9014B631C45D0C4F3C203E1
:1097F00018336B440122E5B204F03F0004F0070483
:1098000002FA04F413F8042C224235D008EB0002CB
:10981000AD0992F9302058F822A0BAF1000F09D111
:10982000032D29D104A901930090FFF765FEDDE91E
:10983000000301E0032DF5D000F5E07113F80C3CB6
:109840005BF821102342C1F3014105D0022913D155
:10985000032D0CD1294604E003290DD1032D06D197
:10986000022100900136FFF737FE0098F6B2BAF1F8
:10987000000F01D02946D0470137042FB2D136B1AD
:109880004FF0A043039AD3F81035934202D107B0AA
:10989000BDE8F08F0393049B05939DE700600040B3
:1098A000602B0020B02B0020014B1B68184700BF25
:1098B000BC2B00200220FFF7C1BC00002DE9F047BF
:1098C00080460D46FFF7DAFC0328044610D8012D28
:1098D00010D0022D30D05DB91A48FDF7ADFD1A4BFE
:1098E00004EB440213449D78184B1B5DAB4219D026
:1098F000BDE8F087144E00EB4003F218F55C537896
:10990000470053B1DFF84C900E484A464FF40041EF
:10991000FDF74AFD08B989F8008027443E440B4B07
:10992000B2781A55002DE3D0094B1B68002BDFD00D
:109930002846BDE8F047184700EB400402480444BD
:109940006578EFE7E82B0020282C0020412C002030
:109950003C2C0020C42B002000780221FFF7AEBF72
:1099600008B5094B1B7853B10020FFF73DFC0120DF
:10997000FFF73AFCBDE808400320FFF735BCBDE81F
:109980000840FFF73DBC00BFC52B0020F8B5784C60
:10999000237805461BB100232370FFF7E1FF172D45
:1099A00000F28380DFE805F00C13133E4F60717BFB
:1099B00083888388909595959595BFC4CCD4DFDF37
:1099C000FFF7CEFF6B4B00241C702046F8BD002033
:1099D000FFF7F0FBF0B10020FFF706FC022D0CBFF3
:1099E0004FF4E1644FF47A64624B1D7000254FF42C
:1099F00000464FF4FA7029464FF47A720023E4FBD4
:109A0000060104F0BFFC2A460146BDE8F8405A486A
:109A1000FDF7CABCFFF7DCFB022D0CBFC8244FF4D6
:109A2000C874E1E70020FFF7C5FB40B10020FFF755
:109A3000DBFB4FF448744F4B03221A70D6E7FFF755
:109A4000C7FBC824F7E70020FFF7B4FB38B10020BC
:109A5000FFF7CAFB4FF47A64464B0422EDE7FFF7A9
:109A6000B7FB4FF4C874F7E70020FFF7A3FB48B13A
:109A70000020FFF7B9FB3F4B05221A7041F69A11FF
:109A80000022C2E7FFF7A4FBF5E70020FFF7D6FBB3
:109A9000384B06221A70002240F6CD41B5E700206F
:109AA000FFF796FB334B07221A7000248DE7012045
:109AB0002070FFF7C3FBEEE701202070FFF7BEFB2D
:109AC00000224FF48041A0E7FFF7A9FB294B0C22AD
:109AD000EAE72A482A4EFDF7AFFCD5F11105044606
:109AE0001CD0D8B9012D13D0C820454321464FF4CE
:109AF00000474FF4FA704FF47A720023C5FB070158
:109B000004F040FC224601461C48FDF74DFC04468B
:109B10000220FFF75DFB0123337056E70220FFF7B9
:109B200063FB0023F8E7FFF71BFF124B1222BBE792
:109B3000FFF716FF0020FFF74BFB0E4B1322B3E796
:109B4000FFF70EFF0120FFF743FB0A4B1422ABE7A0
:109B5000FFF706FF0020FFF73BFB0120FFF738FB74
:109B6000044B1522A0E7FFF75AFB024B1D709CE740
:109B7000382C0020402C0020082C0020C82B00206E
:109B8000C52B0020044B1B68DB0703D5034B18785B
:109B9000FFF7FCBE704700BF342C0020402C002093
:109BA00010B5002914BF03240024FFF779FB8000BF
:109BB00000F1A040D0F8002722F44032C0F800277E
:109BC000D0F8003743EA0443C0F80037002010BD46
:109BD000032801D8FFF744BB00207047044B1B68E3
:109BE00013F0010301D0FFF7D1BE1846704700BF44
:109BF000342C002038B51C4B18601C4B10F00204AC
:109C0000054619601AD01A4B1A480E221A700F22F4
:109C1000DA7010229A7111225A72042140F266629F
:109C2000FDF7C0F8044648B9FDF712F9044628B913
:109C30000146114A1148FDF7A5FB0446EB0711D573
:109C40000120FFF733FB6CB921460D4A0D48FDF7A3
:109C500099FB044630B9BDE838400B4A0B48012156
:109C6000FDF790BB204638BD342C00203C2C002052
:109C7000282C0020F0F002005999020014F1020093
:109C8000859B020018F10200B598020010F1020055
:109C9000032811D8012A0AD101290FD100F10E029F
:109CA000D2B20D4B00EB40001A540020704701293E
:109CB000F7D0022904D049B1072070470022F8E705
:109CC000054B00EB400018444270EEE7024B00EBFE
:109CD000400018448270E8E7282C0020032802D8AE
:109CE0000121FFF75DBF0620704708B50122022160
:109CF0000020FFF7CDFF08B1072810D1072202216D
:109D00000120FFF7C5FF08B1072808D100210A226A
:109D10000846FFF7BDFF10B1072808BF002008BDA7
:109D20000388102B10B502D0112B1ED010BD1A4C79
:109D30002168B1B901220846FFF7AAFF08B1072838
:109D400024D1072202210120FFF7A2FF08B1072832
:109D50001CD1042202210020FFF79AFF08B1072836
:109D600014D1236801332360E0E70B4A1368013BF9
:109D70001360002BDAD1FFF7B8FF0028D6D0074BCD
:109D80001B68002BD2D0BDE810401847034B1B685E
:109D9000002BE6D09847E4E74C2C0020482C00200C
:109DA00008B50020FFF79AFF08B1062806D1012068
:109DB000FFF794FF10B1062808BF002008BD00007F
:109DC0000D4B10B518600C4629B10120FFF700FFBC
:109DD00040B102232370094B1B6853B9BDE8104002
:109DE000FFF783BFFFF7F4FE08B10B23F2E7207003
:109DF000F1E7002010BD00BF482C00204C2C0020B3
:109E000076DF70477ADF70477CDF70478FDF7047FF
:109E100033DF7047FDF732B808B5074B07481978AC
:109E20000131C9B2197004F053FA18B1BDE8084005
:109E3000FDF724B808BD00BF1C2D0020082D002010
:109E400008B50020FFF7CAFE08B1FDF717F8FFF7C5
:109E5000A7FF08B1FDF712F8FFF7DAFF18B1BDE868
:109E60000840FDF70BB808BD0388212B13B5044645
:109E700035D005D8102B17D0112B0AD002B010BD49
:109E80003B2B01D0562BF9D1A0881321FFF7B8FF47
:109E90001EE01A4B1A491888000440F0030002B073
:109EA000BDE81040FCF758BD144B16491888000453
:109EB00040F00300FCF750FD0720FFF78FFE08B1CC
:109EC000FCF7DCFF104BA1881048198002F00CF859
:109ED0000028D3D002B0BDE81040FCF7CFBF00236C
:109EE00080888DF8043001A98DF80530FFF78EFFCA
:109EF0000028C3D0FCF7C2FFC0E700BF3422002017
:109F00001CF102002AF10200AC220020542D002096
:109F100008B503784BB9054B3B211888FFF770FF54
:109F200018B1BDE80840FCF7A9BF08BDAC2200206D
:109F3000072808B513D00A280DD0042819D10D4BD5
:109F400013211888FFF75CFF30F0080311D0BDE83B
:109F50000840FCF793BFBDE80840FFF771BF054B11
:109F60001A884FF6FF739A4203D1034800F0C8FEE7
:109F7000EAE708BDAC220020502C002008B588B1CB
:109F8000032813D10A4B0B491888000440F0030042
:109F9000FCF7E2FC0220FFF721FE38B1BDE80840E3
:109FA000FCF76CBFBDE80840FFF74ABF08BD00BF23
:109FB0003422002035F1020008B50A7812B1012AD6
:109FC0000BD008BD07484FF40041FDF7EDF900281C
:109FD000F7D0BDE80840FCF751BF0248FDF72CFA66
:109FE000F5E700BF342D002008B50548032100F037
:109FF00024FD18B1BDE80840FCF740BF08BD00BF14
:10A00000502C002030B5037885B004460D2B23D8A2
:10A01000DFE803F00722122224222C3F223B223FBA
:10A02000363F1D4B1D491888000440F0030005B061
:10A03000BDE83040FCF790BC174B40881D8801F00C
:10A0400063F82D04237A009345F0030502466388E4
:10A0500013492846FCF797FC05B030BD0023408823
:10A060008DF80C3003A902F00DFDF5E7FEF7DAF8E4
:10A0700030F00803F0D005B0BDE83040FCF7FEBE7C
:10A0800005B0BDE83040FFF7AFBF00690028E3D05E
:10A09000F1E78068FAE700BF3422002047F10200B0
:10A0A00070F10200FCF7EABE00B54FF40041ADB01C
:10A0B0000020FCF78DFA08B1FCF7E0FEFCF7B4F9DC
:10A0C000FDF730F908B1FCF7D9FE774A774801214E
:10A0D000FDF758F908B1FCF7D1FE75490320FFF7E9
:10A0E00089FD08B1FCF7CAFE01A90020FFF768FE50
:10A0F00008B1FCF7C3FE9DF80450FEF7DFFF08B17E
:10A10000FCF7BCFE03F03CFE08B1FCF7B7FE0023F1
:10A1100001A90120019303F007FF08B1FCF7AEFE8F
:10A1200001A803F09DFF08B1FCF7A8FE11236149C7
:10A130008DF800300F226846FFF766FE08B1FCF785
:10A140009DFE0023ADF808305023ADF80430A02365
:10A15000ADF8063001A84FF4C873ADF80A30FFF728
:10A1600051FE08B1FCF78AFE5348002101F0AEFD14
:10A1700008B1FCF783FE0023CDE901334F48504B73
:10A180000093694601F09EFE08B1FCF777FE4D4B47
:10A19000019311238DF809304B4841F2111301A9A5
:10A1A000ADF80A3004F01EF808B1FCF767FEAC22E7
:10A1B000002101A804F007FA02238DF8043040F2D0
:10A1C0000163ADF8063001234FF49671ADF81430F9
:10A1D0008DF8803044F25063CDE923133B4A3C4B69
:10A1E0003C48069201A92A9300F0B7FB08B1FCF79E
:10A1F00045FE3848012100F0ADFB1422002101A8E2
:10A2000004F0E1F94FF470234FF42032CDE902233A
:10A2100003238DF81030304B069301A82F4B079382
:10A2200000F08CFE08B1FCF729FE02F0D7FB08B164
:10A23000FCF724FE31238DF8043007238DF8053018
:10A2400010238DF8063001A803238DF807308DF810
:10A25000083002F00DFC08B1FCF710FE204802F0B7
:10A26000EFFB08B1FCF70AFE1E4C1F4920880004D2
:10A2700040F00300FCF770FB022D12D120881B492F
:10A28000000440F00300FCF767FB02F009FC08B192
:10A29000FCF7F4FDFCF700FA0028FBD1FEF724FFE1
:10A2A000F8E7FFF7A1FEF5E7199E0200E8F10200CA
:10A2B000319F0200B0F10200202D0020542D00201B
:10A2C000159E0200B99F0200082D0020A822002040
:10A2D0007D9F0200502C0020119F0200A5A00200CB
:10A2E00005A0020034220020C0F10200DAF10200D1
:10A2F0000369C26893429CBF80681B18013B981A8F
:10A3000070472DE9F843D0E902940546A9EB04080B
:10A310004068904520440F46144404D904F02AF9BB
:10A32000EC60BDE8F8834246A4EB090404F022F98E
:10A330006868224607EB0801F0E72DE9F843C56895
:10A340000646894617464FF000083469B3687068BE
:10A35000A54228BFE418013C621B5C1BBC4228BF1D
:10A360003C46944228BF144649462844224604F0FD
:10A3700001F9B3682544AB4208BF00253F1BA04448
:10A38000A144F560E1D14046BDE8F88310B5114C19
:10A39000114AA2610223C4E90433104BE361A264B1
:10A3A0004FF400730E4A0F492362E2640023102227
:10A3B000E01DA3626362E362A3656365E3652265F2
:10A3C00004F034F90849204604F030F92023A37141
:10A3D00010BD00BF602D0020ECF10200E82D002030
:10A3E000D82D0020F5F10200F9F1020070B5164BEE
:10A3F000182400FB04451D4404FB00331646DC6AA8
:10A40000012C0ED0022C18D0E4B92846FFF770FFBB
:10A41000864204D832462846FFF773FF344620466A
:10A4200070BD2846FFF764FF8642344628BF0446C5
:10A4300022462846FFF765FFF1E72846BDE8704051
:10A44000FFF77BBF0024EAE7602D0020FFF79EBFE7
:10A450006DDF704779DF70477DDF704764DF7047DD
:10A460002DE9F04F85B000250E9CBDF83CB0B4F846
:10A4700000A00191074690461E46A9463A884A45E3
:10A480000DDC45B12388013BA3EB0A039BB2FF2BF4
:10A490003AD806F80A30002005B0BDE8F08F7A6897
:10A4A00052F82900039000220DF10B0103A8FFF7D9
:10A4B000D5FF0028F0D19DF80B20424521D12288FC
:10A4C000002D14BF0020022002EB08010144594571
:10A4D0001ADC3DB9013292B2019B2280B35422882A
:10A4E0000132228022880DF10B01324403A8FFF7CC
:10A4F000B5FF0028D0D121889DF80B200A44228086
:10A50000012509F10109B9E70C20C5E72DE9F3415F
:10A51000089FBDF824801546CDE900780222044644
:10A520001E46FFF79DFF50B93346102229462046AC
:10A53000CDE9087802B0BDE8F041FFF791BF02B065
:10A54000BDE8F0812DE9F04F00231788138090F8C3
:10A550002D3085B006460D4614465BB3082F01D852
:10A560000C204EE102A8FFF773FF002840F049815C
:10A570002388DDF809100822EA54238801339BB2AE
:10A580001B222380EA54238801339BB2EA182380DC
:10A59000E950BDF80D30938023889DF808200633DC
:10A5A0009BB212F0FE0218BF01222380EA542388D6
:10A5B00001332380B378FBB123880433BB42CFD867
:10A5C00002A8FFF747FF002840F01B8123880322E1
:10A5D000EA54238801339BB219222380EA5423884A
:10A5E000BDF8082001339BB2E9182380EA54120A0F
:10A5F0004A70238802332380F2789AB12388D91CC9
:10A60000B942ADD80221E954238801339BB201211C
:10A610002380E95423880B449BB22380EA54238887
:10A620000B4423807268AAB12388D91CB94297D8F9
:10A63000022192F90020E954238801339BB20A21B8
:10A640002380E954238801339BB22380EA54238872
:10A65000013323803389002B40F0C780338A5BB1FC
:10A66000CDE900472B460722032106F11000FFF732
:10A670004DFF002840F0C580338B5BB1CDE900472A
:10A680002B461522142106F11800FFF73FFF002882
:10A6900040F0B780326A002A40F0B680D6F82480B5
:10A6A000B8F1000F31D0B8F804302188981C8A1C0A
:10A6B0000244BA423FF654AFFE283FF651AF03338F
:10A6C0006B54238801339BB2FF222380EA542388F2
:10A6D00001339BB22380B8F80020EA54E918120A2B
:10A6E0004A702088023080B22080B8F8042062B11D
:10A6F000D8F80810002900F09180284403F03AFFB0
:10A700002388B8F804201344238096F82C30002BBB
:10A7100043D0B36A002B00F081804FF000084FF067
:10A720000C0A4FF0160BB16A5FFA88F20AFB02F2CC
:10A7300001EB0209B9F80430981CFE283FF610AF6F
:10A74000208803332B54238801339BB2238005F8E0
:10A7500003B0238801339BB223808A5AEA54E91854
:10A76000120A4A702088023080B22080B9F8042092
:10A770005AB1D9F80810002950D0284403F0FAFE45
:10A780002388B9F804201344238096F82C2008F17C
:10A7900001085FFA88F39A42C5D8307888B33388C5
:10A7A000012B3BD0228802F1020CBC453FF6D8AE0B
:10A7B000012805D17378023313449F42FFF4D0AED1
:10A7C000023FBF1ABFB202A905EB0C00ADF808703A
:10A7D000FFF742FEA8B93378022B58D1BDF80830F4
:10A7E000BB426DD9ADF8087058E0CDE900472B4663
:10A7F0000622022106F10800FFF788FE00283FF438
:10A800002DAF05B0BDE8F08FB4F800C00CF1060321
:10A81000BB423FF6A5AE1188052901D80720F0E715
:10A820006FF4486E01EB0E039BB24FF27D3E734511
:10A83000F4D95388052BF1D96FF44860181880B209
:10A840007045EBD94FF6FF70814201D09942E5D8AF
:10A85000052305F80C30238801339BB21221238095
:10A86000E954238801339BB223801188E954E81806
:10A87000090A4170238802339BB223805288EA542C
:10A88000E918120A4A7023880233238006E7012B55
:10A89000A8D173789F42A5D3ADF808300821BDF840
:10A8A0000830FE2B3FF65CAE22880133AB54228881
:10A8B000013292B22280A954228813442380A0E757
:10A8C0000921ECE770B5C0B14AB116880024B44242
:10A8D00003D305196D789D4208D0A14201D800200C
:10A8E0000BE0055D01352C44A4B2F0E7A142F6D996
:10A8F000A31C1380005D013880B270BD13B51346F0
:10A900000022ADF806200DF106020446FFF7DAFF3B
:10A9100010B1BDF80630E01802B010BD72DF70470C
:10A9200073DF704774DF704738B5012204460D4667
:10A93000B0F89810D0F89400FFF7E0FF00B1057070
:10A9400004F13C0204F1940104F15400BDE83840E4
:10A95000FFF7E4BF80F830107047F8B504460F46A3
:10A96000002966D0002864D091F87A301BB191F8A4
:10A970009830002B5FD1D7F8A030042B5BD0D7F8EC
:10A980009C30042B57D04FF0000C84F802C007F124
:10A9900078060FCE251D0FC50FCE0FC596E8070010
:10A9A00085E8070084F830C0D7F8A4306363D7F88F
:10A9B000A830A36304F194024FF6FF73C4F8AAC051
:10A9C000A4F8A830C4F8A420C4F8ADC022780AB90D
:10A9D00084F85430224604F155011F25C4F8941020
:10A9E000384622F8985FFFF7ADFD08BB224604F118
:10A9F0007401C4F89C1007F13C0022F8A05FFFF737
:10AA0000A1FDA8B9A369A4F848304FF480730125CB
:10AA1000A4F8503063692064014684F83C506364B4
:10AA200004F13C0204F15400FFF778FF00B92570EF
:10AA3000F8BD0E20FCE70720FAE72DE9F041077882
:10AA400004460D46002F00F0108181700020FEF7B3
:10AA5000D9F8064620B1012363700020BDE8F081DB
:10AA6000E388C4F8AA0004F1AA08C4F8AD0013B141
:10AA7000A378012B04D0E3794BB1A378022B06D144
:10AA8000636BA3B1012284F8B1200820984704F138
:10AA9000AB0204F1B10112F8013B5BB99142FAD16A
:10AAA0006A1E032A4FD8DFE802F0070D111484F85C
:10AAB000B130ECE73B46F3E7A2791AB194F82420D1
:10AAC00002B95BB9E2790AB1002B3ED1237A002B9F
:10AAD0003DD1637A002B0CBF00250425636BA57064
:10AAE000002B36D0033D012D33D862798AB394F818
:10AAF000B22072BB84F8B420012284F8B32007206E
:10AB0000984704F13C0518220021284603F05BFD1C
:10AB1000E26A0123511E994284F83C3098BFD3B2B7
:10AB200084F8513094F8243098BF3E461BB1A6B14A
:10AB3000A26A84F85220A278042A1ED8DFE802F024
:10AB40007E0F283C60000025C8E70225C6E70325E4
:10AB5000C4E7002384F8B330D3E70122E9E70123F7
:10AB600084F831300023C4E91083C4F8A4300223F0
:10AB700084F83C308023A4F84830A378002B61D1BE
:10AB8000636B002B3FF469AF94F83100984764E79A
:10AB9000002B14BF0723032384F83C302369A4F857
:10ABA000483000230222C4F8A430E36884F831203E
:10ABB000C4F840806364E0E762696264A269A4F853
:10ABC000482013B1062384F83C306379B3B194F87C
:10ABD000B2309BB994F8B43083B1022384F850307A
:10ABE00004212046FFF7A0FE0028C6D1052384F8E3
:10ABF000313004F19403C4F8A430BEE70323F6E730
:10AC0000E2696264226AA4F8482013B1062384F83A
:10AC10003C30637983B194F8B2306BB994F8B430B6
:10AC200053B1022384F8503004212046FFF77CFE04
:10AC30000028A2D10623DAE70423D8E7002384F80A
:10AC400031309AE7D4F8A4102A4604F15400FFF7F3
:10AC500065FE00287FF402AF94F8301094F8540099
:10AC6000FFF75EFE00288BD0F8E60820F6E60388A2
:10AC7000112B10B50C460AD0262B1FD0102B05D156
:10AC8000C37B012B02D18388A1F8A83010BD00221C
:10AC9000838881F8B220B1F8A8209A42F6D10B79C6
:10ACA000002BF3D101212046FFF7C7FE0028EDD08D
:10ACB000A36B002BEAD0BDE810401847037A013B94
:10ACC000012BE3D8897805230131B1FBF3F303EBC2
:10ACD0008303C91AC9B2E6E70238012810B50C4649
:10ACE0000DD84B785BB100234B7020468978FFF775
:10ACF000A4FE20B1A36B13B1BDE81040184710BDEE
:10AD000038B5044690F85400FFF70CFE012384F890
:10AD1000B230002384F8B43084F850300621204645
:10AD2000FFF702FE054638B9A1782046FFF785FEF9
:10AD300010B1A36B03B19847284638BD75DF704743
:10AD400076DF70477ADF70477BDF7047034B1A88E6
:10AD500082420CBF18460020704700BF043000201C
:10AD6000024B9B6903B11847704700BFE82F0020D2
:10AD700073B585B22846FFF7E9FF044638B3174E8E
:10AD8000027A337B9A420CD200F10A012846FFF77F
:10AD9000D5FFF0B111281AD002B0BDE87040FFF71E
:10ADA000DFBF00230372337C43B13B212846FFF70A
:10ADB000C7FF30F0080301D0FFF7D2FF736933B14A
:10ADC00000228DF80420ADF8065001A8984702B083
:10ADD00070BD237A01332372F9E700BFE82F00200A
:10ADE00037B50B46497A0F4A79B9D2E901141D7A71
:10ADF0000246002D18BF21465868FCF7D5FA78B1F5
:10AE000003B0BDE83040FFF7ABBF002119725369B2
:10AE100033B10122ADF806008DF8042001A898474F
:10AE200003B030BDE82F00204B8802889A4212D828
:10AE300042889A420FD380888B8840F2F31188426F
:10AE400094BF021A421A9A4205D80844984234BF65
:10AE50000020012070470020704700000388122B5B
:10AE600070B5014659D004D8102B1ED0112B44D0F8
:10AE700070BD502BFCD12F4BC288DB899A42F7D191
:10AE8000038A022BF4D186883046FFF75FFF054620
:10AE90000028EDD001F1120000F0B4F938BB686869
:10AEA000FCF7CAFA0028E3D009E0C37B012BDFD10D
:10AEB0004FF6FF70FFF74AFF054620B90420BDE8B2
:10AEC0007040FFF74DBF1C4A8E8806800023037236
:10AED0001368C0F80A305368C0F80E3010310A30D9
:10AEE000FFF7A2FF134B6872DB89002BC0D1294604
:10AEF0003046BDE87040FFF773BF8088FFF726FF3C
:10AF000004460028B4D04068FCF796FA08B1FFF771
:10AF100027FF4FF6FF732380AAE786883046FFF7A6
:10AF200015FF05460028A3D008310A30FFF77CFF43
:10AF30006872DCE7E82F002018300020F8B50646DC
:10AF400048B305460FCD154F3C460FC495E80700A2
:10AF500084E807003068124C3C60B0B1FFF7F2FEA5
:10AF6000C0B9326813682360536863600D480E4AA5
:10AF70004FF6FF7303800D4B40F8043F0021FCF7B0
:10AF800001FA002818BF032004E02046FFF7DCFE8A
:10AF90000028EBD0F8BD0E20FCE700BFE82F002012
:10AFA000183000200430002071AD02002030002055
:10AFB000F7B5174601900E4691B1019C6CB1002582
:10AFC0002C46294601A8FDF74BFA18B13946A8B21C
:10AFD000B04701340135142DF3D1204603B0F0BD44
:10AFE0000C46FAE773B50191019C06466CB1002549
:10AFF0002C46294601A8FDF733FA18B106EB4403A5
:10B0000001349D800135142DF3D13046346002B0F7
:10B0100070BD00002DE9F04703888488112B8CB0A7
:10B0200005463DD01A2B42D0102B19D1DFF8C08035
:10B03000D8F80830DB430093D8F804106846FDF7D1
:10B0400074FA009901A8FFF7CDFF0DF10809002758
:10B05000019B9F4207D3132C12D90420FBF70EFF4C
:10B060000CB0BDE8F08739F802AB00260136514636
:10B0700008EB8600FDF7EAF91D2EF7D10137E7E767
:10B0800016482146FDF7CBF915482146FDF7C7F9CB
:10B09000EB7B012BE4D013482146FDF7C0F9DFE735
:10B0A0000E4821460CB0BDE8F047FDF7CFB9037A52
:10B0B0000D481F2B4FEA131521460AD9FDF7AFF9AA
:10B0C000022D0A482146EDD00CB0BDE8F047FDF74F
:10B0D000A6B9FDF7BBF905482146E3E74830002053
:10B0E000443000204C3000205030002054300020EC
:10B0F000403000201328014602D80248FDF7B0B9BD
:10B10000002070474430002007B50190FFF7F2FFA0
:10B11000019930B10448FDF7A3F9002814BF0220BB
:10B12000012003B05DF804FB4C30002007B501900E
:10B13000FFF7E0FF019928B1044803B05DF804EB84
:10B14000FDF78EB903B05DF804FB00BF503000205E
:10B1500008B518210248FDF78CF9C0B208BD00BF40
:10B160004030002070B50A4E054630460C46FDF7CB
:10B1700077F958B12846FFF7BDFF38B106342946A4
:10B1800006EB8400BDE87040FDF76AB9002070BD91
:10B1900040300020F8B50D4C054620460E461746B7
:10B1A000FDF75EF980B12846FFF7A4FF60B1B01D3E
:10B1B00004EB800029461FB1BDE8F840FDF72FB928
:10B1C000BDE8F840FDF742B9F8BD00BF40300020AF
:10B1D00073B50B4D019204460E4601462846FDF715
:10B1E0003FF950B1043405EB8404019AA06831465C
:10B1F00002B0BDE87040FFF7DBBE02B070BD00BF1B
:10B2000040300020008800F00100704710B504466F
:10B21000408800F0CBFBA0802046BDE8104001F044
:10B22000D9BB30B587B005460C461422002101A8D1
:10B2300003F0C9F9072301A88DF80430ADF80650D2
:10B240000394FFF7E3FF07B030BD000030B587B0CF
:10B2500005461422002101A803F0B5F94FF6FF734B
:10B260009D42ADF8065023D0284600F030FA112850
:10B27000044617D007D860B10B2811D021462846C4
:10B28000FFF7CFFF03E043F202039842F6D100221A
:10B2900009E00E2301A88DF80430FFF7B7FFF6E7A9
:10B2A0000F23F7E70122034B28461978FFF772FFB7
:10B2B00007B030BDB9300020FFF7C8BF024B0349CB
:10B2C00018780022FFF784BFBB300020E5B20200EF
:10B2D000024B034918780022FFF77ABFBA300020EA
:10B2E00085B3020070B5254E86B031780446FFF76D
:10B2F00039FF054600283ED1204600F03BFA1128D0
:10B30000014623D008D8062822D0082820D078B1BA
:10B310002046FFF786FF19E043F20203984215D05A
:10B3200043F201439842F3D12046FFF78FFF0DE02F
:10B330002946142201A803F046F9102301A88DF82C
:10B340000430ADF80640FFF761FF0125012205E05A
:10B35000204600F02BFB00F027FA0022084B204685
:10B360001978FFF717FF31782A46204606B0BDE866
:10B370007040FFF70FBF06B070BD00BFBC300020AB
:10B38000BB30002070B5002186B006461D4801F094
:10B390006CFD0546A0B3304600F054F986280146FE
:10B3A0000ED006D8D0B1112828D03046FFF739FF8B
:10B3B00003E043F202039842F7D1002425460FE050
:10B3C0001422002101A803F0FEF8062301A88DF83D
:10B3D0000430ADF80660FFF719FFEEE72C4605468E
:10B3E000094B2A4619783046FFF7D4FE44B9054880
:10B3F000214606B0BDE8704001F044BD0024EFE7EF
:10B4000006B070BDB8300020BA30002010B5037807
:10B41000044673B94088FFF719FF608800F097F978
:10B4200038B1044B60881978BDE810400122FFF75D
:10B43000B1BE10BDBB30002037B50378082B0446E1
:10B440002CD1417A51BB057A072D1BD0082D2AD06B
:10B45000012D23D180886A46294601F0F3F8E8B926
:10B46000019B1B78D3B1A08800F0C6FA4FF6FF739A
:10B47000984213D00E4B2A461978FFF78BFEFFF740
:10B480001DFF0BE0808800F0B7FA4FF6FF7398427B
:10B4900004D0084B01221978FFF77CFE03B0BDE809
:10B4A0003040FFF715BF044801F0ECFCF6E700BFA1
:10B4B000BB300020BA300020B830002070B5FFF754
:10B4C00047FE104E104D3070FFF742FE2870FFF718
:10B4D0003FFE0E4C2070FFF73BFE0D4B187033788B
:10B4E000182B0DD02B78182B0AD02378182B07D0C7
:10B4F000182805D00748012101F0B0FC002070BDDC
:10B500000320FCE7BA300020B9300020BB30002017
:10B51000BC300020B830002010B503888488522B3E
:10B5200086B016D0542B22D0502B15D1037B012B83
:10B5300012D1827A012A0FD1018942F6021399426F
:10B540000AD11B4B20461978FFF724FEFFF7C0FEF7
:10B5500002E02046FFF77AFE164B174918780022C2
:10B56000FFF736FE06B0BDE81040FFF7A7BE142275
:10B57000002101A803F027F8112320468DF804309C
:10B58000ADF8064000F012FAADF8080000F00CF932
:10B590000A4B204619780022FFF7FCFD084B204695
:10B5A00019780022FFF7F6FD01A8FFF72FFED3E779
:10B5B000BA300020B9300020B9B20200BC300020FF
:10B5C000BB300020AFDF7047B1DF7047B2DF70479C
:10B5D000B3DF704773B50F4B0F4D93E803006C4614
:10B5E00084E8030000222888214601F01AF94FF66A
:10B5F000FF762B88B34201D0112801D102B070BD73
:10B60000184601F000F900222146288001F009F9CE
:10B61000EFE700BF00F20200BE300020044B1A88A2
:10B620004FF6FF739A4201D0FFF7D4BF704700BFB7
:10B63000BE300020024B4FF6FF721A800020704788
:10B64000BE3000202DE9F743804600F0AFF94FF6F9
:10B65000FF739842064637D001274FF003093A4658
:10B660006B460821304600F0F1FF0137BFB20546B6
:10B6700028BB01990A46032342F8049B0631404641
:10B68000FFF7A4FF044648B932460821304601F0CE
:10B69000A7F80446204603B0BDE8F0830C280CD080
:10B6A000052800D12C460821304601F035F8002845
:10B6B00018BF0324002DD2D1ECE70125F3E70728BA
:10B6C00014BF04460C24E5E743F20204E2E72DE947
:10B6D000F341074600F06AF94FF6FF73984218D11C
:10B6E0000024032526464FF001082B46224631460A
:10B6F0003846FFF769FF042821D0082825D00B28F9
:10B700001ED115F002030FD196B9ACB902B0BDE855
:10B71000F0816A46082100F095FF0028E0D1019BE6
:10B720009C881D689E1DDEE701254FF00008DCE7C0
:10B7300003251C461E46F8E703253446F5E711208D
:10B74000B8F1000F08BF0B20E0E70020F8E71FB5B5
:10B750000DF10703039300F029F902AA012100F07B
:10B7600071FF20B9039B187805B05DF804FB002039
:10B77000FAE7000070B505460A48FFF729FF70B9DF
:10B78000084C43F2030621884FF6FF722846FFF764
:10B7900019FFB04204D1238801332380F3E703204B
:10B7A00070BD00BFC030002013B5074A044692E8C0
:10B7B00003006B4683E8030000221946204601F08F
:10B7C00030F802B010BD00BF08F2020046DF70473B
:10B7D00070B5084D084E002431786888FFF7C2FC28
:10B7E00008B9E0B270BD0134142C05F10C05F3D199
:10B7F000FF20F7E7C4300020C230002010B50A4B0C
:10B8000019780446FFF7AEFC58B1084A0023518866
:10B81000A14201D1D8B210BD0133142B02F10C02A8
:10B82000F5D1FF20F7E700BFC2300020C430002070
:10B8300010B50C46FFF7E2FFFF281FBF0C2358434B
:10B84000014B1C5210BD00BFC430002038B5054666
:10B850000C4609B9FF2038BD4FF6FF739842F9D066
:10B860000E4B01221978FFF795FC2846FFF7C6FF1B
:10B87000FF2803D1FFF7ACFFFF28EBD008490C22CB
:10B8800042438B185D804FF6FF758D5222685A60D7
:10B89000A2881A81A2799A72DDE700BFC230002027
:10B8A000C4300020421E00F10F0312F8010F10B93E
:10B8B0009A42FAD170470120704708B570B171B152
:10B8C00003780A78534013F0FE0F08D106220131A5
:10B8D000013002F015FEB0FA80F0400908BD0020EA
:10B8E000FCE72DE9F04700F101084F1C06460D4624
:10B8F00000F1110901F1110A10223946404602F007
:10B90000FFFD0446D0B94046FFF7CCFF18B13846DA
:10B91000FFF7C8FF044651464846FFF7CEFF737C49
:10B9200003F0FC03042B05D06B7C03F0FC03042B19
:10B9300018BF044604F00100BDE8F0870024EAE7E0
:10B940007FB505460E4600F057FC02AA0DF1060130
:10B95000072000F059FC10B94FF6FF7409E0BDF85C
:10B960000640B442F1D003992846FFF7BAFF0028F9
:10B97000EBD0204604B070BD38B50A4D18232B70AB
:10B98000094B14244FF6FF72013C5A8003F10C035B
:10B99000FAD1FFF7DDFB1828287014BF20460320DA
:10B9A00038BD00BFC2300020C430002008B5FFF70A
:10B9B00025FFFF281DBF0C235843034B4FF6FF7094
:10B9C00018BF185A08BD00BFC430002010B50C467F
:10B9D000FFF714FFFF280BD0064B0C2202FB0030B0
:10B9E000436823600389A380837AA371002010BD7C
:10B9F0000520FCE7C4300020084A30B500230C24A1
:10BA000004FB03F18D5A854202D10A44508830BDAF
:10BA10000133142BF4D14FF6FF70F8E7C430002047
:10BA2000038843B9821C0A3012F8013B1BB98242D9
:10BA3000FAD1184670470120704710B50446FFF749
:10BA4000EFFF58B122880B889A4208D108220231B0
:10BA5000A01C02F055FDB0FA80F0400910BD002096
:10BA6000FCE730B585B0044600F0C6FB02AA0DF134
:10BA70000601072000F0C8FB10B94FF6FF700FE079
:10BA8000039D204605F14601FFF7D7FF30B905F1C8
:10BA90002A012046FFF7D1FF0028E7D0BDF80600B5
:10BAA00005B030BDFFF7C4BE38B50446FFF7A4FFAC
:10BAB0000546204600F044FE4FF6FF718D420446D5
:10BAC00003D010B92846FFF7B3FE204638BD70B545
