:020000022000DC
:1060000000000120396202009162020093620200E6
:10601000956202009762020099620200000000008F
:106020000000000000000000000000009B62020071
:106030009D620200000000009F620200A162020057
:10604000A5620200A7620200A9620200AB62020020
:10605000AD620200AF620200B1620200B3620200F0
:10606000B5620200B7620200B9620200BB620200C0
:10607000BD620200BF620200C1620200C362020090
:10608000C5620200C7620200C9620200CB62020060
:10609000CD620200CF62020025670200D3620200D7
:1060A000D5620200D7620200D9620200DB62020000
:1060B000DD620200DF620200A3620200A36202004E
:1060C000E1620200E3620200E5620200E7620200B0
:0C60D000E9620200EB620200ED620200D7
:1060DC00354936480A1A02D0072291438D46344975
:1060EC0034480A1A06D00722914381F30988022208
:1060FC0082F3148830483149314A00F044F8314871
:10610C003149324A00F03FF831483249324A00F006
:10611C003AF832483249334A00F035F832483349BC
:10612C00334A00F030F833483349344A00F02BF846
:10613C0033483449344A00F026F8344834490022B4
:10614C0000F02CF833483449002200F027F833488B
:10615C003349091A082902DB002202604160314AE6
:10616C0090471F481F49884205D00268043003B489
:10617C00904703BCF7E700208646EC460020002140
:10618C00294A9047FEE7884207D0521A05D0037877
:10619C0001300B700131013AF9D17047884202D0BD
:1061AC0002700130FAE770470000012000E0002087
:1061BC00000001200000012004700200B8570020EC
:1061CC00BC570020F0620200F0620200E06D020099
:1061DC0004700200B8570020B8570020E86D020088
:1061EC00E86D0200E86D0200E86D0200E86D020047
:1061FC00E86D0200E86D0200E86D02000470020018
:10620C0008700200BC570020BC570020BC5700206F
:10621C00DC570020DC570020DC570020DC57002026
:10622C00DC7700205D620200156402000F484FF01D
:10623C000701884385460E4880470E48016841F4A3
:10624C0070010160BFF34F8FBFF36F8FFFF740BF3B
:10625C0009480A490A4A884207D0521A05D00378DD
:10626C0001300B700131013AF9D170470000012067
:10627C001568020088ED00E0E86D0200B8570020B8
:10628C00B8570020FEE7FEE7FEE7FEE7FEE7FEE775
:10629C00FEE7FEE7FEE7FEE7FEE7FEE7FEE7FEE7CA
:1062AC00FEE7FEE7FEE7FEE7FEE7FEE7FEE7FEE7BA
:1062BC00FEE7FEE7FEE7FEE7FEE7FEE7FEE7FEE7AA
:1062CC00FEE7FEE7FEE7FEE7FEE7FEE7FEE7FEE79A
:1062DC00FEE7FEE7FEE7FEE7FEE7FEE7FEE7FEE78A
:0462EC00FEE700BF0A
:1062F00000B583B00190019B1B681F2B04D9054991
:1063000040F2C71000F060F94FF0A043184603B008
:106310005DF804FBE86D020000B585B00190084609
:1063200011461A4603468DF803300B468DF80230AD
:1063300013468DF8013001AB1846FFF7D9FF0390E3
:106340009DF803209DF802305B001A439DF8013050
:106350009B001A439DF818301B0242EA03019DF886
:106360001C301B04019A1943039B02F5E07243F8A9
:10637000221000BF05B05DF804FB00B585B00390A6
:10638000002301930023009300230122012103989D
:10639000FFF7C2FF00BF05B05DF804FB00B585B094
:1063A000019001AB1846FFF7A3FF0390019B012268
:1063B00002FA03F31946039800F018F800BF05B07D
:1063C0005DF804FB00B585B0019001AB1846FFF7FE
:1063D0008FFF0390019B012202FA03F319460398F1
:1063E00000F00EF800BF05B05DF804FB82B001902C
:1063F0000091019B009AC3F8082500BF02B07047C6
:1064000082B001900091019B009AC3F80C2500BF57
:1064100002B0704708B50420FFF7AFFF0420FFF774
:10642000BDFF0720FFF7A9FF0720FFF7B7FF0520F3
:10643000FFF7A3FF0520FFF7B1FF0620FFF79DFF41
:106440000620FFF7BFFF4FF0A043D3F818374FF0F7
:10645000A04243F00403C2F818370820FFF78DFF6D
:106460000820FFF79BFF0920FFF787FF0920FFF7B0
:10647000A9FF4FF0A043D3F824374FF0A04243F0D8
:106480000403C2F824370023184608BD86B00390E1
:106490000291019201238DF817309DF81730214A9F
:1064A000039B13601F4A029B53601E4A019B93602B
:1064B000039B44F20102934213D0039B44F2020275
:1064C000934221D1019B174AD360164BDB681B888E
:1064D0001A46144B9A61134BDB685B68114AD3610F
:1064E00012E0019B0F4A13610E4B1B699B680D4A1A
:1064F00053610C4B1B691B680A4A9361094B1B696A
:106500005B68084AD36100BF72B600BF00BF9DF848
:106510001730DBB2002BFAD162B600BF00BF06B065
:10652000704700BFBC57002000B583B002900091B7
:10653000019244F2010071466A4600F003F803B08C
:1065400000BD00BF00B587B003900291019272B602
:1065500000BF039B44F20202934217D0039B44F214
:106560000202934218D8039B44F20102934210D0D6
:10657000039B44F2010293420ED8039B012B0DD0E2
:10658000039B41F2010293420AD005E0019B05936F
:1065900007E0019B049304E000BF02E000BF00E0BD
:1065A00000BF084B1B6803F00103002B00D000BEA6
:1065B000019A02990398FFF769FF00BF07B05DF8E1
:1065C00004FB00BFF0ED00E000B585B0034600918C
:1065D000ADF80630BDF80630ADF80830009B0393E7
:1065E00002AB1A46002144F20200FFF7ABFF00BFE6
:1065F00005B05DF804FB000000B583B00190009188
:10660000019B002B03D110495020FFF7DDFF009BB9
:10661000002B03D10C495120FFF7D6FF019B009AB4
:106620001A60019B1B681A68019B5A60019B5A689B
:10663000019B1B685B689A4202D1019B00225A6051
:1066400000BF03B05DF804FB186E020000B583B014
:106650000190019B002B03D114496320FFF7B4FF85
:10666000019B1B68002B03D110496420FFF7ACFF8E
:10667000019B5B68002B14D0019B5B681A46019B51
:106680001B689B6813441A46019B5A60019B5A6819
:10669000019B1B685B689A4204D1019B00225A60EF
:1066A00000E000BF03B05DF804FB00BF186E0200FD
:1066B00000B583B00190019B002B03D10449C42095
:1066C000FFF782FF019B5B68184603B05DF804FB8F
:1066D0008C6E020000B585B06B4611491846FFF775
:1066E0008BFF10E06B461846FFF7E2FF0390039B19
:1066F0001B680293039B5A68029B104698476B469F
:106700001846FFF7A3FF6B461846FFF7D1FF034675
:10671000002BE7D100BF00BF05B05DF804FB00BF50
:106720003C6F020008B5FFF7D5FF00BF08BD0000B1
:1067300000B583B00190019B002B03D10449C42014
:10674000FFF742FF019B5B68184603B05DF804FB4E
:10675000486F02004BDF704700BF184600B589B094
:10676000019004AB1846FFF7F5FF0790079B002B3D
:1067700003D0079B052B20D124E002AB1349184618
:10678000FFF73AFF11E002AB1846FFF7D1FF069082
:10679000069B1B680593049A069B5968059B104647
:1067A000984702AB1846FFF751FF02AB1846FFF7B8
:1067B000BFFF0346002BE6D1D3E7054A6B210798BC
:1067C000FFF7B2FE00BF09B05DF804FBF86F0200EE
:1067D0009C6F0200BFF34F8F00BF074BDB6803F4D1
:1067E000E0620549054B1343CB60BFF34F8F00BFF9
:1067F00000BF00BFFCE700BF00ED00E00400FA05A9
:10680000024B034A1A6000BF704700BFB857002010
:106810000090D00308B500F069F90346002B06D0BC
:10682000A04B1B681B0AA04A03F01F03136000F073
:1068300089F90346002B02D09C4B9D4A1A6000F058
:106840009DF90346002B06D09A4B1B685B0B9A4AB6
:1068500003F00703136000F0BDF90346002B05D0D9
:10686000964BDB68954A23F08073D36000F0CEF935
:106870000346002B0ED04FF080430022C3F80C21BA
:106880004FF080430022C3F810214FF080430022D4
:10689000C3F8382500F0E6F90346002B02D0884BF8
:1068A00003221A6000F0FAF90346002B0BD0854B47
:1068B00005221A60844B01221A60844B00221A6060
:1068C000834B3F221A6000F005FA0346002B76D076
:1068D0004FF080537F4AD3F80434C2F820354FF08C
:1068E00080537C4AD3F80834C2F824354FF08053E3
:1068F000784AD3F80C34C2F828354FF08053754AE3
:10690000D3F81034C2F82C354FF08053714AD3F8C5
:106910001434C2F830354FF080536E4AD3F818342F
:10692000C2F834354FF080536A4AD3F81C34C2F8A9
:1069300040354FF08053674AD3F82034C2F84435CD
:106940004FF08053634AD3F82434C2F848354FF0EF
:106950008053604AD3F82834C2F84C354FF0805346
:106960005C4AD3F82C34C2F850354FF08053594A62
:10697000D3F83034C2F854354FF08053554AD3F829
:106980003434C2F860354FF08053524AD3F838346B
:10699000C2F864354FF080534E4AD3F83C34C2F805
:1069A00068354FF080534B4AD3F84034C2F86C3509
:1069B0004FF08053474AD3F84434C2F8703500F0A2
:1069C000A5F90346002B05D0434B1B68434A03F04F
:1069D0004F03136000F0C6F90346002B0DD04FF0B3
:1069E0008043D3F8003403F00103002B05D04FF0AF
:1069F00080436FF00102C3F8002400F0DFF9034682
:106A0000002B05D0364B1B68354A43F48063136076
:106A1000344BD3F88830334A43F47003C2F88830DB
:106A2000BFF34F8F00BFBFF36F8F00BF4FF0102336
:106A3000D3F80032002B05DB4FF01023D3F80432DB
:106A4000002B2BDA284B0122C3F8042500BF264B6C
:106A5000D3F80034002BFAD04FF010231522C3F8DE
:106A6000002200BF204BD3F80034002BFAD04FF0A7
:106A700010231522C3F8042200BF1B4BD3F80034A7
:106A8000002BFAD0184B0022C3F8042500BF164B88
:106A9000D3F80034002BFAD0FFF79CFEFFF7B0FECE
:106AA00000BF08BD240300104035014074C00740FA
:106AB0000DF0ADBA440200103C050040F0ED00E0DE
:106AC000A00500401056004088560040185600406F
:106AD0001456004000C0004058020010E40E004070
:106AE0003C17004000ED00E000E00140124B1B6845
:106AF000DBB2062B1DD1114B1B6803F00F03002BDB
:106B000017D10F4B1B6803F0F003302B01D1012389
:106B100010E00B4B1B6803F0F003402B01D1012365
:106B200008E0074B1B6803F0F003502B01D1012351
:106B300000E0002318467047E00F00F0E40F00F07B
:106B4000E80F00F00A4B1B68DBB2062B0DD1094B96
:106B50001B6803F00F03002B07D1074B1B6803F0E2
:106B6000F003302B01D1012300E0002318467047C9
:106B7000E00F00F0E40F00F0E80F00F0124B1B688C
:106B8000DBB2062B1DD1114B1B6803F00F03002B4A
:106B900017D10F4B1B6803F0F003302B01D10123F9
:106BA00010E00B4B1B6803F0F003402B01D10123D5
:106BB00008E0074B1B6803F0F003502B01D10123C1
:106BC00000E0002318467047E00F00F0E40F00F0EB
:106BD000E80F00F00A4B1B68DBB2062B0DD1094B06
:106BE0001B6803F00F03002B07D1074B1B6803F052
:106BF000F003302B01D1012300E000231846704739
:106C0000E00F00F0E40F00F0E80F00F0124B1B68FB
:106C1000DBB2062B1DD1114B1B6803F00F03002BB9
:106C200017D10F4B1B6803F0F003302B01D1012368
:106C300010E00B4B1B6803F0F003402B01D1012344
:106C400008E0074B1B6803F0F003502B01D1012330
:106C500000E0002318467047E00F00F0E40F00F05A
:106C6000E80F00F00A4B1B68DBB2062B0DD1094B75
:106C70001B6803F00F03002B07D1074B1B6803F0C1
:106C8000F003302B01D1012300E0002318467047A8
:106C9000E00F00F0E40F00F0E80F00F00A4B1B6873
:106CA000DBB2062B0DD1094B1B6803F00F03002B41
:106CB00007D1074B1B6803F0F003302B01D10123F0
:106CC00000E0002318467047E00F00F0E40F00F0EA
:106CD000E80F00F00A4B1B68DBB2062B0DD1094B05
:106CE0001B6803F00F03002B07D1074B1B6803F051
:106CF000F003502B01D1012300E000231846704718
:106D0000E00F00F0E40F00F0E80F00F0124B1B68FA
:106D1000DBB2062B1DD1114B1B6803F00F03002BB8
:106D200017D10F4B1B6803F0F003302B01D1012367
:106D300010E00B4B1B6803F0F003402B01D1012343
:106D400008E0074B1B6803F0F003502B01D101232F
:106D500000E0002318467047E00F00F0E40F00F059
:106D6000E80F00F0124B1B68DBB2062B1DD1114B54
:106D70001B6803F00F03002B17D10F4B1B6803F0A8
:106D8000F003302B01D1012310E00B4B1B6803F003
:106D9000F003402B01D1012308E0074B1B6803F0EF
:106DA000F003502B01D1012300E000231846704767
:106DB000E00F00F0E40F00F0E80F00F0064B1B6856
:106DC000062B05D1054B1B68062B01D1012300E0E2
:106DD00000231846704700BF300100103401001036
:086DE0005D67020000000000E5
:106DE8002E2E2F2E2E2F2E2E2F2E2E2F2E2E2F2EB6
:106DF8002E2F6D6F64756C65732F6E7266782F68B1
:106E0800616C2F6E72665F6770696F2E6800000094
:106E18002F55736572732F77616577746173617726
:106E28002F4465736B746F702F5265706561742D94
:106E3800526F7665722F6669726D776172652F631E
:106E48006F6D706F6E656E74732F6C6962726172AC
:106E58006965732F6578706572696D656E74616CAC
:106E68005F73656374696F6E5F766172732F6E729C
:106E7800665F73656374696F6E5F697465722E63AC
:106E8800000000002E2E2F2E2E2F2E2E2F2E2E2FCE
:106E98002E2E2F2E2E2F636F6D706F6E656E74738E
:106EA8002F6C69627261726965732F65787065729B
:106EB800696D656E74616C5F73656374696F6E5F2D
:106EC800766172732F6E72665F73656374696F6E35
:106ED8005F697465722E68002F55736572732F771A
:106EE80061657774617361772F4465736B746F7034
:106EF8002F5265706561742D526F7665722F6669C1
:106F0800726D776172652F636F6D706F6E656E74E9
:106F1800732F736F66746465766963652F636F6D2D
:106F28006D6F6E2F6E72665F7364682E630000006B
:106F380001000007E06D0200E86D02000800000093
:106F48002E2E2F2E2E2F2E2E2F2E2E2F2E2E2F2E54
:106F58002E2F636F6D706F6E656E74732F6C696220
:106F68007261726965732F6578706572696D656E97
:106F780074616C5F73656374696F6E5F7661727359
:106F88002F6E72665F73656374696F6E5F6974658F
:106F9800722E68002F55736572732F776165777449
:106FA800617361772F4465736B746F702F526570CE
:106FB8006561742D526F7665722F6669726D77619F
:106FC80072652F636F6D706F6E656E74732F736F5C
:106FD80066746465766963652F636F6D6D6F6E2F78
:106FE8006E72665F7364685F736F632E6300000080
:0C6FF800E06D0200E06D020008000000E7
:047004000090D00325
:04000003200062393E
:00000001FF
