:100000000000012071030000590300005B030000A1
:100010005D0300005F0300006103000000000000BA
:10002000000000000000000000000000630300006A
:100030006503000000000000670300006903000082
:100040006B0300006B0300006B0300006B030000F8
:100050006B0300006B0300008D1000006B030000B9
:100060006B0300006B0300006B0300006B030000D8
:100070006B0300006B0300006B0300006B030000C8
:100080006B0300006B0300006B0300006B030000B8
:100090006B0300006B0300006B0300006B030000A8
:1000A0006B0300006B0300006B0300006B03000098
:1000B0006B0300006B030000000000000000000064
:1000C0006B0300006B0300006B0300006B03000078
:1000D0006B0300006B0300006B03000000000000D6
:1000E0000000000000000000000000000000000010
:1000F0000000000000000000000000000000000000
:1001000000000000000000000000000000000000EF
:1001100000000000000000000000000000000000DF
:1001200000000000000000000000000000000000CF
:1001300000000000000000000000000000000000BF
:1001400000000000000000000000000000000000AF
:10015000000000000000000000000000000000009F
:10016000000000000000000000000000000000008F
:10017000000000000000000000000000000000007F
:10018000000000000000000000000000000000006F
:10019000000000000000000000000000000000005F
:1001A000000000000000000000000000000000004F
:1001B000000000000000000000000000000000003F
:1001C000000000000000000000000000000000002F
:1001D000000000000000000000000000000000001F
:1001E000000000000000000000000000000000000F
:1001F00000000000000000000000000000000000FF
:10020000344935480A1A02D0072291438D463349B2
:1002100033480A1A06D00722914381F30988022243
:1002200082F314882F483049304A00F041F83048B2
:100230003049314A00F03CF830483149314A00F049
:1002400037F831483149324A00F032F83148324902
:10025000324A00F02DF832483249334A00F028F88B
:1002600032483349334A00F023F8334833490022F7
:1002700000F029F832483349002200F024F83248CF
:100280003249091A02F094FC314A90471F4820492C
:10029000884205D00268043003B4904703BCF7E7F6
:1002A00000208646EC46002000212A4A9047FEE7BF
:1002B000884207D0521A05D0037801300B70013103
:1002C000013AF9D17047884202D002700130FAE752
:1002D000704700000000012000E000200000012025
:1002E000000001206C2F00000000002024000020EE
:1002F000CC030000CC030000C42B00006C2F0000D6
:100300000000002000000020C42B0000C42B0000CF
:10031000C42B0000C42B0000C42B0000C42B000021
:10032000C42B0000C42B0000692F0000902F000098
:100330002400002024000020240000207C05002050
:100340007C0500207C0500207C0500207C25002009
:100350009903000069140000FEE7FEE7FEE7FEE7F0
:10036000FEE7FEE7FEE7FEE7FEE7FEE700F002B885
:10037000FFF7FCBF0F484FF00701884385460E4842
:1003800080470E48016841F470010160BFF34F8F50
:10039000BFF36F8FFFF734BF09480A490A4A884202
:1003A00007D0521A05D0037801300B700131013AA1
:1003B000F9D17047000001209119000088ED00E09C
:0C03C000C42B0000000000200000002002
:1003CC0086B003900291019201238DF817309DF8AD
:1003DC001730204A039B13601E4A029B53601D4A30
:1003EC00019B9360039B44F20102934212D0039B46
:1003FC0044F20202934220D1019B164AD360154B62
:10040C00DB681B68134A9361124BDB685B68114A0B
:10041C00D36112E0019B0F4A13610E4B1B699B6861
:10042C000C4A53610B4B1B691B680A4A9361094BBD
:10043C001B695B68074AD36100BF72B600BF00BF7F
:10044C009DF81730DBB2002BFAD162B600BF00BFAB
:10045C0006B070472400002000B583B002900091D4
:10046C00019244F2010071466A4600F003F803B0B1
:10047C0000BD00BF00B587B003900291019272B627
:10048C0000BF039B44F20102934207D0039B44F24A
:10049C000202934205D1019B059303E0019B049357
:1004AC0000E000BF074B1B6803F00103002B00D0DA
:1004BC0000BE019A02990398FFF782FF00BF07B0B4
:1004CC005DF804FBF0ED00E000B585B0034600914B
:1004DC00ADF80630BDF806300293009B039302ABD7
:1004EC001A46002144F20200FFF7C4FF00BF05B01A
:1004FC005DF804FB82B003468DF807309DF9073098
:10050C00002B0CDB9DF8073003F01F0205499DF909
:10051C0007305B09012000FA02F241F8232000BFEA
:10052C0002B0704700E100E082B0034600918DF804
:10053C0007309DF90730002B0ADB009BDAB20C491F
:10054C009DF907305201D2B20B4483F800230BE023
:10055C00009BDAB207499DF8073003F00F03043B08
:10056C005201D2B20B441A7600BF02B0704700BFE2
:10057C0000E100E000ED00E082B00190019B1B0B5C
:10058C005BB2184602B0704700B583B003460A460A
:10059C008DF8073013468DF806309DF80630072B82
:1005AC0003D908496B20FFF78FFF9DF806209DF9B2
:1005BC00073011461846FFF7B7FF00BF03B05DF8D0
:1005CC0004FB00BFC42B000000B583B003468DF8BC
:1005DC0007309DF907301846FFF78CFF00BF03B0BA
:1005EC005DF804FB00B583B00346ADF80630BDF8EA
:1005FC000630184600F026F803461B68012B0CBF8A
:10060C0001230023DBB2184603B05DF804FB00B5F0
:10061C0085B00346ADF80630BDF80630184600F03C
:10062C0011F803461A4600231360BDF8063018462D
:10063C0000F008F803461B680393039B00BF05B04A
:10064C005DF804FB82B00346ADF80630BDF8063009
:10065C0003F1804303F5C043184602B07047000015
:10066C0082B00190034A019BC2F8043300BF02B070
:10067C00704700BF0060004082B00190034BD3F87C
:10068C000423019B1340184602B0704700600040E1
:10069C0082B00190084A019B03F5A27352F82330F3
:1006AC00054943F00102019B03F5A27341F8232095
:1006BC0000BF02B0704700BF0060004084B00390E0
:1006CC00029113468DF80730144A039B03F5A2736D
:1006DC0052F82330114923F4473323F44073039A1F
:1006EC0002F5A27241F822300C4A039B03F5A27367
:1006FC0052F82320029B1B0203F4F8519DF807309B
:10070C001B0403F440330B4304491A43039B03F5C6
:10071C00A27341F8232000BF04B070470060004072
:10072C0082B00190054A019B03F5A27352F8233065
:10073C001B0A03F01F03184602B07047006000400C
:10074C0082B00190064A019B03F5A27352F8233044
:10075C001B0C03F00303DBB2184602B0704700BF5A
:10076C000060004000B583B00190019B1B681846E7
:10077C0000F015F90346002B04D105494FF4F6702F
:10078C00FFF7A2FE4FF0A043184603B05DF804FB40
:10079C00F42B000000B585B00190084611461A46AE
:1007AC0003468DF803300B468DF8023013468DF856
:1007BC00013001AB1846FFF7D5FF03909DF80320DD
:1007CC009DF802305B001A439DF801309B001A43E0
:1007DC009DF818301B0242EA03019DF81C301B04E3
:1007EC00019A1943039B02F5E07243F8221000BFF3
:1007FC0005B05DF804FB00B585B003900B468DF891
:10080C000B309DF80B300022019200220092002246
:10081C0000210398FFF7BEFF00BF05B05DF804FB95
:10082C0000B585B0019001AB1846FFF79BFF039014
:10083C00019A039B02F5E07253F8223023F0020375
:10084C000293019A039B02F5E072029943F822107D
:10085C0000BF05B05DF804FB00B585B001900B46F8
:10086C008DF8033001AB1846FFF77CFF0390019A1B
:10087C00039B02F5E07253F82230019A23F44031C5
:10088C00039B02F5E07243F82210019A039B02F5D8
:10089C00E07253F822309DF8032012041146019A9D
:1008AC001943039B02F5E07243F8221000BF05B018
:1008BC005DF804FB00B585B0019001AB1846FFF75D
:1008CC0051FF0390039800F020F80246019B22FA96
:1008DC0003F303F00103184605B05DF804FB00B503
:1008EC0085B0019001AB1846FFF73CFF0390019ACD
:1008FC00039B02F5E07253F822301B0C03F0030348
:10090C00DBB2184605B05DF804FB82B00190019B88
:10091C00D3F81035184602B0704786B00390029198
:10092C0001924FF0A0430493039B059319E0059BA0
:10093C009B0018336B4453F8083CD3F82025019BDB
:10094C001A60059B9B0018336B4453F8083C019AC2
:10095C001268C3F82025019B04330193059B0133D6
:10096C000593039A029B1344059A9A42DFD300BF66
:10097C0000BF06B0704700B585B0019001AB1846BA
:10098C00FFF7F0FE0390019B012202FA03F31A46D3
:10099C00039BC3F8202500BF05B05DF804FB84B0B1
:1009AC000190019B5B09029300230393029B002B94
:1009BC0003D14FF0FF33039300BF019B03F01F03E0
:1009CC000193039A019B22FA03F303F00103002B1A
:1009DC0014BF01230023DBB2184604B0704784B067
:1009EC0001900091009B0393019BDB080293019BF8
:1009FC0003F0070301930122019B02FA03F303990D
:100A0C00029A0A4412781340184604B0704784B016
:100A1C0001900091009B0393019BDB080293019BC7
:100A2C0003F007030193039A029B13441B785AB2F9
:100A3C000121019B01FA03F35BB2134359B2039AF0
:100A4C00029B1344CAB21A7000BF04B07047000076
:100A5C0082B001900C4A019B1344243393F900306B
:100A6C00002B09DB084A019B1344243393F9003013
:100A7C00072B01DC012300E0002303F00103DBB2B0
:100A8C00184602B0704700BF4400002082B00190AD
:100A9C00064A019B1344243393F90030072BCCBF37
:100AAC0001230023DBB2184602B07047440000203B
:100ABC0082B00190064A019B1344243393F9003011
:100ACC00DB43DBB2DB09DBB2184602B0704700BF78
:100ADC004400002084B00390029101928DF8033001
:100AEC00029B59B20E4A039B134424330A461A70D4
:100AFC000B49029B019A41F823209DF8033083F0A7
:100B0C000103DBB2002B08D0029B083B039A51B2C5
:100B1C00034A13440A4683F8442000BF04B07047CC
:100B2C004400002082B00190044A019B13442433FA
:100B3C00FF221A7000BF02B0704700BF44000020B3
:100B4C0000B583B0019004490198FFF760FF00BF26
:100B5C0003B05DF804FB00BF8900002082B0019057
:100B6C00044A019B1344243393F90030184602B015
:100B7C00704700BF4400002082B00190034A019BE3
:100B8C0052F82330184602B0704700BF44000020D2
:100B9C0084B00190074A019B1344443393F900300D
:100BAC008DF80F309DF80F3023F0C003184604B0B9
:100BBC00704700BF4400002084B00190074A019B9D
:100BCC001344443393F900308DF80F309DF80F30F7
:100BDC009B09DBB2184604B0704700BF44000020EC
:100BEC0000B589B00390029113468DF80730FF23AE
:100BFC008DF81F309DF80730002B01D0002300E04A
:100C0C00082305939DF80730002B01D0082300E042
:100C1C0009230493059B069314E00F4A069B52F894
:100C2C002330B3F1FF3F0AD19DF80730029A0699A1
:100C3C000398FFF74FFF069B8DF81F3006E0069BCD
:100C4C0001330693069A049B9A42E6D39DF91F3012
:100C5C00184609B05DF804FB4400002082B003463E
:100C6C008DF807309DF80730094A4FF0FF3142F8F4
:100C7C0023109DF80730072B07D99DF80730083B48
:100C8C00034A1344FF2283F8442000BF02B070478C
:100C9C004400002000B583B02D4B93F84930002B55
:100CAC0003D008230093009B4EE000238DF80730FF
:100CBC0011E09DF807301846FFF771FE0346002B34
:100CCC0004D09DF807301846FFF72CFF9DF807302D
:100CDC0001338DF807309DF807301F2BE9D900231D
:100CEC008DF8073009E09DF807301846FFF7B6FF7E
:100CFC009DF8073001338DF807309DF80730082B2D
:100D0C00F1D904220021134801F0E4F91248FFF74D
:100D1C0033FC034606211846FFF736FC0E48FFF756
:100D2C002BFC03461846FFF74FFC4FF4BE70FFF741
:100D3C006EFC4FF00040FFF793FC054B012283F84B
:100D4C00492000230093009B184603B05DF804FB78
:100D5C0044000020890000200060004000B587B0EE
:100D6C000390029101920398FFF719FE0346002BA2
:100D7C0004D136494FF40C70FFF7A6FB0023059302
:100D8C000398FFF795FE0346002B02D0082305932A
:100D9C0057E0029B9B78C3F34003DBB21A460199E0
:100DAC000398FFF71DFF03468DF813309DF91330A0
:100DBC00B3F1FF3F43D0029B9B78C3F38003DBB2BC
:100DCC0083F00103DBB2002B13D0029B9B7803F062
:100DDC000103DBB2002B03D00398FFF721FD05E0E4
:100DEC00029B5B7819460398FFF705FD0398FFF704
:100DFC00A7FE029B9B7803F00203DBB2002B08D00A
:100E0C009DF91300029B1B781A460399FFF756FCB9
:100E1C0017E09DF91330083B0D4A134493F9441025
:100E2C00029B1B789B015AB29DF91330083B0A4375
:100E3C0051B2074A13440A4683F8442001E00423C4
:100E4C000593059B184607B05DF804FB242C0000A5
:100E5C004400002000B589B001900B468DF803309A
:100E6C000198FFF79CFD0346002B04D13A494FF43F
:100E7C001870FFF729FB0198FFF71AFE0346002BA9
:100E8C0004D1354940F26120FFF71EFB0198FFF7B2
:100E9C00FDFD0346002B2AD00198FFF75FFE0346A9
:100EAC00083B1846FFF788FE03468DF80F309DF877
:100EBC000F30032B0BD10198FFF7FCFC0346002BE2
:100ECC0001D0032300E002238DF81F3008E09DF8C9
:100EDC000F30012B01D1022300E003238DF81F30CA
:100EEC009DF81F3019460198FFF7B6FC30E00198C9
:100EFC00FFF7AEFD0346002B2AD00198FFF72EFE1C
:100F0C0003460693069B9BB240339BB29B00ADF805
:100F1C001630069B1846FFF7BBFBBDF8163018467B
:100F2C00FFF775FB9DF80330002B11D00198FFF7EC
:100F3C0015FE03461846FFF71FFE0490049B002B7A
:100F4C0006D00122069B02FA03F31846FFF788FB32
:100F5C0000BF09B05DF804FB242C000000B585B07F
:100F6C000190019A01210020FFF7D7FC0023039385
:100F7C000BE0039B9B00019A13441B68002B01D0D0
:100F8C00012306E0039B01330393039B002BF0D05A
:100F9C000023184605B05DF804FB000000B587B0CF
:100FAC000190002305935BE0344A059B13444433C2
:100FBC0093F90030B3F1FF3F4ED00598FFF7E8FDF1
:100FCC00049001990498FFF70AFD0346002B44D0C6
:100FDC000598FFF7F1FD03468DF80F300498FFF7E5
:100FEC007EFC03468DF80E309DF80E30022B01D19D
:100FFC00032300E002238DF80D309DF80D301946C7
:10100C000498FFF729FC0498FFF7B5FC0498FFF748
:10101C00A5FD03461846FFF7AFFD0290029B002B7F
:10102C001BD09DF80F30032B0FD09DF80E30022BE8
:10103C0003D19DF80F30012B07D09DF80E30032BF8
:10104C000BD19DF80F30022B07D19DF80F20029B7E
:10105C0011460498984700E000BF059B01330593A7
:10106C00059B002BA0D00198FFF778FF0346002BBF
:10107C0097D100BF00BF07B05DF804FB440000200F
:10108C0000B589B000230793002300934FF48073BD
:10109C00ADF81630012304930023069321E0BDF82C
:1010AC0016301846FFF79EFA0346002B0ED0049814
:1010BC00FFF7E2FA0346002B08D0BDF816301846AD
:1010CC00FFF7A5FA079A049B13430793049B5B0055
:1010DC000493BDF816300433ADF81630069B01337B
:1010EC000693069B072BDAD94FF4BE70FFF77AFAFA
:1010FC000346002B0DD04FF4BE70FFF788FA079B08
:10110C0043F0004307936B461A4601210020FFF77A
:10111C0004FC079BDBB2002B29D001230493002392
:10112C00069321E0049A079B1340002B16D00698D7
:10113C00FFF7F6FA03900698FFF702FB03468DF8CB
:10114C000B300698FFF718FD0190019B002B05D082
:10115C009DF80B20019B114603989847049B5B005C
:10116C000493069B01330693069B072BDAD9079B46
:10117C00002B03DA6B461846FFF710FF00BF09B0CF
:10118C005DF804FB00B59DB001900B468DF8033063
:10119C00164B1B680133154A1360144B1B68184619
:1011AC0000F062FE0FA3D3E9002300F09FFD02467E
:1011BC000B461046194600F031FE03460C4A1360EC
:1011CC000A4B1A680A4B1B6803A80A4901F04DF830
:1011DC0003AB184601F0ADF800BF1DB05DF804FB81
:1011EC00AFF3008025BF58F28BB522409000002051
:1011FC00A0000020742C00000000000000B59DB081
:10120C0001900B468DF80330164B1B680133154AC1
:10121C001360144B1B68184600F026FE0FA3D3E98D
:10122C00002300F063FD02460B461046194600F001
:10123C002DFE03460C4A13600A4B1A6803AB0B498C
:10124C00184601F012F803AB184601F072F800BF13
:10125C001DB05DF804FB00BFAFF3008025BF58F252
:10126C008BB5224094000020A4000020882C0000A4
:10127C000000000000B59DB001900B468DF80330C6
:10128C00164B1B680133154A1360144B1B68184628
:10129C0000F0EAFD0FA3D3E9002300F027FD02467E
:1012AC000B461046194600F0F1FD03460C4A13603C
:1012BC000A4B1A6803AB0B49184600F0D6FF03AB78
:1012CC00184601F036F800BF1DB05DF804FB00BFF6
:1012DC00AFF3008025BF58F28BB522409800002058
:1012EC00A8000020882C00000000000000B59DB074
:1012FC0001900B468DF80330164B1B680133154AD1
:10130C001360144B1B68184600F0AEFD0FA3D3E915
:10131C00002300F0EBFC02460B461046194600F089
:10132C00B5FD03460C4A13600A4B1A6803AB0B4914
:10133C00184600F09AFF03AB184600F0FAFF00BF06
:10134C001DB05DF804FB00BFAFF3008025BF58F261
:10135C008BB522409C000020AC000020882C0000A3
:10136C0000B589B0FFF796FC0790079B0693069B88
:10137C00002B04D0334A48210698FFF76DF8324A07
:10138C0001AB1268114619800233120C1A70032338
:10139C008DF8053001AB2D4A19461A20FFF7DEFCFB
:1013AC000790079B0593059B002B04D0254A5121E0
:1013BC000598FFF751F801AB254A19461B20FFF79A
:1013CC00CDFC0790079B0493049B002B04D01D4A73
:1013DC0053210498FFF740F801AB1E4A19461C2014
:1013EC00FFF7BCFC0790079B0393039B002B04D0D7
:1013FC00144A55210398FFF72FF801AB164A1946EA
:10140C001D20FFF7ABFC0790079B0293029B002B60
:10141C0004D00C4A57210298FFF71EF801211A201C
:10142C00FFF718FD01211B20FFF714FD01211C20E3
:10143C00FFF710FD01211D20FFF70CFD00BF09B0C7
:10144C005DF804FB982C0000F02C000091110000BA
:10145C000912000081120000F912000008B5FFF714
:10146C007FFF024800F013FCFEE700BFF42C0000E5
:10147C00BFF34F8F00BF064BDB6803F4E0620449F7
:10148C00044B1343CB60BFF34F8F00BF00BFFDE78E
:10149C0000ED00E00400FA0582B01B4B1B68B3F1B1
:1014AC00FF3F0AD1194B1B68DBB20193184B1B6829
:1014BC001B0903F00F03009305E0134B1B6801930A
:1014CC00144B1B680093019B062B19D1009B033B0B
:1014DC00032B13D801A252F823F000BFF91400001B
:1014EC00FD1400000115000005150000012308E0A3
:1014FC00012306E0012304E0012302E0012300E0C4
:10150C000023184602B0704730010010E00F00F0C5
:10151C00E80F00F03401001082B0154B1B68DBB2F1
:10152C000193144B1B681B0903F00F030093019BE1
:10153C00062B19D1009B033B032B13D801A252F8A5
:10154C0023F000BF6115000065150000691500004F
:10155C006D150000012308E0002306E0002304E0E1
:10156C00002302E0002300E00023184602B070477D
:10157C00E00F00F0E80F00F082B01B4B1B68B3F1DA
:10158C00FF3F0AD1194B1B68DBB20193184B1B6848
:10159C001B0903F00F03009305E0134B1B68019329
:1015AC00144B1B680093019B062B19D1009B033B2A
:1015BC00032B13D801A252F823F000BFD915000059
:1015CC00DD150000E1150000E5150000012308E021
:1015DC00012306E0012304E0012302E0012300E0E3
:1015EC000023184602B0704730010010E00F00F0E5
:1015FC00E80F00F03401001082B0154B1B68DBB211
:10160C000193144B1B681B0903F00F030093019B00
:10161C00062B19D1009B033B032B13D801A252F8C4
:10162C0023F000BF411600004516000049160000CB
:10163C004D160000012308E0002306E0002304E01F
:10164C00002302E0002300E00023184602B070479C
:10165C00E00F00F0E80F00F082B01B4B1B68B3F1F9
:10166C00FF3F0AD1194B1B68DBB20193184B1B6867
:10167C001B0903F00F03009305E0134B1B68019348
:10168C00144B1B680093019B062B19D1009B033B49
:10169C00032B13D801A252F823F000BFB916000097
:1016AC00BD160000C1160000C5160000012308E09D
:1016BC00012306E0012304E0012302E0012300E002
:1016CC000023184602B0704730010010E00F00F004
:1016DC00E80F00F03401001082B0154B1B68DBB230
:1016EC000193144B1B681B0903F00F030093019B20
:1016FC00062B19D1009B033B032B13D801A252F8E4
:10170C0023F000BF21170000251700002917000047
:10171C002D170000012308E0002306E0002304E05D
:10172C00002302E0002300E00023184602B07047BB
:10173C00E00F00F0E80F00F082B0154B1B68DBB235
:10174C000193144B1B681B0903F00F030093019BBF
:10175C00062B19D1009B033B032B13D801A252F883
:10176C0023F000BF811700008517000089170000C7
:10177C008D170000012308E0002306E0002304E09D
:10178C00002302E0002300E00023184602B070475B
:10179C00E00F00F0E80F00F082B01B4B1B68B3F1B8
:1017AC00FF3F0AD1194B1B68DBB20193184B1B6826
:1017BC001B0903F00F03009305E0134B1B68019307
:1017CC00144B1B680093019B062B19D1009B033B08
:1017DC00032B13D801A252F823F000BFF917000015
:1017EC00FD1700000118000005180000002308E098
:1017FC00002306E0012304E0012302E0012300E0C2
:10180C000023184602B0704730010010E00F00F0C2
:10181C00E80F00F03401001082B01B4B1B68B3F1D1
:10182C00FF3F0AD1194B1B68DBB20193184B1B68A5
:10183C001B0903F00F03009305E0134B1B68019386
:10184C00144B1B680093019B062B19D1009B033B87
:10185C00032B13D801A252F823F000BF7918000013
:10186C007D1800008118000085180000012308E095
:10187C00012306E0012304E0012302E0012300E040
:10188C000023184602B0704730010010E00F00F042
:10189C00E80F00F03401001082B01B4B1B68B3F151
:1018AC00FF3F0AD1194B1B68DBB20193184B1B6825
:1018BC001B0903F00F03009305E0134B1B68019306
:1018CC00144B1B680093019B062B19D1009B033B07
:1018DC00032B13D801A252F823F000BFF918000013
:1018EC00FD1800000119000005190000012308E093
:1018FC00012306E0012304E0012302E0012300E0C0
:10190C000023184602B0704730010010E00F00F0C1
:10191C00E80F00F03401001082B0134B1B680193E8
:10192C00124B1B680093019B062B19D1009B033BA8
:10193C00032B13D801A252F823F000BF5919000051
:10194C005D1900006119000065190000002308E012
:10195C00002306E0002304E0012302E0012300E061
:10196C000023184602B070473001001034010010FB
:10197C00024B034A1A6000BF704700BF00000020F2
:10198C000090D00308B5FFF787FD0346002B06D067
:10199C00A04B1B681B0AA04A03F01F031360FFF740
:1019AC00BBFD0346002B02D09C4B9D4A1A60FFF7EF
:1019BC00E3FD0346002B06D09A4B1B685B0B9A4A3F
:1019CC0003F007031360FFF717FE0346002B05D047
:1019DC00964BDB68954A23F08073D360FFF73CFE8F
:1019EC000346002B0ED04FF080430022C3F80C218D
:1019FC004FF080430022C3F810214FF080430022A7
:101A0C00C3F83825FFF768FE0346002B02D0884B3D
:101A1C0003221A60FFF790FE0346002B0BD0854B78
:101A2C0005221A60844B01221A60844B00221A6032
:101A3C00834B3F221A60FFF7AFFE0346002B76D094
:101A4C004FF080537F4AD3F80434C2F820354FF05E
:101A5C0080537C4AD3F80834C2F824354FF08053B5
:101A6C00784AD3F80C34C2F828354FF08053754AB5
:101A7C00D3F81034C2F82C354FF08053714AD3F898
:101A8C001434C2F830354FF080536E4AD3F8183402
:101A9C00C2F834354FF080536A4AD3F81C34C2F87C
:101AAC0040354FF08053674AD3F82034C2F84435A0
:101ABC004FF08053634AD3F82434C2F848354FF0C2
:101ACC008053604AD3F82834C2F84C354FF0805319
:101ADC005C4AD3F82C34C2F850354FF08053594A35
:101AEC00D3F83034C2F854354FF08053554AD3F8FC
:101AFC003434C2F860354FF08053524AD3F838343E
:101B0C00C2F864354FF080534E4AD3F83C34C2F8D7
:101B1C0068354FF080534B4AD3F84034C2F86C35DB
:101B2C004FF08053474AD3F84434C2F87035FFF76E
:101B3C0073FE0346002B05D0434B1B68434A03F04E
:101B4C004F031360FFF7A8FE0346002B0DD04FF098
:101B5C008043D3F8003403F00103002B05D04FF081
:101B6C0080436FF00102C3F80024FFF7D5FE034653
:101B7C00002B05D0364B1B68354A43F48063136049
:101B8C00344BD3F88830334A43F47003C2F88830AE
:101B9C00BFF34F8F00BFBFF36F8F00BF4FF0102309
:101BAC00D3F80032002B05DB4FF01023D3F80432AE
:101BBC00002B2BDA284B0122C3F8042500BF264B3F
:101BCC00D3F80034002BFAD04FF010231522C3F8B1
:101BDC00002200BF204BD3F80034002BFAD04FF07A
:101BEC0010231522C3F8042200BF1B4BD3F800347A
:101BFC00002BFAD0184B0022C3F8042500BF164B5B
:101C0C00D3F80034002BFAD0FFF732FCFFF7B0FE0C
:101C1C0000BF08BD240300104035014074C00740CC
:101C2C000DF0ADBA440200103C050040F0ED00E0B0
:101C3C00A005004010560040885600401856004041
:101C4C001456004000C0004058020010E40E004042
:101C5C003C17004000ED00E000E0014040F22001A4
:101C6C00C2F20001096800F000B880B50B468DF88F
:101C7C0003000DF103000121012200F020F89DF872
:101C8C000310002808BF4FF0FF31084608BD38B5D7
:101C9C0040F22001C2F2000104460D6800F0B4F9D4
:101CAC0002462846214600F08BFE01301EBF0A205A
:101CBC00BDE83840FFF7D2BF4FF0FF3038BDF8B564
:101CCC001D4617460C460646184600F05FFE0028D7
:101CDC0003D407FB04F2A24201D20020F8BD28462F
:101CEC00314600F06DFEB0FBF4F0F8BDF0B540F2FB
:101CFC00FF7681EA030C16EA115E1EBFB64516EAA2
:101D0C001355B54252D021EA465141F48011A1FB42
:101D1C00024723EA465343F48013AE44A0FB036509
:101D2C000CF0004C36197D41A1FB034747F1000331
:101D3C00A0FB0217F619654153F10003094218BFC5
:101D4C0046F0010640F2FE74B3F5007F13D2AEF5F7
:101D5C00806EA64523D24CEA0331280341EA155183
:101D6C0040EA16503203450872F1004250F100006F
:101D7C0051EB0E51F0BDAEF2FF3EA6450FD24CEA30
:101D8C00C321E80241EA555140EA5650F202450897
:101D9C0072F1004250F1000051EB0E51F0BD1EEA01
:101DAC000E0F2DD50CF000410020F0BD16EA115F8E
:101DBC0004BF01F000410020004218BF41F00101B6
:101DCC0016EA135F04BF03F000430022124218BF4F
:101DDC0043F0010306EA1354B44218BFB64503D0CE
:101DEC000CF000410020F0BD21F0004123F0004335
:101DFC00B1EB065F0CD8B3EB065F09D841B13BB130
:101E0C000CF0004141F0FE4141F470010020F0BDA6
:101E1C0040F20001C7F6F8710020F0BDC1F30A537F
:101E2C0040F21E42D21A0EDD202A0AD8CB0243EA17
:101E3C00505040F00040D04090EAE170B0EBE170BF
:101E4C007047002070474B00004218BF43F001035D
:101E5C0013F5001F88BF21F0004111F0004058BF5E
:101E6C006FF00040704700BF10F0004160B148BFF8
:101E7C0040420A0D02F21D42B0FA80F3D21A984089
:101E8C00C30A400503EB0251704700BF01F000424A
:101E9C008B1AA3F16051B1F5801F0ADBB1F17F6F92
:101EAC0009D242EAC102C10071F1004142EB50700B
:101EBC0070471046704701285B4113F5001F02D88C
:101ECC0042F0FF407047C90041EA5070104340F4A3
:101EDC00800040F080407047002B35D129B9B0FB11
:101EEC00F2FC0CFB120260467047914215D22DE9B0
:101EFC00F041B2FA82F39A409940D3F1200C30FAB7
:101F0C000CFC51EA0C01984000F04EF8280036FA0F
:101F1C0003F200210023BDE8F081F0B5B1FBF2FC27
:101F2C000CFB1211B2FA82F39A409940D3F12006BD
:101F3C0030FA06F63143984000F036F86146280036
:101F4C003200DA400023F0BDF3B5B3FA83FC490844
:101F5C005FEA300013FA0CF3DCF1200432FA04F4DB
:101F6C0023430CB41A0000F01FF80CBC33FA0CF32A
:101F7C00DCF11F0C35FA0CF518BF013D03BCA5FBB9
:101F8C00026705FB0377801BB941904271EB030C90
:101F9C0005D3821A71EB0303681C0021F0BD02000B
:101FAC000B0028000021F0BD940D4FF6C2752D02D8
:101FBC00B5FBF4F4D60A013604FB04F5A5FB065672
:101FCC00F64306EB0416550832BF00277708013597
:101FDC0005FB1677A6FB07477F0807EBC6371400EF
:101FEC001500E7FB02457F1B4D1C0400E7FB014578
:101FFC0005FB1206A64284BF013DB618964224BFCB
:10200C000135B61A704700BF411C82070CD010F87E
:10201C00012B3AB3820707D010F8012B12B38207B9
:10202C0002D010F8012BEAB14FF0013C50F8042B10
:10203C00CCFA52F37BB950F8042BCCFA52F353B9C7
:10204C0050F8042BCCFA52F32BB950F8042BCCFAE1
:10205C0052F3002BEAD004381BBAB3FA83F300EB2B
:10206C00D3000130401A704772B3844690EA0103E2
:10207C009B0721D1830709D011F8013B00F8013BE4
:10208C00013A20D08307F7D100E08446202A0AD3F6
:10209C002DE9F007B1E8F807A0E8F807203A202A64
:1020AC00F8D2BDE8F007042A06D351F8043B40F8F7
:1020BC00043B043A042AF8D22AB111F8013B00F887
:1020CC00013B013AF9D16046704700BF00220B007A
:1020DC0011001A0084465AB3830704D000F8011B80
:1020EC00013AF9D124E0C9B241EA012141EA0141A6
:1020FC00202A11D3203A2DE9F0030B460C460D464D
:10210C000E460F4688468946A0E8FA03203AFBD2D1
:10211C00BDE8F00320320BD0042A05D340F8041B91
:10212C00043A05D0042AF9D200F8011B013AFBD17C
:10213C006046704700B5F9B10278EAB1D0F800E01A
:10214C000429034609D34FF0013CCCFA5EF222B9C4
:10215C0053F804EF04390329F7D8181A4FF0013259
:10216C00C2FA5EF292FAA2F2B2FA82F2B1EBD20F9A
:10217C0028BFD108084400BD002000BD10B582B0B6
:10218C00044600698DF8071078B1D4E900239A420F
:10219C001CD26269531C63618154D4E905018842E5
:1021AC0014D1204600F032F810E0D4F80CC0BCF189
:1021BC00000F10D0D4E90023501C984204BF00211A
:1021CC008DF807109A4238BF0CF8021020680130C5
:1021DC00206002B010BDA06858B1D4E9002C624553
:1021EC00F4D2531CB3EB0C0318BFCBB240F8223023
:1021FC00ECE7236A002BE9D0D4E900018842E5D250
:10220C000DF10701204601229847DFE710B542691E
:10221C0032B10446036A0BB1216998470020606112
:10222C0010BD70B5012AB8BF70BD0C460546561CD2
:10223C0028462146FFF7A2FF013E012EF8D870BDBB
:10224C00CB0648BF704789054CBF30212021FFF7D2
:10225C00E8BF38B5044600F036FB054620460021A1
:10226C002422FFF737FFE56138BD82B070B58AB024
:10227C000C460546CDE90E230EA8009001AE304663
:10228C00FFF7E7FF6FF000400290009A049530468C
:10229C00214600F065F80AB0BDE8704002B0704706
:1022AC0070B514460D46064600F00DFB014630464F
:1022BC002A462346BDE8704000F000B82DE9F04FE7
:1022CC0003AF8DB047F83C3C91460E46044600F0F7
:1022DC0075FB0546EB46073020F00700ADEB000818
:1022EC00C546A7F1380A504600212422FFF7F2FE1A
:1022FC0042F23530C0F2000047E907606FF0004051
:10230C0047F8340C47F8144C47F8205C47F8288CF5
:10231C005046494657F83C2C00F022F8DD46A7F110
:10232C000C04A546BDE8F08F436A08460121FFF76F
:10233C00C6BC83B000B582B00DF10C0C8CE80E005D
:10234C0040F22002C2F200020146106803AA019278
:10235C00FFF7A6FF02B0BDE8004003B070470000D5
:10236C002DE9F04F8DB00692894683460020CBF8BC
:10237C0000000DF11E04A4F10108CDF81080CDF879
:10238C0004B019F8011B252906D0002900F084821D
:10239C005846FFF7F3FEF4E70027484619F8012BDF
:1023AC00A2F12003102B0DD88021DFE803F0091BCC
:1023BC001B191B1B1B101B1B31131B151B1B170085
:1023CC0040210DE05E2A0DD14FF4805108E04FF40E
:1023DC00004105E0202103E0102101E04FF40071E1
:1023EC000F43DAE700F10109A2F13000C0B209286D
:1023FC001DD8002119F8010B01EB810102EB410101
:10240C003039A0F13002D2B20A2A0246F2D30BE0E4
:10241C00069A52F8041B0692002944BF47F0100795
:10242C004942427800F1020921EAE17A01E04FF0D9
:10243C00000A2E2A0DD1484610F8012B2A2A0AD15F
:10244C00069899F8012050F8045B069009F10209EE
:10245C0016E000251CE0A2F13001C9B200250929C3
:10246C0013D810F8011B05EB850302EB4302A2F114
:10247C003005A1F13002D2B20A2A0A46F1D38146C4
:10248C00002D58BF47F4807702E0814647F48077EF
:10249C00A2F16800C1B2C00140EA5100C0B20928E3
:1024AC002AD8DFE800F0081417292929052929055D
:1024BC0019F8012B20E0484610F8012B682A15D199
:1024CC0099F8012009F1020947F0080714E019F8FE
:1024DC00012B08E0484610F8012B6C2A09D199F819
:1024EC00012009F1020947F0020705E047F0040753
:1024FC0001E047F001078146622A15DDA2F1630075
:10250C0015283FF63EAFDFE800F0240C0B0B0B0B4D
:10251C000C0B0B0B0B37434D0B0B5B0B6A0B0B179D
:10252C002FE747F480475EE0252A00F0A980582A5F
:10253C0040F07A8147F40057F8054FEA076048BF2E
:10254C0027F40077782A43F2580108BF43F2780148
:10255C0025E0069DA0462C78AAF10106584639467E
:10256C003246FFF76DFE584621464446DDF8108092
:10257C00FFF704FE28467CE1380700F15981B807C3
:10258C00DBF8001000F18081069A1068016054E1BC
:10259C00F8054FEA076048BF27F40077302101EABD
:1025AC00E07321E03806232101EAE070059047F43E
:1025BC008077069A002152F8040B06920825CCE08D
:1025CC0006980468002C04BF42F62154C0F20004A3
:1025DC00F805204600F13381FFF716FD32E1F805CE
:1025EC0048BF27F40077002307F002007904059315
:1025FC0006D4AC460028069809D1031D00210CE036
:10260C00A0B9069951F8040B0691C11716E00730D2
:10261C0020F0070000F10803416800687D0715D41D
:10262C0017F008051CBFC0B2002111E00698073056
:10263C0020F00703596853F8080B06937B070AD45C
:10264C0017F008031CBFC0B2002107E080B20021C4
:10265C00069365461BE040F3C03100B2002909DB4C
:10266C00BB0612D47B06A446059C48BF20240594C7
:10267C0064460CE00023404263EB01012D2305E08E
:10268C0058462521FFF77AFD7BE62B230593FB05A6
:10269C0048BF27F40077FB0558BF012500266E2A9A
:1026AC0023DD6F3A092A00F27E80DFE802F005563E
:1026BC007C7C7C7C247C7C5650EA010272D0AC463B
:1026CC00C20842EA417200260625134665F3DF0074
:1026DC00A055013652EAD1004FEAD1014FEAD2009F
:1026EC0040EA41721846F0D15AE0582A35D0642A93
:1026FC0018BF692A57D150EA010253D0CDE9025ACA
:10270C00A24607F4004B00260C460546BBF1000F11
:10271C0007D006F00300032802BF2C200AF806009D
:10272C000136D046284621460A220023FFF7D4FB67
:10273C0000EB8002A5EB420242F0300208F80620C2
:10274C000136D5F109024FF00002A241DCD3544608
:10275C00DDE903A8DDE901B525E050EA010221D04D
:10276C00AC46BA0442F60152C0F200025CBF42F61B
:10277C001152C0F200024FEA101343EA01734FF0FA
:10278C00000600F00F051846535DA355013650EABC
:10279C0011134FEA11114FEA101343EA0173F0D1F0
:1027AC00654600E00026AAEB06000599FF2988BFC4
:1027BC00013800290A4618BF0122801AAA1B22EAF6
:1027CC00E275A0EB050AB80507D4584639465246BF
:1027DC00FFF736FD05994FF0000AFF2904D9090AC5
:1027EC005846FFF7CBFC059911B15846FFF7C6FCCC
:1027FC00584639465246FFF723FD584630212A46A3
:10280C00FFF70FFD012E06DB18F806105846FFF7F0
:10281C00B5FC013EF8D8F8067FF5B3AD584620213B
:10282C005246FFF7FEFCACE5002A7FF4AAAD44E06B
:10283C00069A1068DBF800100170104629E0294652
:10284C00FFF778FC054627F40077AAEB00065846FC
:10285C0039463246FFF7F4FC35B114F8011B5846E3
:10286C00FFF78CFC013DF8D1DDF8108006980DF1D6
:10287C001E0404300690F8067FF583AD58462021DF
:10288C003246FFF7CEFC7CE5069B1868002206C09A
:10289C0018460430069074E5DBF80C0028B1DBE92F
:1028AC00001291423CBF002242545846FFF7AEFC46
:1028BC00DBF800000DB0BDE8F08F5846FFF7A6FC22
:1028CC004FF0FF30F6E740F2B001C2F200010868A9
:1028DC0000B1704740F20400C2F20000086070477B
:1028EC009AB18446097848B2002844BF6FF00100C1
:1028FC007047BCF1000F18BFCCF800100021C3E9E1
:10290C000011002818BF01207047002070477F2954
:10291C008EBF6FF001000170012070477F2884BFCB
:10292C000020704742F63C72C0F20002515C42F645
:10293C00BC62C0F20002105C08407047A0F161015B
:10294C001A2938BF20387047A0F141011A2938BF25
:10295C00203070477F2884BF0020704742F63C72BD
:10296C00C0F20002515C42F6BC62C0F20002105C84
:10297C0008407047A0F161011A2938BF2038704710
:10298C00A0F141011A2938BF20307047084B1B6851
:10299C0083420AD0074B1B68834206D0064B1B6848
:1029AC00181A18BF4FF0FF3070470020704700BF57
:1029BC001C00002020000020180000204020704740
:1029CC00006800F0D5B800BF1448154A032110B5B3
:1029DC000161144C41614FF4806182610023C46138
:1029EC000162114C836210214362C3620266446629
:1029FC0081660367C3664367BFF35F8F0B4B53213D
:102A0C00A3F10F0E9C4601E013F80119ACEB030285
:102A1C0073458154F8D1BFF35F8F10BDC000002007
:102A2C004C2F00007801002068010020662F000068
:102A3C002DE9F843C568D0F80890A9EB0508904536
:102A4C000446164609D940682844FFF70DFBBFF32E
:102A5C005F8F3544E560BDE8F88340682844354411
:102A6C000F464246A5EB0905FFF7FEFA60682A46B9
:102A7C0007EB0801FFF7F8FABFF35F8FE560BDE8DD
:102A8C00F88300BF2DE9F8430646D0E902048946D5
:102A9C0017464FF0000833699C4203F1FF3228BF00
:102AAC0003F1FF33A0EB04052ABF1B18131B1B1BE0
:102ABC00BD4228BF3D469D42706828BF1D46494611
:102ACC0020442A46FFF7D0FAB0682C44A844A94405
:102ADC007F1BA04208BF0024BFF35F8FF460002F60
:102AEC00D9D14046BDE8F88338B5204B00EB400403
:102AFC0003EBC40E0130DEF82C4000EB4000012C3F
:102B0C008C46154603EBC00005D0022C2AD0B4B17C
:102B1C000024204638BDDEF82830DEF82440A342DD
:102B2C009CBFDEF820105B18013B1C1B944228BF95
:102B3C00144622466146FFF77BFF204638BDDEF87F
:102B4C002830DEF8242093429CBFDEF820105B185E
:102B5C00013B9A1A9542DCD82A466146FFF768FF7A
:102B6C002C46D6E7BDE83840FFF78CBFC0000020EC
:102B7C00F8B50B4B1B7804460D4616466BB1EFF3BC
:102B8C0011874FF0200181F31188324629462046E7
:102B9C00FFF7AAFF87F31188F8BDFFF715FFEEE7E3
:102BAC00C0000020072904D90023024AC0E90031E3
:082BBC0010607047780500204D
:102BC4002E2E2F2E2E2F2E2E2F2E2E2F2E2E2F2E1C
:102BD4002E2F696E746567726174696F6E2F6E72E1
:102BE40066782F6E7266785F676C75652E68000074
:102BF4002E2E2F2E2E2F2E2E2F2E2E2F2E2E2F2EEC
:102C04002E2F6D6F64756C65732F6E7266782F68E6
:102C1400616C2F6E72665F6770696F2E68000000CA
:102C2400433A5C55736572735C64726562615C44BB
:102C34006F63756D656E74735C6E5246355C6E526F
:102C440046355F53444B5C6D6F64756C65735C6EA5
:102C54007266785C647269766572735C7372635CC5
:102C64006E7266785F6770696F74652E630000002A
:102C7400434F554E54313A2025642020433A2025B1
:102C8400640D0A00434F554E54313A2025640D0A11
:102C940000000000433A5C55736572735C647265AE
:102CA40062615C446F63756D656E74735C6E5246ED
:102CB400355C6E5246355F53444B5C6578616D708C
:102CC4006C65735C4D792050726F6A656374735CD4
:102CD400776865656C2D73706565642D73656E73B7
:102CE4006F725C6D61696E2E63000000010002006A
:102CF4007374617274696E672E2E2E0D003031323A
:102D0400333435363738394142434445463031321D
:102D140033343536373839616263646566286E75D5
:102D24006C6C2900342D0000642E0000382D000046
:102D3400430000002929000049290000552900000A
:102D440061290000812900008D2900001B29000051
:102D5400ED28000053756E004D6F6E0054756500CC
:102D640057656400546875004672690053617400C5
:102D7400004A616E00466562004D617200417072E6
:102D8400004D6179004A756E004A756C00417567A3
:102D940000536570004F6374004E6F7600446563A2
:102DA40000002E000053756E646179004D6F6E64EF
:102DB40061790054756573646179005765646E6563
:102DC4007364617900546875727364617900467242
:102DD4006964617900536174757264617900004AB1
:102DE400616E75617279004665627275617279000F
:102DF4004D6172636800417072696C004D617900C5
:102E04004A756E65004A756C79004175677573740F
:102E14000053657074656D626572004F63746F6210
:102E24006572004E6F76656D626572004465636518
:102E34006D6265720000414D00504D0000256D2FFC
:102E440025642F25790025483A254D3A2553002538
:102E54006120256220256520255420255900000085
:102E6400A62D0000A82D0000A82D0000A82D00000C
:102E7400A82D0000A82D0000A82D0000A82D0000FA
:102E8400A82D0000A82D0000FFFFFFFFFFFFFFFF9C
:102E9400FFFFFFFFFFFF0000A92D0000582D0000D9
:102EA400E32D0000752D00003A2E0000412E000095
:102EB4004A2E0000532E0000202020202020202015
:102EC4002068282828282020202020202020202096
:102ED4002020202020202020481010101010101036
:102EE400101010101010101084848484848484843E
:102EF400848410101010101010818181818181014F
:102F040001010101010101010101010101010101AD
:102F1400010101101010101010828282828282023C
:102F2400020202020202020202020202020202027D
:102F340002020210101010200007032004170201DF
:102F440008571040800000005465726D696E616C12
:102F540000000000000000000000545452205245BC
:052F6400474745530042
:102F6C000090D003282D0000282D0000282D0000F3
:102F7C00282D0000282D0000B4000020B8000020EF
:042F8C00BC00002065
:040000030000037185
:00000001FF
