:1000000000000120750300005D0300005F03000095
:1000100061030000630300006503000000000000AE
:100020000000000000000000000000006703000066
:1000300069030000000000006B0300006D03000076
:100040006F0300006F0300006F0300006F030000E8
:100050006F0300006F0300008D0C00006F030000B1
:100060003D1100004D1100006F0300006F03000000
:100070006F0300006F0300006F0300006F030000B8
:100080006F0300006F0300006F0300006F030000A8
:100090006F0300006F0300006F0300006F03000098
:1000A0006F0300006F0300006F0300006F03000088
:1000B0006F0300006F03000000000000000000005C
:1000C0006F0300006F0300006F0300006F03000068
:1000D0006F0300006F0300006F03000000000000CA
:1000E0000000000000000000000000000000000010
:1000F0000000000000000000000000000000000000
:1001000000000000000000000000000000000000EF
:1001100000000000000000000000000000000000DF
:1001200000000000000000000000000000000000CF
:1001300000000000000000000000000000000000BF
:1001400000000000000000000000000000000000AF
:10015000000000000000000000000000000000009F
:10016000000000000000000000000000000000008F
:10017000000000000000000000000000000000007F
:10018000000000000000000000000000000000006F
:10019000000000000000000000000000000000005F
:1001A000000000000000000000000000000000004F
:1001B000000000000000000000000000000000003F
:1001C000000000000000000000000000000000002F
:1001D000000000000000000000000000000000001F
:1001E000000000000000000000000000000000000F
:1001F00000000000000000000000000000000000FF
:10020000354936480A1A02D0072291438D463449AF
:1002100034480A1A06D00722914381F30988022242
:1002200082F3148830483149314A00F044F83148AB
:100230003149324A00F03FF831483249324A00F041
:100240003AF832483249334A00F035F832483349F7
:10025000334A00F030F833483349344A00F02BF881
:1002600033483449344A00F026F8344834490022EF
:1002700000F02CF833483449002200F027F83348C6
:100280003349091A082902DB002202604160314A21
:1002900090471F481F49884205D00268043003B4C4
:1002A000904703BCF7E700208646EC46002000217B
:1002B000294A9047FEE7884207D0521A05D00378B2
:1002C00001300B700131013AF9D17047884202D0F8
:1002D00002700130FAE770470000012000E00020C2
:1002E00000000120000001206C150000000000202B
:1002F00004000020D0030000D003000034150000EB
:100300006C150000000000200000002034150000E3
:1003100034150000341500003415000034150000B9
:100320003415000034150000341500006C15000071
:1003300070150000040000200400002004000020CC
:10034000D5000020D8000020D8000020D8000020D0
:10035000D82000209D03000069110000FEE7FEE7A1
:10036000FEE7FEE7FEE7FEE7FEE7FEE7FEE7FEE765
:1003700000F002B8FFF7FCBF0F484FF007018843B9
:1003800085460E4880470E48016841F470010160BF
:10039000BFF34F8FBFF36F8FFFF732BF09480A4992
:1003A0000A4A884207D0521A05D0037801300B70F0
:1003B0000131013AF9D1704700000120B512000067
:1003C00088ED00E03415000000000020000000204F
:1003D0001FB50021039001AA44F20100CDE90111EB
:1003E00000F004F805B05DF804FB000072B6094B9C
:1003F000D3F8F020D20700D500BEBFF34F8FD968E5
:10040000054A01F4E0610A43DA60BFF34F8F00BF91
:10041000FDE700BF00ED00E00400FA052DE9F84318
:100420000468054694F8200000F0FAFC04F118076F
:10043000FF264FF0FF394FF00008207AFF2802D046
:1004400000F0EEFC2672607AFF2802D000F0E8FC93
:1004500066722068431C03D000F094FBC4F800903F
:1004600084F80B800C34BC42E7D16868BDE8F843DF
:1004700000F0E8BD2DE9F041134EDFF850800C4646
:100480000025012706EB4106735D5BB1735D013BFF
:10049000DBB27355735D93B958F824301B6820465E
:1004A000DB6998474DB167B1084B53F824300221FE
:1004B000BDE8F041586800F038BE0125E4E70027A8
:1004C000F0E7BDE8F08100BF1D000020040000201F
:1004D00010B540680B4902798C5CFF2CE3B20DD05B
:1004E000FE2B0DD0006803F5A87350F823300648A2
:1004F00050F82200984203D1FF238B54002010BDF6
:100500000120FCE718000020280000202DE9F74F0B
:100510000368904693F82120022A04460F4640F0D3
:1005200098800C264E439A195268904509D1DB6990
:100530001BB9002003B0BDE8F08F426810799847DE
:10054000F7E7FFF7C5FF8346002840F08480636823
:10055000DFF810911B79FE2209F80320256895F831
:10056000200000F0B1FCB8F1000F1FD12E44707ACA
:1005700000F0AAFC307A00F091FC63681B79FF223E
:1005800009F803200C2303FB07552368C5F80480F2
:10059000DB69002BCDD063681A79304B03EB420343
:1005A0000221D955606800F0ADFDC2E7A969884510
:1005B00007D32E441FFA81F8307A00F085FC707A58
:1005C000D9E707EB47034FEA830A05EB830360682B
:1005D0005A68914238D0904536D25B46032100F0EC
:1005E00063FD636895F820B0196855F80A002E4439
:1005F00001F5A671B37A01911BB300F027FB024607
:100600000199584600F02AFC95F8200000F046FCBD
:1006100063681B7909F8037063681A79104B43F813
:1006200022800C2606FB07566068002342463946A6
:1006300000F03AFD307A00F031FC707A00F02EFCC8
:10064000A0E700F0EFFADAE70379FF2209F80320C8
:10065000E7E708206EE711206CE700BF1D000020CF
:10066000280000201800002003681B8B5A436423D5
:10067000B2FBF3F292B2FFF749BF00002DE9F04F51
:100680002DED028B89B0044603928A46002900F0C2
:100690003381066896F82130002B40F02F8100F05E
:1006A00089F908B1852846D100F000FA002839D030
:1006B0004FF07043924AD3F8E83F03F0F003303B29
:1006C00018BF01231370FF2386F820304FF6FF7305
:1006D000002233814FF0FF33F2723360F275B38240
:1006E000F36006F1200000F06DFB074600BB0AF145
:1006F0000803804604935AF828205FFA88F308EE2E
:10070000103A531C00F09280256895F82110B9B179
:1007100008252046FFF782FE284609B0BDEC028B73
:10072000BDE8F08F00F088F90028C1D00325F3E779
:100730002046FFF773FE0425EEE74FF00108DAE7E5
:10074000049B059213F808B00C2303FB08F905EB92
:1007500009031046596083F80AB003238DF8183056
:10076000BBFA8BF35B098DF8193006A901238DF8CC
:100770001A3000F0A5F990B9059A45F8092001232F
:1007800093404FF0A042BBF1000F00F0A780C2F8E9
:100790000C3509F10800284400F014FB08B10425C9
:1007A000B7E709F10900284400F00CFB0028F6D156
:1007B0000C2303FB08530593187A00F085FB059B77
:1007C000587A00F081FB55F80900BBF1000F00F0EA
:1007D000888000F03BFA834655F8090000F022FAC1
:1007E000626811680C2202FB08554FEA880303F582
:1007F000A073194481465A46287A00F02FFB63689B
:10080000687A19684A4601F5A47100F027FB0123B4
:10081000EB7263683B4A1B7902EB4303002203F847
:10082000082018EE101A2046FFF770FEB8F1000FEE
:1008300083D0DAF81030B3F5805F01D3092F58D197
:100840002F4B1B7813B1012F38BF012700238DF8E0
:10085000193060688DF818704FF4E063ADF81A3005
:100860000379294A079306A900F06AFB0546002888
:100870007FF44FAF6068DAF810200368D3F8107582
:10088000FFB24FEA127CC7F1200112010CFA01F10C
:10089000A7F1200322FA07F72CFA03F30F431F43B3
:1008A0004FF00108B76100F0FBFB04233A46606893
:1008B000CDF80080022100F010FC0221606800F0F9
:1008C00034FC039BF3616368104A1B7986F821802E
:1008D00042F823400E4AFF21D1541DE7C2F80835E3
:1008E00057E700F09FF9834655F8090000F0AEF98C
:1008F00076E75B0801379EE70B250DE708250BE738
:100900003C0000201D0000207504000004000020B1
:10091000180000202DE9F0470768DFF868900026EE
:1009200004463D46B0464FF00C0A63681B7909EB5C
:10093000430303F80680EB7A73B1236828680AFB47
:100940000633997AB1FA81F1490900F087F92868EC
:1009500000F04AF9C5F804800C357EB16368084A96
:100960001B79FF21D154606800F09AFB606800F0A9
:100970004FFB022387F82130BDE8F0870126D4E73A
:10098000180000201D00002072B6024A13680133CF
:100990001360704740000020034A1368013B136056
:1009A00003B962B6704700BF40000020FFF7ECBFFC
:1009B000FFF7F2BF034B187810B901221A70704785
:1009C000852070474400002000F1804000F5C040C1
:1009D000002382B0036003680193019B02B070475B
:1009E000800000F1A040D0F8002722F44032C0F887
:1009F0000027D0F8003743EA0141C0F800177047DC
:100A0000054B4FF0FF32072843F8202084BFC01861
:100A100080F83C20704700BF48000020C20805490C
:100A200000F0070001238340885C20EA030088541B
:100A3000704700BF8D00002010B5194991F849306A
:100A40005BBB4FF0FF3222FA03F0C00748BFC81863
:100A500003F1010348BF80F82420202BF3D10024A8
:100A6000E0B20134FFF7CCFF092CF9D10D4B002285
:100A7000C020C1F8452083F80603402018604FF4D9
:100A8000BE70FFF7A1FF084B4FF00040C3F804030E
:100A9000012381F84930104610BD0820FCE700BF53
:100AA0004800002000E100E000600040034B93F8A4
:100AB0004900003818BF0120704700BF48000020DF
:100AC00030B52E4B1A1892F92440013453D18C784A
:100AD000002C4CD01C46002254F8045B013541D157
:100AE0001C1884F82420002443F82240920002F1CC
:100AF000804202F5C0420B78D2F810554C7825F4AC
:100B000098151B04240525F4F85504F4801403F407
:100B10004033C2F8105523430402D2F8105504F4B0
:100B2000F85423432B43C2F810354A780123012A95
:100B30004FF0A04203FA00F30CBFC2F80835C2F828
:100B40000C3500F5E073032142F82310C2080C496C
:100B5000012300F0070003FA00F08B5C184388546F
:100B6000002003E00132082AB6D1042030BDFE2364
:100B700082F82430D9E70820F8E700BF48000020B9
:100B80008D00002038B5164C2518014695F8240034
:100B9000072809D8FFF734FF95F92430114A03F5E7
:100BA000A273002042F823006318FF2204EBD10453
:100BB00083F8242094F8452001F0070001238340A6
:100BC0001A420BD04FF0A04301F5E072022043F827
:100BD0002200BDE838400846FFF720BF38BD00BFFF
:100BE0004800002000600040074B184490F9243072
:100BF0009B0003F1804303F5C043D3F8102542F076
:100C00000302C3F81025704748000020044B184425
:100C100090F924000C30800000F0FC00704700BF09
:100C20004800002008B5FFF7F1FF00F1804000F513
:100C3000C04008BD044B184490F9240018308000CF
:100C400000F0FC00704700BF4800002008B5FFF727
:100C5000F1FF00F1804000F5C04008BD0A4B184488
:100C6000003990F924304FEA830303F1804303F500
:100C7000C04318BF0121D3F8102522F4801242EAA4
:100C80000152C3F810257047480000202DE9F743B2
:100C900000244A4D01944FF48072012102F18043F7
:100CA00003F5C04390B21B68012B06D1D5F804337D
:100CB0000B4202D0FFF788FE0C430432B2F5907F5E
:100CC0004FEA4101EAD13D4BD3F87C31012B0CD1E5
:100CD0004FF4BE70FFF778FE4FF0A04344F000449D
:100CE000D3F820250192C3F82025E3B2D3B1344FC5
:100CF00001260025344210D0AB0003F1804303F5F8
:100D0000C043D3F81005D3F8101557F8253023B198
:100D1000C1F30141C0F3042098470135082D4FEA83
:100D20004606E7D1002C1FDADFF894904FF0A04779
:100D300099F944305A1C10D0C3F3C20208326A44F5
:100D4000DCB212F8042C03F03F054FF0010803F069
:100D5000070308FA03F31A4209D1D7F820350193A3
:100D6000C7F82035002BE3D103B0BDE8F08305F5CB
:100D7000E073284657F82360C6F30146022E0CBFE5
:100D800003210221FFF72CFE08FA05F3C7F82035EE
:100D900009EB050393F9243059F82330002BDCD0FC
:100DA000A109032903D0022E04D10129D5D1284657
:100DB0009847D2E7032ED0D10229F7E70060004020
:100DC000480000202DE9F84F134DDFF8508007460A
:100DD0004FF0000A04264FF001095FFA8AFB002059
:100DE00009FA0BF4FFF7E2FD2C420AD0D8F80030E4
:100DF00014EA030201BF2343C8F8003087F800B0AB
:100E000016460020FFF7D4FD1EB1A5430AF1010AE2
:100E1000E3D13046BDE8F88FFFFF0F0094000020BB
:100E2000012310B503FA00F4C4F313037BB1094B9B
:100E30000020C3F80845FFF7B9FD074B186820EA02
:100E4000040018600020FFF7B3FD002010BD07204C
:100E5000FCE700BF00F001409400002010B5A1B1F4
:100E60009AB101238340C3F3130484B10A4C24686C
:100E700023420ED0C00000F1804000F5F830C0F8E9
:100E80001015C0F81425002010BD0E20FCE7072027
:100E9000FAE70820F8E700BF94000020012303FAD6
:100EA00000F0C0F313031BB1054B1B68184204D0BC
:100EB000044BC3F80405002070470820704700BFAA
:100EC0009400002000F00140012303FA00F0C0F379
:100ED00013031BB1054B1B68184204D0044BC3F825
:100EE0000805002070470820704700BF94000020CC
:100EF00000F001402DE9F743002406460F4600F5B7
:100F0000A0754FF48038A1462B688BB1D6F8043316
:100F100008FA04F21A420BD0C5F800902B6801932E
:100F2000019BA30003F5A07398B2D7E9003198475D
:100F30000134042C05F10405E6D103B0BDE8F083CB
:100F4000F7B506792F4D0C237343EF183C7A002C2C
:100F500055D1EA504B687B60477903682246A44626
:100F6000D4B2A7423CD8CA7843F307345201002CCC
:100F7000C3F30733D2B23DDB234F07EB040C8CF8ED
:100F800000230122640903F01F0302FA03F347F868
:100F9000243003684A78D3F8040502F0030220F0F5
:100FA00003000243C3F80425D3F808058A7820F02B
:100FB000030002F003020243C3F80825D3F810052A
:100FC0000A7820F00F0102F00F020A43C3F810253F
:100FD0000C2303FB065501232B72002003B0F0BD48
:100FE000940004F5A074013243F804C01C59019424
:100FF000019CB5E7054C03F00F03E254C9E7082054
:10100000ECE700BF9800002000E100E014ED00E0F4
:10101000036801221A600279034B0C2101FB0233A1
:1010200002221A72704700BF980000200368012254
:101030001A610179024B0C2000FB01331A727047D0
:101040009800002038B503681A0B43F30733002BD0
:1010500004460CDB02F01F015B0901228A402033A9
:101060000D4941F82320BFF34F8FBFF36F8F2368E3
:101070000025D3F80022C3F800524FF0FF32C3F826
:1010800008232046FFF7D2FF2279044B0C2101FBF5
:1010900002331D7238BD00BF00E100E0980000205F
:1010A00003680122DA60704737B54FF48034006876
:1010B0008C407BB18B0003F5A0730025C550C3584D
:1010C0000193019BC0F8044301F5A87140F8212069
:1010D00003B030BDC0F80843F6E770B4046840F2CE
:1010E0000116D4F800528E4025EA0605C4F80052D5
:1010F000D4F800522B43C4F800329DF80C3070BC79
:10110000FFF7D2BF8B0003F5A07302689BB20020EB
:10111000D05082B0D3580193019B4FF4803303FA2F
:1011200001F1C2F8041302B0704702684FF4803333
:1011300003FA01F1C2F808137047000001490248A0
:10114000FFF7D8BE98000020008000400149024807
:10115000FFF7D0BEA400002000900040014B012208
:101160001A707047D40000202DE9F0434FF0A044DE
:101170001023C4F80C358023C4F80C352023C4F8A0
:101180000C354023C4F80C35344E4FF48073C4F84A
:101190000C354FF40073C4F80C350FCE87B001AD99
:1011A0000FC533682B602E4A2E4840F2011301A967
:1011B000ADF80C30FFF762FA08B1FFF709F92948DA
:1011C000294FFFF7A7FB03232022C4F81437C4F8E4
:1011D00008254022C4F81837C4F80C25D4F818277D
:1011E00042F00402C4F818274FF40072C4F8243700
:1011F000C4F80825C4F820374FF48073C4F80C35C0
:10120000D4F8203743F00403C4F82037DFF85480C3
:1012100028244FF0000987F800902822002140463A
:10122000FFF722FA1128F8D03B78002BFCD02822B7
:1012300001214046FFF718FA08B1FFF7C9F80B4E35
:10124000192546F001064FF47A40B047013DFAD126
:10125000013C14F0FF04DED1D8E700BF34150000D4
:101260005D11000048150000D4000020501500005A
:101270004FF08053D3F83001421C04BF4FF070434D
:1012800093F8E00F831F5842584170474FF0704366
:1012900093F8E02F062A09D1D3F8E83FC3F30313EC
:1012A000033B032B02D8024AD05C704700207047F2
:1012B0006815000008B5FFF7DBFF40B14FF0805321
:1012C0008F4AD3F82433C3F30423C2F84035FFF721
:1012D000DDFF10B18B4B8C4A5A67FFF7C9FF48B14D
:1012E0004FF080534FF08042D3F84432C3F342337F
:1012F000C2F83C35FFF7CAFF30B1844AD2F8FC305F
:1013000023F08073C2F8FC30FFF7B2FF40B14FF01A
:1013100080430022C3F80C21C3F81021C3F83825FC
:10132000FFF7B4FF20B14FF080430322C3F8A0259C
:10133000FFF7ACFF60B1764B0522C3F810260122FF
:10134000C3F888260022C3F818263F22C3F81426C3
:101350004FF08053D3F83021511C09BF4FF0704338
:10136000D3F8343193F8E02FD3F8E83F08BFC3F344
:101370000313062A4DD1033B032B03D8654AD35CE4
:10138000002B46D04FF08052634BD2F80414C3F8C0
:101390002015D2F80814C3F82415D2F80C14C3F899
:1013A0002815D2F81014C3F82C15D2F81414C3F869
:1013B0003015D2F81814C3F83415D2F81C14C3F839
:1013C0004015D2F82014C3F84415D2F82414C3F8F9
:1013D0004815D2F82814C3F84C15D2F82C14C3F8C9
:1013E0005015D2F83014C3F85415D2F83414C3F899
:1013F0006015D2F83814C3F86415D2F83C14C3F859
:101400006815D2F84014C3F86C15D2F84424C3F818
:101410007025FFF72DFF48B14FF080534FF0804209
:10142000D3F8583203F04F03C2F8E43EFFF720FF31
:1014300048B14FF08043D3F80024D20744BF6FF087
:101440000102C3F800244FF08053D3F83021062A5C
:101450000ED1D3F83431033B032B02D82F4AD35C8F
:1014600033B12F4AD2F83C3743F48063C2F83C379B
:10147000264AD2F8883043F47003C2F88830BFF3AC
:101480004F8FBFF36F8F4FF01023D3F80022002A45
:1014900003DBD3F80432002B2EDA224B0122C3F8EF
:1014A0000425D3F80024002AFBD04FF01022152188
:1014B000C2F80012D3F80024002AFBD04FF010230A
:1014C0001522C3F80422174BD3F80024002AFBD0BE
:1014D0000022C3F80425D3F80024002AFBD0BFF370
:1014E0004F8F0A49104BCA6802F4E0621343CB6085
:1014F000BFF34F8F00BFFDE70C4B0D4A1A6008BDCC
:101500000030014000C007400DF0ADBA00ED00E032
:10151000005000406015000000C00040641500004D
:101520000010004000E001400400FA050000002027
:041530000090D00354
:10153400040000000700000000000000020000009A
:1015440010270000B0000020581500000338FDD813
:1015540070470000009000400104000000000101F9
:0815640000000001010000007D
:04156C000090D00318
:040000030000037581
:00000001FF
